:100000000C94D5200C9400000C9400000C9400007B
:100010000C9400000C9400000C9400000C94000060
:100020000C9400000C9400000C9400000C94000050
:100030000C9400000C9400000C9400000C94000040
:100040000C9400000C9400000C9400000C94000030
:100050000C9400000C9400000C9400000C94000020
:100060000C9400000C9400000C9400000C94000010
:100070000C9400000C9400000C9400000C94000000
:100080000C9400000C9400000C9400000C940000F0
:100090000C9400000C9400000C9400000C940000E0
:1000A0000C9400000C9400000C9400000C940000D0
:1000B0000C9400000C9400000C9400000C940000C0
:1000C0000C9400000C9400000C9400000C940000B0
:1000D0000C9400000C9400000C9400000C940000A0
:1000E0000C9400000C9400000C9400000C94000090
:1000F0000C9400000C9400000C9400000C94000080
:100100000C9400000C9400000C9400000C9400006F
:100110000C9400000C9400000C9400000C9400005F
:100120000C9400000C9400000C9400000C9400004F
:100130000C9400000C9400000C9400000C9400003F
:100140000C9400000C9400000C9400000C9400002F
:100150000C9400000C9400000C9400000C9400001F
:100160000C9400000C9400000C9400000C9400000F
:100170000C9400000C9400000C9400000C940000FF
:100180000C9400000C9400000C9400000C940000EF
:100190000C9400000C94000000000000000000001F
:1001A0000C9400000C9400000C9400000C940000CF
:1001B0000C9400000C9400000C9400000C940000BF
:1001C0000C9400000C9400000C9400000C940000AF
:1001D0000C9400000C9400000C9400000C9400009F
:1001E0000C9400000C9400000C9400000C9400008F
:0401F0000C9400006B
:1041AA00BFEFBDBFBFE3BEBF0E9425212F923F9242
:1041BA004F92E8DF0091A4080B7F0093A408B7E6AA
:1041CA00B093A608B0E0B093A708B8DA22E010EAE4
:1041DA0003E90A95F1F71A95E1F72A95D1F7000054
:1041EA00B6E92B2EB0E23B2E6BDE4424B3E03B2E25
:1041FA00B0E12B2E91DF99DB0030C9F44424B4E0FE
:10420A003B2EB0E12B2E88DFB2EA2B2EB0E23B2EFA
:10421A0057DEBAD9EFDD4EDBBFDAEFDAA0DF5FDEB9
:10422A0007DABCE82B2EB0E23B2E4ADE05C0B7E126
:10423A002B2EB0E23B2E44DE4F903F902F90FCCFC6
:00424A0074
:10418E00B2E0B0935000B0915100B1FD01C0FBCF31
:0C419E00B8EDB4BFB1E0B093400008954C
:103ECA002F923F920E94C114BDE02B2E0E94280718
:0E3EDA00BAE02B2E0E9428073F902F900895EB
:1029820010E0F1010081202F022F003081F03F92F0
:102992002F92202E0E9428072F903F90012F0F5F29
:1029A200102FE02FF0E0E20DF31D0081EECF08952D
:0029B20025
:100E5000B091A108B5FD01C0FBCFB091A108B6FFCC
:100E600005C0B091A108B064B093A1082092A00879
:020E70000895E3
:10412200BAE7B0930023B3E0B0930123BFEFB0939B
:10413200D720BFEFB093D820B0EBB0934106B0E4E4
:10414200B0934206B0E0B093C108032D0370042976
:10415200022900640093C00832FAB091C008B7F98E
:06416200B093C0080895AF
:10393400CF93DF93CDB7DEB72697CDBFDEBF2196F9
:103944002F923F924F925F926F927F92B0E0BC832E
:10395400B0E0BD830E94010A1D811F5F1D83002307
:1039640021F00D81023308F4F5CF0D81023310F0FC
:103974000FEF37C20E949913B2E06B2EB3E27B2E95
:103984002090B0203090B1204090B2205090B320CD
:10399400E1DA00910025053509F0A7C00091012561
:1039A4000A3A09F0A2C000910223093E59F000919D
:1039B40002230B3E29F400910423003909F402C0C8
:1039C40000E001C001E0002309F08DC00091CC2487
:1039D400002369F40091CD24002349F40091CE24FE
:1039E400002329F40091CF24002309F411C000918D
:1039F400C8240093B0200091C9240093B120009101
:103A0400CA240093B2200091CB240093B32068C051
:103A14000091DC24002369F40091DD24002349F49F
:103A24000091DE24002329F40091DF24002309F40B
:103A340011C00091D8240093B0200091D9240093A0
:103A4400B1200091DA240093B2200091DB2400938A
:103A5400B32046C00091EC24002369F40091ED24C6
:103A6400002349F40091EE24002329F40091EF246B
:103A7400002309F411C00091E8240093B0200091C0
:103A8400E9240093B1200091EA240093B22000912C
:103A9400EB240093B32024C00091FC24002369F498
:103AA4000091FD24002349F40091FE24002329F40D
:103AB4000091FF24002309F411C00091F82400931D
:103AC400B0200091F9240093B1200091FA240093CE
:103AD400B2200091FB240093B32002C001E081C115
:103AE400B0E0BC8302C0B1E0BC83B0E0BD830C8114
:103AF400002309F035C0B2E06B2EB3E27B2E209098
:103B0400B0203090B1204090B2205090B32022DAFF
:103B140000910025053539F4009101250A3A19F47C
:103B2400B1E0BC831DC00D81003411F401E059C122
:103B34000D810F5F0D830091B0201091B120209171
:103B4400B2203091B3200F5F1F4F2F4F3F4F009390
:103B5400B0201093B1202093B2203093B320C7CF6C
:103B6400B1E0BD830C81013009F03AC100910E230C
:103B7400302F222700910D2310E0022B132B0093EA
:103B8400D1201093D22000910F230093C1200091E3
:103B94001123302F22270091102310E0022B132B26
:103BA4000093AE201093AF20009112230093B8200D
:103BB40000911923302F22270091182310E0022BA3
:103BC400132B0093BF201093C0204091122350E088
:103BD4000E94D9142090B0203090B1204090B2209F
:103BE4005090B320A80160E0762F420D531D641D50
:103BF400751D0091AE201091AF2020E0322F040FEC
:103C0400151F261F371F0093BB201093BC20209341
:103C1400BD203093BE2000911423302F2227009121
:103C2400132310E0022B132B0093B9201093BA2016
:103C340020E0322FB5E0A801B901440F551F661FDB
:103C4400771FBA95D1F70091D1201091D22020E0AE
:103C5400322F040F151F261F371F0150104020401C
:103C640030404091D1205091D22060E0762F0E94C4
:103C7400E11489019A014091BB205091BC206091CC
:103C8400BD207091BE20040F151F261F371F0093FF
:103C9400D3201093D4202093D5203093D620209085
:103CA400B0203090B1204090B2205090B3200091C9
:103CB400AE201091AF20A80160E0762F420D531D75
:103CC400641D751D409304255093052560930625B6
:103CD400709307250091BF201091C02020E0322F5F
:103CE400040F151F261F371F0093EA201093EB20A3
:103CF4002093EC203093ED200091D1201091D2201C
:103D0400169507950093C4201093C520109119238C
:103D140000911823012B09F461C01091152300911F
:103D24001623012B59F0FE010091152300838E0107
:103D3400F801319600911623008316C0FE0100910C
:103D4400222300838E01F8013196009123230083FE
:103D54008E01F80132960091242300838E01F8012C
:103D640033960091252300830090D3201090D42013
:103D740008811981001911090090D5201090D620CE
:103D84002A813B81200931094091C12050E0652FEF
:103D9400752F0E949F148B019C01088319832A8329
:103DA4003B83303029F4203019F41F3009F4053FE7
:103DB40018F4B1E0BD8311C0088119812A813B81C7
:103DC400303029F4203019F41F3F09F4053F18F46A
:103DD400B0E0BD8302C0B1E0BD8302C001E001C018
:103DE4000D817F906F905F904F903F902F9025961C
:0A3DF400CDBFDEBFDF91CF9108952F
:10140200CF93DF93CDB7DEB72197CDBFDEBF219655
:101412002F923F924F925F926F927F92B5E0B0937C
:101422008B20B0914006B160B0934006DADF20E035
:1014320030E0303009F42A3080F43F932F93BFEF2D
:101442002B2EE0910023F091012309952F913F91DA
:1014520089010F5F1F4F9801ECCF87DEB5E97B2E24
:101462003324442455246624222485DE0883B9DFEC
:101472000881013011F001E05EC077DEB7E87B2E13
:10148200BAEA3B2EB1E04B2EB0E05B2E6B2EB8E0F9
:101492002B2E71DE0883BFEF2B2EE0910023F091FB
:1014A20001230995BFEF2B2EE0910023F091012338
:1014B2000995BFEF2B2EE0910023F09101230995AE
:1014C200BFEF2B2EE0910023F0910123099589DFD4
:1014D2000881013041F0B1E02B2ECDDE002311F066
:1014E2002224C9DE03C0B2E02B2EC5DE00918B2080
:1014F20010E0103009F4053011F402E01CC0009134
:101502008B2010E0103009F40430A1F02EDEBFEF82
:101512007B2EB0E03B2EB2E04B2EB0E05B2E6B2E6A
:10152200B0E12B2E28DE08835CDF0881003011F049
:1015320003E001C000E07F906F905F904F903F907A
:0C1542002F90CDBFDEBFDF91CF91089548
:1013E4002F92B0914406B160B0934406BFEF2B2E08
:0E13F400E0910023F091012309952F900895B8
:1006F4002092C308B091C208B7FD01C0FBCF00919E
:04070400C308089589
:100494002092C309B091C209B7FD01C0FBCF0091FE
:0404A400C3090895EB
:1004A8002092C30AB091C20AB7FD01C0FBCF0091E8
:0404B800C30A0895D6
:100444002092C30BB091C20BB7FD01C0FBCF00914A
:04045400C30B089539
:0C116C00B0914406BE7FB0934406089585
:10117800CF93DF93CDB7DEB72197CDBFDEBF2196E2
:101188002F92022D005C7F926F925F924F923F9256
:10119800202EE0910023F091012309953F904F9074
:1011A8005F906F906F925F924F923F92262CE091E2
:1011B8000023F091012309953F904F905F906F9025
:1011C8006F925F924F923F92252CE0910023F0910D
:1011D800012309953F904F905F906F906F925F92B7
:1011E8004F923F92242CE0910023F091012309951E
:1011F8003F904F905F906F90232CE0910023F091E7
:10120800012309957F90272CE0910023F091012379
:10121800099530E040E04F933F937F926F925F9241
:101228004F923F922F92BFEF2B2EE0910023F09127
:10123800012309952F903F904F905F906F907F907A
:101248003F914F910883132F242F1F5F2F4F312F6A
:10125800422F0078003029F0403009F4343608F481
:10126800DACF08812F90CDBFDEBFDF91CF910895EF
:0012780076
:10127800CF93DF93CDB7DEB72497CDBFDEBF2196DE
:101288003F924F925F926F927F92B0E0B883B9839A
:1012980008811981173209F4003108F093C0022D32
:1012A80010E0103009F40030B9F45CDF2F92BFEF82
:1012B8007B2E3324442455246624B1E02B2E58DF9A
:1012C8000A838CD02F900A81003029F4B0E0B093C3
:1012D8008B2000E078C06FC045DF2F92BFEF7B2ED8
:1012E8003324442455246624B7E32B2E41DF0A8394
:1012F80075D02F900A81013009F05CC033DF2F923E
:10130800BFEF7B2EB0E03B2E4B2E5B2EB0E46B2E56
:10131800B9E22B2E2DDF0A8361D02F900A8100308D
:1013280009F047C0022D10E0103009F4023009F02E
:101338003BC018DF2F92BFEF7B2E33244424552463
:101348006624BAE32B2E14DF0A83BFEF2B2EE0911D
:101358000023F091012309950B83BFEF2B2EE09119
:101368000023F09101230995BFEF2B2EE091002374
:10137800F09101230995BFEF2B2EE0910023F09106
:10138800012309952BD02F900A81003061F40B813D
:1013980006FF04C0B4E0B0938B2003C0B3E0B09361
:1013A8008B2000E010C005C0B1E0B0938B2000E0B6
:1013B8000AC001C007C0088119810F5F1F4F088349
:1013C800198366CF01E07F906F905F904F903F90B8
:0C13D8002396CDBFDEBFDF91CF910895BA
:10273200B0E0B093BB20B093BC20B093BD20B09367
:10274200BE20B0E0B093F420B093F520B0E0B09397
:10275200EE20B093EF20B0E0B093C820B093C92030
:10276200B093CA20B093CB20B0E0B093C220B09314
:10277200C320B0E0B093CD20B093CE20B093CF2051
:10278200B093D020B0E0B093B420B093B520B09312
:10279200B620B093B720B0E0B0930425B0930525DE
:1027A200B0930625B0930725B0E0B093EA20B0932A
:1027B200EB20B093EC20B093ED20B0E0B093022573
:1027C200B0930325B0E0B093E820B093E920B0E0E5
:1027D200B093C620B093C720B0E0B093E620B09388
:1027E200E720B0E0B093D120B093D220B0E0B09314
:1027F200C420B093C520B0E0B093AE20B093AF2018
:10280200B0E0B093BF20B093C020B0E0B093B92045
:10281200B093BA20B0E0B093D320B093D420B09359
:10282200D520B093D620B0E0B093C120B0E0B093F1
:10283200CC20B0E0B093B820B0E0B093D920B0E0A3
:10284200B093B020B093B120B093B220B093B32034
:10285200B0E0B093F020B093F120B0E0B093DA2072
:10286200B093DB20B0E0B093F220B093F320B0E05D
:0A287200B093E420B093E520089530
:102F5800CF93DF93CDB7DEB72297CDBFDEBF2196E3
:102F68002F923F924F925F920E94B60800918B2059
:102F780010E0103009F4043019F4810192010DC0F9
:102F8800B9E081019201000F111F221F331FBA956A
:102F9800D1F7A801B9018A019B017F926F92BFEF17
:102FA8007B2E302E412E522E632EB1E12B2E0E9405
:102FB800BC086F907F90002321F00E94F20901E085
:102FC80062C07F926F925F924F923F922F92BFEFB3
:102FD8002B2EE0910023F091012309952F903F902B
:102FE8004F905F906F907F900E3F09F0EACF30E0EE
:102FF80040E0423009F4303048F5032F142F060D15
:10300800171D088319834F933F937F926F925F92A6
:103018004F923F922F92BFEF2B2EE0910023F09119
:10302800012309952F903F904F905F906F907F906C
:103038003F914F9118812981E12FF22F0083032FAF
:10304800142F0F5F1F4F302F412FD3CF7F926F92D6
:103058005F924F923F922F92BFEF2B2EE091002369
:10306800F09101230995BFEF2B2EE0910023F091F9
:10307800012309950E94F2092F903F904F905F908D
:103088006F907F9000E05F904F903F902F90219637
:0A309800CDBFDEBFDF91CF91089598
:1029B2009801249F8001259F100D349F100D0895CA
:0029C20015
:1029C200C9019A01AB01B80197FB092E05260ED069
:1029D20057FD04D014D00AD0001C38F4509540950D
:1029E200309521953F4F4F4F5F4F0895F6F79095E1
:1029F2008095709561957F4F8F4F9F4F0895A1E20B
:102A02001A2EAA1BBB1BFD010DC0AA1FBB1FEE1F66
:102A1200FF1FA217B307E407F50720F0A21BB30BB1
:102A2200E40BF50B661F771F881F991F1A9469F72D
:102A320060957095809590959B01AC01BD01CF0189
:022A42000895F5
:10293E00C9019A01AB01B801A1E21A2EAA1BBB1B59
:10294E00FD010DC0AA1FBB1FEE1FFF1FA217B3076D
:10295E00E407F50720F0A20BB30BE40BF50B661F93
:10296E00771F881F991F1A9469F760957095809547
:04297E009095089593
:103592002F923F924F925F926F927F928F92B1E4FD
:1035A200B09359208824B3E27B2EBAE06B2EB5E1AA
:1035B2005B2EB6E04B2EB5ED2B2EB7E03B2E5DD940
:1035C200B0EA4B2EB2E52B2EB0E23B2E3ADA68DDA2
:1035D200B1E0B093FA221091FA2203E6011720F12A
:1035E200BEE22B2E0E9428070091FA224AE00E9496
:1035F200190B005D009360200091FA224AE00E94BC
:10360200190B092F005D00936120BAE24B2EB0E046
:103612005B2EB0E62B2EB0E23B2ED7DD0091FA22D4
:103622000F5F0093FA22D7CF8F907F906F905F90B9
:083632004F903F902F90089586
:10287C0081010C5B174018010F7710701801042DA3
:10288C000F70402E002311F4B1E04B2E0FE1051513
:10289C0020F0B1E05B1608F002C0B1E05B2E07E15E
:1028AC00061508F466240BE3071508F477240BE3EC
:1028BC00081508F48824482D4695842EB9E091011A
:1028CC00220F331FBA95E1F72093F0203093F120BB
:1028DC00042D10E0B5E0000F111FBA95E1F7022BA3
:1028EC00132B0093F0201093F12005290093F02076
:1028FC001093F120062D10E0BBE09801220F331F3E
:10290C00BA95E1F72093F2203093F320072D10E0D5
:10291C00B5E0000F111FBA95E1F7022B132B0093B2
:10292C00F2201093F320042B0093F2201093F32049
:02293C000895FC
:102A4400CF93DF93CDB7DEB72E97CDBFDEBF2196F0
:102A54005F926F927F9240E070E0E42FF0E0E20D2D
:102A6400F31D0081003009F442C0E42FF0E0E20DD0
:102A7400F31D00810E3211F4542F01C0572FE42F9F
:102A8400F0E0E20DF31D00813F922F92202E0E9470
:102A9400B2052F903F90B02FB12BC1F08E01040FDF
:102AA400B0E01B1F0C871D87E42FF0E0E20DF31D3F
:102AB40000813F922F92202E0E94BD052F903F90BF
:102AC4001C852D85E12FF22F00830CC08E01242F4D
:102AD40030E0200F311FE42FF0E0E20DF31D008100
:102AE400F9010083042F0F5F402F752FB6CF8E019D
:102AF400E42FF0E0E00FF11FB0E0B083772309F496
:102B040041C0672F272F30E02D5F3F4F062F10E085
:102B140002171307ACF5262F30E02F5F3F4F8E01CD
:102B2400F901E00FF11F00810030B9F4362F272F8F
:102B3400022F10E00E5F1F4F0317B0E01B075CF07D
:102B44008E01E32FF0E0E00FF11FB0E2B083032F1A
:102B54000F5F302FEDCF132F14C0AE01262F30E0BE
:102B6400240F351F062F10E00F5F1F4FF801E40FED
:102B7400F51F0081F9010083062F0F5F602FC2CF7C
:102B8400162F01C0142F012F0150502F0A30B0F519
:102B94008E019801265F3F4FE52FF0E0E00FF11F13
:102BA4000081F9010083452F4150542F8E01980173
:102BB400275F3F4FE42FF0E0E00FF11F0081F901A0
:102BC4000083452F4150542F8E019801285F3F4FB9
:102BD400E42FF0E0E00FF11F0081F9010083252FBD
:102BE40007E0021758F08E01E22FF0E0E00FF11F2A
:102BF400B0E2B083022F0F5F202FF2CF8E01F801D5
:102C04003B96B0E0B083B0E0B093EE20B093EF20F9
:102C1400B0E0B093F420B093F5204F923F922F92FE
:102C2400B2E06B2EB3E27B2E2090BB203090BC2010
:102C34004090BD205090BE208DD12F903F904F905A
:102C440060E070E001C0BA012091EE203091EF20E5
:102C54000091D1201091D2202017310771F5B0E0F6
:102C6400B093EE20B093EF200091F4201091F52062
:102C7400A8014F5F5F4F4093F4205093F5200091DB
:102C8400BB201091BC202091BD203091BE20040FA8
:102C9400151FB0E02B1F3B1F7F936F934F923F9202
:102CA4002F92B2E06B2EB3E27B2E1801290152D190
:102CB4002F903F904F906F917F9110E000E0AB0117
:102CC400612F702F0AE00717F0F00091EE201091A9
:102CD400EF20272F30E0200F311F02E013E2F9012B
:102CE400E00FF11F20818E01E72FF0E0E00FF11FCC
:102CF4000081201721F4062F0F5F602F00C0072FDB
:102D04000F5F702FDFCF8A010F5F1F4FA80102E012
:102D140013E22091EE203091EF20F901E00FF11F32
:102D24000081702F8901005E1F4F0093EE201093E5
:102D3400EF206B3089F00091B9201091BA20401730
:102D4400510711F40EE101C0062F703019F409E1A6
:102D5400102F01C0102F01C0162F0AE0011708F030
:102D640072CF143108F0DAC04091EE205091EF2078
:102D7400405250404093EE205093EF209A01265E3B
:102D84003F4F02E013E2F901E00FF11F00810093CD
:102D9400C2209A01255E3F4F02E013E2F901E00FE1
:102DA400F11F00810093C3200E9487050091EE204B
:102DB4001091EF209801245E3F4F02E013E2F901E5
:102DC400E00FF11F00810093B4200091EE201091D8
:102DD400EF209801235E3F4F02E013E2F901E00F78
:102DE400F11F00810093B5200091EE201091EF2097
:102DF4009801225E3F4F02E013E2F901E00FF11F58
:102E040000810093B6200091EE201091EF209801EC
:102E1400215E3F4F02E013E2F901E00FF11F008150
:102E24000093B7200E9484030091EE201091EF20BC
:102E34009801225F3F4F02E013E2F901E00FF11F16
:102E440000810093F2200091EE201091EF20980170
:102E5400215F3F4F02E013E2F901E00FF11F00810F
:102E64000093F3200091EE201091EF209801205F51
:102E74003F4F02E013E2F901E00FF11F00810093DC
:102E8400F0200091EE201091EF2098012F5E3F4F2B
:102E940002E013E2F901E00FF11F00810093F12039
:102EA4000091EE201091EF2098012A5E3F4F02E03E
:102EB40013E2F901E00FF11F00810093E420009177
:102EC400EE201091EF209801295E3F4F02E013E2BB
:102ED400F901E00FF11F00810093E5200091EE203D
:102EE4001091EF209801285E3F4F02E013E2F901B0
:102EF400E00FF11F00810093DA200091EE20109181
:102F0400EF209801275E3F4F02E013E2F901E00F42
:102F1400F11F00810093DB2001E013C047FA0EF09B
:102F24000FC0242D2F778E014F923F922F92422E65
:102F340018010E94C0032F903F904F9001E001C000
:102F440000E07F906F905F902D96CDBFDEBFDF9144
:042F5400CF9108957C
:100B64000AE7021528F0B1E62B1610F001E001C0E7
:060B740000E010E008950E
:100B7A000AE7021528F0B1E62B1610F0E89425F8DA
:040B8A00022D08959B
:100B0E004091C2205091C320425050400091C120CC
:100B1E0010E0212F312F60E0762F97DC0093CD204F
:100B2E001093CE202093CF203093D0204091D3200D
:100B3E005091D4206091D5207091D620040F151FAE
:100B4E00261F371F0093CD201093CE202093CF2049
:060B5E003093D020089541
:10045800049FD001159FF001249FE00DF11D069F18
:10046800E00DF11D349FF00D259FF00D169FF00D46
:10047800079FF00D3327149FB00DE11DF31F059F53
:0C048800B00DE11DF31F8D019F010895D0
:10070800CF93DF93CDB7DEB72497CDBFDEBF219659
:100718000091C2201091C32020E0322F000F111F3A
:10072800221F331F088319832A833B834091D120DA
:100738005091D22060E0762F0E949F148B019C017B
:1007480000930225109303254091D1205091D22087
:1007580060E0762F088119812A813B810E949F14CD
:100768008D019F010093C6201093C7202396CDBF0B
:08077800DEBFDF91CF9108956F
:100780005F926F927F92B0E0B093EE20B093EF2033
:10079000B0E0B093F420B093F5204F923F922F92A7
:1007A000B8DE50DF2F903F904F9088DE4F923F92FF
:1007B0002F92B2E06B2EB3E27B2E2090BB203090C4
:1007C000BC204090BD205090BE200E94AC172F90BE
:1007D0003F904F9060E001C0622F2091EE20309159
:1007E000EF200091D1201091D2202017310769F518
:1007F000B0E0B093EE20B093EF200091F420109180
:10080000F520A8014F5F5F4F4093F4205093F520EF
:100810000091BB201091BC202091BD203091BE20C2
:10082000040F151FB0E02B1F3B1F6F934F923F9299
:100830002F92B2E06B2EB3E27B2E180129010E94A9
:10084000AC172F903F904F906F9122E033E20091D0
:10085000EE201091EF20F801E20FF31F0081053E1A
:1008600071F022E033E20091EE201091EF20F801C8
:10087000E20FF31F0081003011F0262F01C021E0AC
:100880000091EE201091EF20005E1F4F0093EE20AC
:100890001093EF20222309F49FCF213009F032C1B9
:1008A0000091EE201091EF20005210400093EE20B6
:1008B0001093EF2040E00AE00417B8F00091EE201A
:1008C0001091EF20242F30E0200F311F02E013E2BF
:1008D000200F311FE42FF0E0E20DF31D0081F9013C
:1008E0000083042F0F5F402FE6CF4CE1403298F495
:1008F0000091EE201091EF20242F30E0200F311FC7
:1009000002E013E2F901E00FF11FB0E0B083042F21
:100910000F5F402FEBCF0091EE201091EF20980158
:10092000265E3F4F02E013E2F901E00FF11F009154
:10093000C22000830091EE201091EF209801255EE7
:100940003F4F02E013E2F901E00FF11F0091C320D5
:1009500000830091EE201091EF209801255F3F4F1A
:1009600002E013E2F901E00FF11F40824DE009E1DE
:10097000041798F00091EE201091EF20242F30E022
:10098000200F311F02E013E2F901E00FF11FB0E088
:10099000B083042F0F5F402FEACF0091EE2010911B
:1009A000EF209801225F3F4F02E013E2F901E00FD0
:1009B000F11F0091F22000830091EE201091EF20B2
:1009C0009801215F3F4F02E013E2F901E00FF11FB0
:1009D0000091F32000830091EE201091EF20980108
:1009E000205F3F4F02E013E2F901E00FF11F009199
:1009F000F02000830091EE201091EF2098012F5EEF
:100A00003F4F02E013E2F901E00FF11F0091F120E6
:100A100000830091EE201091EF2098012E5E3F4F51
:100A200002E013E2F901E00FF11F0091F0200083D2
:100A30000091EE201091EF2098012D5E3F4F02E0D3
:100A400013E2F901E00FF11F0091F1200083009102
:100A5000EE201091EF2098012A5E3F4F02E013E252
:100A6000F901E00FF11F0091F22000830091EE20C8
:100A70001091EF209801295E3F4F02E013E2F90147
:100A8000E00FF11F0091F32000830091EE20109100
:100A9000EF209801285E3F4F02E013E2F901E00FDA
:100AA000F11F0091F02000830091EE201091EF20C3
:100AB0009801275E3F4F02E013E2F901E00FF11FBA
:100AC0000091F12000834091BB205091BC206091A7
:100AD000BD207091BE200091F4201091F52020E0FF
:100AE000322F040F151F261F371F4F923F922F9250
:100AF000B2E06B2EB3E27B2E18012901D2DB2F90DE
:0E0B00003F904F9004D07F906F905F900895CB
:10051200CF93DF93CDB7DEB72197CDBFDEBF219654
:100522002F923F924F925F926F927F92B0E0B88388
:10053200B0E0B0930225B0930325B4E0B093C62097
:10054200B0E0B093C720B2E06B2EB3E27B2E2090D6
:1005520004253090052540900625509007250E94DD
:10056200AC172091C6203091C7200091D120109164
:10057200D2202017310729F5B0E0B093C620B093FE
:10058200C7200091022510910325A8014F5F5F4FFC
:1005920040930225509303250091042510910525CF
:1005A2002091062530910725040F151FB0E02B1F5F
:1005B2003B1FB2E06B2EB3E27B2E180129010E9491
:1005C200AC1722E033E20091C6201091C720F80157
:1005D200E20FF31F0081003089F40091C6201091D0
:1005E200C72098012F5F3F4F02E013E2F901E00FAD
:1005F200F11F0081003011F4B1E0B8830091C620F0
:100602001091C7200E5F1F4F0093C6201093C72082
:100612000881002309F4A5CF0091C6201091C720BC
:10062200025010400093C6201093C7207F906F9015
:100632005F904F903F902F90CDBFDEBFDF91CF9163
:02064200089519
:100644002F923F924F925F926F927F9222E033E219
:100654000091C6201091C720F801E20FF31FBFEFED
:10066400B0830091C6201091C72098012F5F3F4F9F
:1006740002E013E2F901E00FF11FBFEFB0834091F4
:100684000425509105256091062570910725009158
:1006940002251091032520E0322F040F151F261F79
:1006A400371FB2E06B2EB3E27B2E18012901F7DD70
:1006B4004091EA205091EB206091EC207091ED2064
:1006C400009102251091032520E0322F040F151FFD
:1006D400261F371FB2E06B2EB3E27B2E18012901CF
:1006E400DEDD7F906F905F904F903F902F90089544
:0006F40006
:1002A2002F923F924F925F9260D700918B2010E085
:1002B200103009F4043019F4810192010DC0B9E043
:1002C20081019201000F111F221F331FBA95D1F72E
:1002D200A801B9018A019B017F926F92BFEF7B2E29
:1002E200302E412E522E632EB8E12B2E44D76F9022
:1002F2007F90002321F00E94F20901E09DC07F92CD
:100302006F92BFEF2B2EE0910023F091012309950C
:10031200BFEF2B2EE0910023F09101230995BEEF50
:100322002B2EE0910023F091012309956F907F908D
:1003320020E030E00FEF11E002171307F8F0F901A7
:10034200E60DF71D00813F932F937F926F925F928C
:100352004F923F922F92202EE0910023F0910123A1
:1003620009952F903F904F905F906F907F902F91C3
:100372003F9189010F5F1F4F9801DCCF7F926F92EF
:100382005F924F923F922F92BFEF2B2EE09100236C
:10039200F09101230995BFEF2B2EE0910023F091FC
:1003A20001230995BFEF2B2EE0910023F091012349
:1003B20009952F903F904F905F906F907F90202FE4
:1003C20030E089010F711070103009F4053081F0AE
:1003D2007F926F925F924F923F922F920E94F20908
:1003E2002F903F904F905F906F907F9002E024C0DB
:1003F2007F926F925F924F923F922F92BFEF2B2E7E
:10040200E0910023F091012309952F903F904F90A6
:100412005F906F907F900F3F09F0EACF7F926F92CB
:100422005F924F923F922F92DCD72F903F904F9046
:100432005F906F907F9000E05F904F903F902F9081
:0204420008951B
:1004BC0000910225109103254091C4205091C52034
:1004CC000E94D9142091C6203091C72036952795CB
:0E04DC00020F131F0093C2201093C320089537
:1030A2002F923F924F925F926F927F92BFEF2B2EA1
:1030B2000E943907B0E0B093C820B093C920B09302
:1030C200CA20B093CB20B0E0B093B420B093B52027
:1030D200B093B620B093B720B0E0B093CC200E945A
:1030E2005E020E9487054091BB205091BC206091F6
:1030F200BD207091BE200091F4201091F52020E0B7
:10310200322F040F151F261F371FB2E06B2EB3E2BA
:103112007B2E180129011FDF0091EE201091EF2074
:103122009801245E3F4F02E013E2F901E00FF11F24
:10313200B0E0B0830091EE201091EF209801235E61
:103142003F4F02E013E2F901E00FF11FB0E0B0835C
:103152000091EE201091EF209801225E3F4F02E095
:1031620013E2F901E00FF11FB0E0B0830091EE200D
:103172001091EF209801215E3F4F02E013E2F90126
:10318200E00FF11FB0E0B0834091BB205091BC2012
:103192006091BD207091BE200091F4201091F52025
:1031A20020E0322F040F151F261F371FB2E06B2EAF
:1031B200B3E27B2E180129010E9451017F906F908A
:0A31C2005F904F903F902F9008950A
:100E7200CF93DF93CDB7DEB72497CDBFDEBF2196E8
:100E82002F923F924F925F926F927F9240910425F0
:100E92005091052560910625709107250091022544
:100EA2001091032520E0322F040F151F261F371F34
:100EB2002F92B2E06B2EB3E27B2E180129010E9421
:100EC200AC172F9002E013E22091C6203091C72088
:100ED200F901E00FF11F00810883B0E0B983BA8302
:100EE200BB838E01A8014F5F5F4F2F5F3F4F02E030
:100EF20013E2F901E00FF11F0081FA010083009172
:100F02000225109103250093E8201093E920009117
:100F1200C6201091C7200093E6201093E72022E01C
:100F220033E20091C6201091C720F801E20FF31FAF
:100F320020820091C6201091C72098012F5F3F4F59
:100F420002E013E2F901E00FF11F20824091042533
:100F52005091052560910625709107250091022583
:100F62001091032520E0322F040F151F261F371F73
:100F7200B2E06B2EB3E27B2E1801290191D9409188
:100F8200EA205091EB206091EC207091ED200091CD
:100F920002251091032520E0322F040F151F261F72
:100FA200371FB2E06B2EB3E27B2E1801290178D9EC
:100FB200088119812A813B81303029F4203019F4CB
:100FC2001F3F09F40F3F09F4B4C0088119812A8137
:100FD2003B81000F111F221F331F088319832A83AD
:100FE2003B834091D1205091D22060E0762F0E9425
:100FF2009F148B019C0100930225109303254091BD
:10100200D1205091D22060E0762F088119812A8167
:101012003B810E949F148D019F010093C620109373
:10102200C7204091042550910525609106257091B5
:101032000725009102251091032520E0322F040F8D
:10104200151F261F371F2F92B2E06B2EB3E27B2EA5
:10105200180129010E94AC17AE0122E033E200918F
:10106200C6201091C720F801E20FF31F0081FA0198
:1010720000838E01A8014F5F5F4F0091C62010913F
:10108200C72098012F5F3F4F02E013E2F901E00F02
:10109200F11F0081FA01008322E033E20091C620B1
:1010A2001091C720F801E20FF31FB0E0B083009166
:1010B200C6201091C72098012F5F3F4F02E013E234
:1010C200F901E00FF11FB0E0B08340910425509187
:1010D2000525609106257091072500910225109142
:1010E200032520E0322F040F151F261F371FB2E001
:1010F2006B2EB3E27B2E18012901D2D84091EA204F
:101102005091EB206091EC207091ED20009102252E
:101112001091032520E0322F040F151F261F371FC1
:10112200B2E06B2EB3E27B2E18012901B9D82F90C1
:101132003FCF0091E8201091E920009302251093FF
:1011420003250091E6201091E7200093C62010931A
:10115200C7207F906F905F904F903F902F90239683
:0A116200CDBFDEBFDF91CF910895ED
:1031CC006F927F925F924F923F922F92B2E06B2E52
:1031DC00B3E27B2E2090CD203090CE204090CF209B
:1031EC005090D020B3DE2F903F904F905F9080E0B6
:1031FC0090E08415950508F09FC022E033E2009121
:10320C00C8201091C920200F311FFC01E20DF31DC5
:10321C000081F90100830091C8201091C9202091F0
:10322C00CA203091CB20A801B9014F5F5F4F6F4F7F
:10323C007F4F4093C8205093C9206093CA2070934D
:10324C00CB200091D1201091D22040175107B0E033
:10325C006B077B0709F06BC09F938F935F924F9224
:10326C003F922F92B2E06B2EB3E27B2E2090CD20BA
:10327C003090CE204090CF205090D0200E94510111
:10328C002F903F904F905F908F919F910091CD2008
:10329C001091CE202091CF203091D0200F5F1F4F66
:1032AC002F4F3F4F0093CD201093CE202093CF2053
:1032BC003093D020B0E0B093C820B093C920B09325
:1032CC00CA20B093CB200091CC20102F1F5F1093FD
:1032DC00CC200091C120101789F4B0E0B093CC2021
:1032EC009F938F935F924F923F922F920E94A006D2
:1032FC002F903F904F905F908F919F919F938F93C2
:10330C005F924F923F922F92B2E06B2EB3E27B2EE4
:10331C002090CD203090CE204090CF205090D020C7
:10332C0015DE2F903F904F905F908F919F918C0165
:10333C000F5F1F4FC8015DCF9F938F935F924F928A
:10334C003F922F92B2E06B2EB3E27B2E2090CD20D9
:10335C003090CE204090CF205090D0200E94510130
:10336C002F903F904F905F908F919F910091B42040
:10337C001091B5202091B6203091B720080F191F5D
:10338C00B0E02B1F3B1F0093B4201093B52020936B
:10339C00B6203093B7204091BB205091BC20609157
:1033AC00BD207091BE200091F4201091F52020E0FA
:1033BC00322F040F151F261F371F5F924F923F921B
:1033CC002F92B2E06B2EB3E27B2E18012901BEDDE9
:1033DC000091EE201091EF2098012E5E3F4F02E0FD
:1033EC0013E2F901E00FF11F0091F020008300912E
:1033FC00EE201091EF2098012D5E3F4F02E013E27A
:10340C00F901E00FF11F0091F12000830091EE20F3
:10341C001091EF2098012C5E3F4F02E013E2F9016E
:10342C00E00FF11FB0E0B0830091EE201091EF207F
:10343C0098012B5E3F4F02E013E2F901E00FF11F00
:10344C00B0E0B0830091EE201091EF2098012A5E3D
:10345C003F4F02E013E2F901E00FF11F0091F2205F
:10346C0000830091EE201091EF209801295E3F4FD0
:10347C0002E013E2F901E00FF11F0091F320008349
:10348C000091EE201091EF209801285E3F4F02E052
:10349C0013E2F901E00FF11F0091F020008300917D
:1034AC00EE201091EF209801275E3F4F02E013E2CF
:1034BC00F901E00FF11F0091F12000830091EE2043
:1034CC001091EF209801245E3F4F02E013E2F901C6
:1034DC00E00FF11F0091B42000830091EE201091B9
:1034EC00EF209801235E3F4F02E013E2F901E00F59
:1034FC00F11F0091B52000830091EE201091EF2078
:10350C009801225E3F4F02E013E2F901E00FF11F38
:10351C000091B62000830091EE201091EF209801CD
:10352C00215E3F4F02E013E2F901E00FF11F009121
:10353C00B72000834091BB205091BC206091BD20EE
:10354C007091BE200091F4201091F52020E0322FD4
:10355C00040F151F261F371FB2E06B2EB3E27B2E14
:10356C00180129010E9451012F903F904F905F90BC
:06357C007F906F9008959E
:100D40002F923F924F925F926F927F920091022575
:100D5000109103250093E8201093E9200091C6200C
:100D60001091C7200093E6201093E720D2DB6ADCC5
:100D7000A5DB4091042550910525609106257091D1
:100D800007250091E8201091E92020E0322F040F80
:100D9000151F261F371FB2E06B2EB3E27B2E180102
:100DA00029010E94AC1722E033E20091E620109165
:100DB000E720F801E20FF31F0091C22000830091A9
:100DC000E6201091E72098012F5F3F4F02E013E2E9
:100DD000F901E00FF11F0091C32000834091042529
:100DE0005091052560910625709107250091E82016
:100DF0001091E92020E0322F040F151F261F371F06
:100E0000B2E06B2EB3E27B2E180129014ADA409141
:100E1000EA205091EB206091EC207091ED20009140
:100E2000E8201091E92020E0322F040F151F261F23
:100E3000371FB2E06B2EB3E27B2E1801290131DAA5
:100E400066DE7F906F905F904F903F902F90089557
:000E5000A2
:10163200992779E004C0991F941708F0941B001FA2
:081642007A95C9F7009508959F
:103DFE002F923F924F925F926F927F928F92B2E488
:103E0E00B093FF221091FF220AE5011708F44EC06D
:103E1E002090FF220E9428070091FF220093592034
:103E2E008824B3E27B2EBAE06B2EB5E15B2EB6E0B2
:103E3E004B2EB5ED2B2EB7E03B2E0E943E14B0EA72
:103E4E004B2EB2E52B2EB0E23B2E0E94221522D92C
:103E5E00B1E0B093FA221091FA220CE2011700F1B0
:103E6E000091FA224AE00E94190B005D0093602037
:103E7E000091FA224AE00E94190B092F005D00936F
:103E8E006120BAE24B2EB0E05B2EB0E62B2EB0E2F4
:103E9E003B2E95D90091FA220F5F0093FA22DBCFC9
:103EAE000091FF220F5F0093FF22ACCF8F907F9087
:0C3EBE006F905F904F903F902F90089500
:1038BE002F923F924F925F92B3E4B09359204424DB
:1038CE00B2E52B2EB0E23B2EB6D8E4DBB1E0B093DE
:1038DE00FA221091FA2207E3011700F10091FA2261
:1038EE004AE00E94190B0F5B009360200091FA22B0
:1038FE004AE00E94190B092F0F5B00936120BAE278
:10390E004B2EB0E05B2EB0E62B2EB0E23B2E57DCFA
:10391E000091FA220F5F0093FA22DBCF5F904F9057
:06392E003F902F90089568
:1037A2002F923F924F925F926F927F928F92B2E4EA
:1037B200B09359204424B2E52B2EB0E23B2E41D9DE
:1037C2008824B6E17B2EB1E16B2EB7E15B2EB1E02E
:1037D2004B2EB9ED2B2EB7E03B2E4FD80E94250B76
:1037E200BBE14B2EB0E05B2EB6E32B2EB0E23B2EBC
:1037F200ECDC8F907F906F905F904F903F902F9076
:02380200089527
:10164A00CF93DF93CDB7DEB72497CDBFDEBF219608
:10165A002F923F924F925F926F927F924091042510
:10166A005091052560910625709107250091022564
:10167A001091032520E0322F040F151F261F371F54
:10168A00B2E06B2EB3E27B2E180129010E94AC173F
:10169A0002E013E22091C6203091C720F901E00F41
:1016AA00F11F00810883B0E0B983BA83BB838E013E
:1016BA00A8014F5F5F4F2F5F3F4F02E013E2F9012E
:1016CA00E00FF11F0081FA010083088119812A8144
:1016DA003B81303029F4203019F41F3F09F40F3FC1
:1016EA0009F467C0088119812A813B81000F111F03
:1016FA00221F331F088319832A833B834091D120F9
:10170A005091D22060E0762F0E949F148B019C0199
:10171A0000930225109303254091D1205091D220A5
:10172A0060E0762F088119812A813B810E949F14EB
:10173A008D019F010093C6201093C7204091042574
:10174A005091052560910625709107250091022583
:10175A001091032520E0322F040F151F261F371F73
:10176A00B2E06B2EB3E27B2E180129010E94AC175E
:10177A00AE0122E033E20091C6201091C720F801A1
:10178A00E20FF31F0081FA0100838E01A8014F5F67
:10179A005F4F0091C6201091C72098012F5F3F4FDD
:1017AA0002E013E2F901E00FF11F0081FA01008360
:1017BA008CCF0E945E02A6D90091C12010E0212F91
:1017CA00312F4091D1205091D22060E0762F0E9493
:1017DA002C02A801B9010091B4201091B5202091E2
:1017EA00B6203091B7200E949F148D019F0140912D
:1017FA00D1205091D22060E0762F0E949F148B0155
:10180A009C010093CC204091CD205091CE20609134
:10181A00CF207091D02010E0212F312F040F151FF7
:10182A00261F371F0093CD201093CE202093CF2060
:10183A003093D0204091D1205091D22060E0762F71
:10184A000091B4201091B5202091B6203091B72094
:10185A000E949F148D019F010093C8201093C920F4
:10186A002093CA203093CB207F906F905F904F9047
:10187A003F902F902396CDBFDEBFDF91CF91089581
:00188A005E
:10380400CF93DF93CDB7DEB72197CDBFDEBF21962F
:103814002F923F924F92B2E4B09359204424B2E5E0
:103824002B2EB0E23B2E0CD9BBEF2B2EB2E23B2E5B
:103834000E94450CB1E0B093F622B0E0B093F722B9
:10384400B093F822B093F9224091F6225091F722D6
:103854006091F8227091F9220091FB221091FC22D0
:103864002091FD223091FE22041715072607370701
:10387400E0F08E0118010E94A70A28800E94280700
:103884000091F6221091F7222091F8223091F9222A
:103894000F5F1F4F2F4F3F4F0093F6221093F722D5
:1038A4002093F8223093F922CFCF4F903F902F905E
:0A38B400CDBFDEBFDF91CF91089574
:10188A002F923F924F925F926F927F92B0E0B09305
:10189A00C820B093C920B093CA20B093CB2000913E
:1018AA00B4201091B5202091B6203091B720F101D3
:1018BA000193119321933193B0E0B093CC20B2E01D
:1018CA006B2EB3E27B2E2090CD203090CE2040901C
:1018DA00CF205090D0200E94AC177F906F905F90DD
:0818EA004F903F902F900895EC
:10154E002F923F924F925F926F927F9222E033E200
:10155E000091C8201091C920F801E20FF31F0081FD
:10156E00F10100830091C8201091C9202091CA205A
:10157E003091CB20A801B9014F5F5F4F6F4F7F4F66
:10158E004093C8205093C9206093CA207093CB20FB
:10159E000091D1201091D22040175107B0E06B0777
:1015AE007B07C9F50091CD201091CE202091CF2040
:1015BE003091D0200F5F1F4F2F4F3F4F0093CD2004
:1015CE001093CE202093CF203093D020B0E0B09354
:1015DE00C820B093C920B093CA20B093CB200091FD
:1015EE00CC20102F1F5F1093CC200091C12010171C
:1015FE0021F4B0E0B093CC20C3DAB2E06B2EB3E2AC
:10160E007B2E2090CD203090CE204090CF20509039
:10161E00D0200E94AC177F906F905F904F903F90BC
:04162E002F9008955C
:100B8E00CF93DF93CDB7DEB72297CDBFDEBF2196D1
:100B9E002F923F924F925F926F927F9240910425D7
:100BAE00509105256091062570910725009102252B
:100BBE001091032520E0322F040F151F261F371F1B
:100BCE00B2E06B2EB3E27B2E180129010E94AC1706
:100BDE00AE0122E033E20091C6201091C720F80149
:100BEE00E20FF31F0081FA0100838E01A8014F5F0F
:100BFE005F4F0091C6201091C72098012F5F3F4F85
:100C0E0002E013E2F901E00FF11F0081FA01008307
:100C1E00088119811F3F09F40F3F29F14091C4202B
:100C2E005091C5200881198159DC8C010093022551
:100C3E00109303254091C4205091C520088119813D
:100C4E004DDC8D010093C6201093C720000F111F9D
:100C5E000093C6201093C720088119810093C220EB
:100C6E001093C3204DDF7F906F905F904F903F9019
:0E0C7E002F902196CDBFDEBFDF91CF9108955C
:1004EA00C801BA01AA1BBB1B51E107C0AA1FBB1F47
:1004FA00A617B70710F0A61BB70B881F991F5A95A6
:08050A00A9F780959095089572
:104168002F923F924F92B6E4B09359204424B2E57F
:104178002B2EB0E23B2E0E9422150E94C1124F90B6
:064188003F902F90089506
:10258200CF93DF93CDB7DEB72497CDBFDEBF2196C1
:102592002F923F924F925F926F927F924091BB2017
:1025A2005091BC206091BD207091BE200091F4201A
:1025B2001091F52020E0322F040F151F261F371F20
:1025C200088319832A833B8322240E943907B2E0BD
:1025D2006B2EB3E27B2E288039804A805B80BBD48D
:1025E20022E033E20091EE201091EF20F801E20F99
:1025F200F31FB5EEB083B2E06B2EB3E27B2E2880E0
:1026020039804A805B800E9451017F906F905F9079
:102612004F903F902F902396CDBFDEBFDF91CF9199
:02262200089519
:103EE800CF93DF93CDB7DEB76297CDBFDEBF219604
:103EF8002F923F924F925F926F927F928F929F92F2
:103F0800B2E4B09359204424B2E52B2EB0E23B2E04
:103F18000E942215002309F4E0C0CE010596BE01D7
:103F28006C5F7F4FAE014D5F5F4F9E012E5F3F4F2D
:103F38008E014B013A01290118019F938F930E942A
:103F48007812ADB7BEB71296ADBFBEBFBCE02B2E80
:103F5800B0E23B2E0E94C1148E010A5F1F4F280158
:103F6800288039800E9453138E010A5F1F4F180161
:103F78000E94C1148E010A5F1F4F302E412E2A80E5
:103F88000E9412138E010A5F1F4F18010E94C1146C
:103F98008E010A5F1F4F28012B80B0E03B2E0E9444
:103FA80053138E010A5F1F4F18010E94C1148E011E
:103FB8000A5F1F4F28012C80B0E03B2E0E9453134C
:103FC8008E010A5F1F4F18010E94C1148E010A5FFB
:103FD8001F4F28012D80B0E03B2E0E9453138E0105
:103FE8000A5F1F4F18010E94C114CE010596BE0139
:103FF8006C5F7F4FAE014D5F5F4F9E012E5F3F4F5D
:104008008E014B013A01290118019F938F930E9459
:10401800820CADB7BEB71296ADBFBEBFB0E02B2EB7
:10402800B0E23B2E0E94C1148E010A5F1F4F280187
:10403800288039800E9453138E010A5F1F4F180190
:104048000E94C1148E010A5F1F4F302E412E2A8014
:104058000E9412138E010A5F1F4F18010E94C1149B
:104068008E010A5F1F4F28012B80B0E03B2E0E9473
:1040780053138E010A5F1F4F18010E94C1148E014D
:104088000A5F1F4F28012C80B0E03B2E0E9453137B
:104098008E010A5F1F4F18010E94C1148E010A5F2A
:1040A8001F4F28012D80B0E03B2E0E9453138E0134
:1040B8000A5F1F4F18010E94C1140E94790CAE01BB
:1040C8004A5F5F4F3A01180129010E9416128E01BA
:1040D8000A5F1F4F1801F5DE12C0B5E52B2E0E94AE
:1040E800280723EA17E503E00A95F1F71A95E1F79F
:1040F8002A95D1F70000B5E52B2E0E9428079F903E
:104108008F907F906F905F904F903F902F90619627
:0A411800CDBFDEBFDF91CF91089507
:1024F000CF93DF93CDB7DEB726962881398100913F
:10250000F2201091F320007E1770B5E01695079524
:10251000BA95E1F7F90100830091F2201091F320C0
:102520000070187FBBE016950795BA95E1F7F401A6
:1025300000830091F0201091F1200F711070F301D1
:1025400000830091F0201091F120007E1170B5E021
:1025500016950795BA95E1F7F20100830091F020F6
:102560001091F12000701E7FB9E016950795BA957D
:10257000E1F70454184FF10101931193DF91CF91CA
:022580000895BC
:1026A600CF93DF93CDB7DEB72297CDBFDEBF21969E
:1026B60010E0153050F4E12FF0E0E40DF51DB0E226
:1026C600B083012F0F5F102FF4CFE12FF0E0E40D60
:1026D600F51DB0E0B083012F0150302F032F10E01D
:1026E600040D151D088319834AE050E081010E94FC
:1026F60075028D01202F205D08811981F801208344
:102706004AE050E081010E9475028C0118011030E8
:1027160009F4003009F404C0032F0150302FDECF36
:0C2726002196CDBFDEBFDF91CF9108955A
:10262400CF93DF93CDB7DEB72297CDBFDEBF219620
:1026340010E0133050F4E12FF0E0E30DF41DB0E2AC
:10264400B083012F0F5F102FF4CFE12FF0E0E30DE3
:10265400F41DB0E0B083012F0150302F032F10E0A0
:10266400030D141D088319834AE0022D0E94190BDF
:10267400092F202F205D08811981F80120834AE069
:10268400022D0E94190B202E003009F404C0032FE0
:102694000150302FE3CF2196CDBFDEBFDF91CF9124
:0226A400089597
:10190400CF93DF93CDB7DEB7269628813981009136
:10191400E4201091E520007E1770B5E01695079538
:10192400BA95E1F7F90100830091E4201091E520D4
:101934000070187FBBE016950795BA95E1F7F4019E
:1019440000830091DA201091DB200F711070F301F5
:1019540000830091DA201091DB20007E1170B5E045
:1019640016950795BA95E1F7F20100830091DA2004
:101974001091DB2000701E7FB9E016950795BA958B
:10198400E1F70454184FF10101931193DF91CF91C2
:021994000895B4
:1018F2000091B4201091B5202091B6203091B720EC
:02190200089546
:10242C002F923F924F925F9240E050E0B101C20177
:10243C0000E010E020E030E02016310642065306A2
:10244C007CF441E050E000E010E020E030E00219C4
:10245C00130924093509B801C9018B019C0102C07B
:10246C008B019C015F934F93180129010E94460632
:10247C004F915F916BE070E000E010E006171707DA
:10248C0088F49B01260D371D8B0101501040F8017B
:10249C00E60DF71D0081F90100838B0101501040FE
:1024AC00B801EACFF301B0E2B083B42FB52BA9F099
:1024BC0020E030E0F901E60DF71D0081003229F42F
:1024CC0089010F5F1F4F9801F5CF89010150104012
:1024DC00F801E60DF71DBDE2B0835F904F903F9081
:0424EC002F90089590
:100C8C00CF93DF93CDB7DEB72297CDBFDEBF2196D2
:100C9C0020E030E0303009F42A3050F4F901E60D50
:100CAC00F71DB0E2B08389010F5F1F4F9801F2CF9F
:100CBC00F901E60DF71DB0E0B08389010150104039
:100CCC00A8018A01060D171D088319835F934F93A2
:100CDC004AE050E060E070E0810192010E949F14B4
:100CEC008D019F01202F205D08811981F80120833F
:100CFC004AE050E060E070E0810192010E949F1494
:100D0C008B019C014F915F9118012901303029F41E
:100D1C00203019F4103009F4003009F405C08A01B0
:100D2C0001501040A801CDCF2196CDBFDEBFDF9181
:040D3C00CF910895B6
:10363A002F923F924F925F926F927F928F9220E0E9
:10364A0030E0323009F4203058F406EF10E2F90184
:10365A00E00FF11F208389010F5F1F4F9801F1CFFF
:10366A00B0E28B2EBBE26B2EB0E27B2EB8E82B2E9B
:10367A00B3E13B2EB0E04B2E5B2E0E94CB0C0093A5
:10368A00FB221093FC222093FD223093FE22B02FBE
:10369A00B12BB22BB32B09F448C0B7E16B2EB0E2C1
:1036AA007B2E2090FB223090FC224090FD225090ED
:1036BA00FE220E941612B7E12B2EB0E23B2E00D456
:1036CA0040E050E0533109F4483878F55F934F935E
:1036DA00B6EF6B2EB0E27B2E2090FB223090FC22BC
:1036EA004090FD225090FE220E9451014F915F911D
:1036FA000091FB221091FC222091FD223091FE22A2
:10370A000F5F1F4F2F4F3F4F0093FB221093FC2256
:10371A002093FD223093FE22BEE22B2E0E94280720
:10372A008A010F5F1F4FA801CDCF8F907F906F90B6
:0A373A005F904F903F902F9008958C
:10199600CF93DF93CDB7DEB76A97CDBFDEBF219673
:1019A600B0E0BC8BBD8BB0E0BE8BBF8B40E04F93ED
:1019B6004091C12050E0652F752F81019201BCD75F
:1019C6008B019C0108831983810192014091D120EA
:1019D6005091D22060E0762F0E942C024F910A830C
:1019E6001B832C833D83E42FF0E0E60DF71D008179
:1019F600003009F44BC0E42FF0E0E60DF71D00813E
:101A06000E3219F44C8BB0E0BD8BE42FF0E0E60DFE
:101A1600F71D00815F924F923F922F92202E9FD802
:101A26002F903F904F905F90B02FB12BE9F08E0131
:101A3600085F1F4F040FB0E01B1F088F198FE42F9C
:101A4600F0E0E60DF71D00815F924F923F922F92D4
:101A5600202E90D82F903F904F905F90188D298D13
:101A6600E12FF22F00830EC08E01085F1F4F242F37
:101A760030E0200F311FE42FF0E0E60DF71D008166
:101A8600F9010083042F0F5F402FADCF8E01085F51
:101A96001F4FE42FF0E0E00FF11FB0E0B0830C8998
:101AA6001D89B02FB12B09F448C06C890C891D899A
:101AB60098012D5F3F4F062F10E00217130708F01D
:101AC6003AC0262F30E02F5F3F4F8E01085F1F4F31
:101AD600F901E00FF11F00810030C1F4262F0C89B7
:101AE6001D890E5F1F4F0217B0E01B0768F08E01BD
:101AF600085F1F4FE22FF0E0E00FF11FB0E2B08366
:101B0600022F0F5F202FEBCF122F16C0AE01485FBA
:101B16005F4F262F30E0240F351F062F10E00F5F92
:101B26001F4FF801E40FF51F0081F9010083062F0E
:101B36000F5F602FBBCF162F01C0142F012F01504E
:101B4600502F0A3008F03EC08E01085F1F4F9801E3
:101B5600265F3F4FE52FF0E0E00FF11F0081F9010E
:101B66000083452F4150542F8E01085F1F4F980167
:101B7600275F3F4FE42FF0E0E00FF11F0081F901EE
:101B86000083452F4150542F8E01085F1F4F980147
:101B9600285F3F4FE42FF0E0E00FF11F0081F901CD
:101BA6000083252F07E0021768F08E01085F1F4F9C
:101BB600E22FF0E0E00FF11FB0E2B083022F0F5FDB
:101BC600202FF0CF8E01085F1F4FF8013B96B0E043
:101BD600B0834091C12050E0652F752F810192019D
:101BE600ABD68D019F01B02FB12BB22BB32B31F0A9
:101BF600088119810F5F1F4F088319830881198196
:101C06000C8B1D8B8F927F926F925F924F923F92B9
:101C16002F920E9489022F903F904F905F906F9075
:101C26007F908F9000910225109103254091C4204A
:101C36005091C520BBD62091C6203091C72036953D
:101C46002795020F131F0E8B1F8B009102251091F3
:101C560003250093E8201093E9200091C6201091F7
:101C6600C7200093E6201093E7200C891D89B02F2A
:101C7600B12B09F4B1C020910225309103250091C2
:101C8600BF201091C0202017310708F0A5C0209171
:101C9600C6203091C7200091D1201091D220201764
:101CA600310798F1B0E0B093C620B093C7200091F9
:101CB600022510910325A8014F5F5F4F409302252F
:101CC60050930325009104251091052520910625A2
:101CD60030910725040F151FB0E02B1F3B1F8F9275
:101CE6007F926F925F924F923F922F92B2E06B2E4D
:101CF600B3E27B2E180129010E94AC172F903F906A
:101D06004F905F906F907F908F90AE014A5F5F4FCC
:101D160022E033E20091C6201091C720F801E20FBD
:101D2600F31F0081FA0100830091C6201091C7209D
:101D3600A8014F5F5F4F4093C6205093C7208E0186
:101D46000A5F1F4F98012F5F3F4F02E013E2FA012F
:101D5600E00FF11F0081F90100830091C620109168
:101D6600C7200F5F1F4F0093C6201093C7200E8118
:101D76001F81103009F4003039F40C891D89015097
:101D860010400C8B1D8B27C0088119810C8B1D8B75
:101D960000910225109103254091C4205091C52041
:101DA60005D62091C6203091C72036952795020F7B
:101DB600131F0E8B1F8B0091022510910325009394
:101DC600E8201093E9200091C6201091C7200093C7
:101DD600E6201093E72049CF0C891D89B02FB12B3F
:101DE60009F017C3088119810C8B1D8B0091E8201F
:101DF6001091E92000930225109303250091E62017
:101E06001091E7200093C6201093C7204091042527
:101E16005091052560910625709107250091E820CF
:101E26001091E92020E0322F040F151F261F371FBF
:101E36008F927F926F925F924F923F922F92B2E073
:101E46006B2EB3E27B2E180129010E94AC172F904E
:101E56003F904F905F906F907F908F900C891D8977
:101E6600015010400C8B1D8BB02FB12B09F4A4C070
:101E76000E891F890F5F1F4F0E8B1F8B22E033E2E7
:101E86000091C6201091C720200F311FFE017696C3
:101E96000081F90100830091C6201091C7209801A6
:101EA6002F5F3F4F2093C6203093C72002E013E2F6
:101EB600200F311F8E010A5E1F4FF80131960081F7
:101EC600F90100830091C6201091C72098012F5F69
:101ED6003F4F2093C6203093C7200091D120109108
:101EE600D2202017310708F466C04091042550918E
:101EF6000525609106257091072500910225109110
:101F0600032520E0322F040F151F261F371F8F923F
:101F16007F926F925F924F923F922F92B2E06B2E1A
:101F2600B3E27B2E180129010E9451014091EA205B
:101F36005091EB206091EC207091ED2000910225EC
:101F46001091032520E0322F040F151F261F371F7F
:101F5600B2E06B2EB3E27B2E180129010E945101DB
:101F6600B0E0B093C620B093C7200091022510912F
:101F76000325A8014F5F5F4F409302255093032529
:101F860000910425109105252091062530910725FD
:101F9600040F151FB0E02B1F3B1FB2E06B2EB3E200
:101FA6007B2E18012901D5D72F903F904F905F9037
:101FB6006F907F908F9052CF22E033E20091C6203F
:101FC6001091C720F801E20FF31FBFEFB083009115
:101FD600C6201091C72098012F5F3F4F2093C6203F
:101FE6003093C72002E013E2F901E00FF11FBFEFC3
:101FF600B083409104255091052560910625709186
:102006000725009102251091032520E0322F040FA9
:10201600151F261F371F8F927F926F925F924F92E6
:102026003F922F92B2E06B2EB3E27B2E180129016C
:102036000E9451014091EA205091EB206091EC20E2
:102046007091ED20009102251091032520E0322F9A
:10205600040F151F261F371FB2E06B2EB3E27B2E2F
:10206600180129010E9451018E01085F1F4F442467
:102076001801E5D42F903F904F905F906F907F901E
:102086008F90002339F10091E8201091E9202091EA
:10209600E6203091E7203F932F931F930F938F9263
:1020A6007F926F925F924F923F922F9267D22F90BC
:1020B6003F904F905F906F907F908F900F911F9100
:1020C6002F913F910093E8201093E9202093E6207A
:1020D6003093E720B0E0B093EE20B093EF20B0E06D
:1020E600B093F420B093F5208F927F926F925F9217
:1020F6004F923F922F92B2E06B2EB3E27B2E20904E
:10210600BB203090BC204090BD205090BE2021D7EF
:102116002F903F904F905F906F907F908F9060E0F0
:1021260001C0622F2091EE203091EF200091D12046
:102136001091D22020173107A1F5B0E0B093EE2020
:10214600B093EF200091F4201091F520A8014F5F85
:102156005F4F4093F4205093F5200091BB201091DF
:10216600BC202091BD203091BE20040F151FB0E089
:102176002B1F3B1F6F938F927F926F925F924F92AE
:102186003F922F92B2E06B2EB3E27B2E180129010B
:10219600E0D62F903F904F905F906F907F908F90FA
:1021A6006F9122E033E20091EE201091EF20F801CA
:1021B600E20FF31F0081053E71F022E033E2009149
:1021C600EE201091EF20F801E20FF31F008100309E
:1021D60011F0262F01C021E00091EE201091EF2092
:1021E600005E1F4F0093EE201093EF20222309F488
:1021F60098CF213009F0F3C00091EE201091EF2026
:10220600005210400093EE201093EF2040E00AE0C9
:102216000417D0F00091EE201091EF20242F30E02B
:10222600200F311F02E013E2200F311F8E01085FDD
:102236001F4FE42FF0E0E00FF11F0081F90100834A
:10224600042F0F5F402FE3CF0091EE201091EF2077
:102256009801255F3F4F02E013E2F901E00FF11FFD
:1022660080820091EE201091EF209801245E3F4F6E
:1022760002E013E2200F311FFE0132960081F901C0
:1022860000830091EE201091EF209801235E3F4FCE
:1022960002E013E2200F311F8E010E5F1F4FF8017F
:1022A60031960081F90100830091EE201091EF2014
:1022B6009801225E3F4F02E013E2200F311F8E018C
:1022C6000E5F1F4FF80132960081F90100830091DD
:1022D600EE201091EF209801215E3F4F02E013E2BD
:1022E600200F311F8E010E5F1F4FF80133960081BC
:1022F600F90100830091E8201091E9204091C42063
:102306005091C52053D32091E6203091E720369591
:102316002795020F131F0E8B1F8B0091EE20109135
:10232600EF209801265E3F4F02E013E2200F311F97
:10233600FE0176960081F90100830091EE2010914E
:10234600EF209801255E3F4F02E013E2200F311F78
:102356008E010A5E1F4FF80131960081F901008354
:102366004DE009E1041798F00091EE201091EF205E
:10237600242F30E0200F311F02E013E2F901E00FB5
:10238600F11FB0E0B083042F0F5F402FEACF4091DA
:10239600BB205091BC206091BD207091BE20009161
:1023A600F4201091F52020E0322F040F151F261F70
:1023B600371F8F927F926F925F924F923F922F922A
:1023C600B2E06B2EB3E27B2E180129010E94510167
:1023D6002F903F904F905F906F907F908F904E8997
:1023E6005F89425050400091C12010E0212F312FCB
:1023F60060E0762F0E942C024091D3205091D42089
:102406006091D5207091D620040F151F261F371F07
:1024160004C000E010E020E030E06996CDBFDEBFEA
:06242600DF91CF91089543
:0A35880005900D920197E1F70895F8
:10374600B8E2B093DC20B7E0B093DD20BFEFB093D2
:10375600E220BFEFB093E320BFEFB093E020BFEFCE
:10376600B093E120BFEFB093DE20BFEFB093DF2030
:10377600B0914206B460B0934206B0914106B8607B
:10378600B0934106B0E0B093A3080091A408086185
:0C3796000093A408B3E0B093A5080895C8
:023744000895E6
:023584000895A8
:023582000895AA
:023586000895A6
:10424A00A0E0B0E2E4EFF1E08EEA90E00E94C41A46
:02425A000895C5
:0C01F400206D6F6469666965643A200044
:0B02000020637265617465643A2000A1
:10020B004641543136206E6F7420666F756E6400F4
:04021B0000000000DF
:0B021F006D696B726F452E74787400DF
:10022A0020666F72206D696B726F456C656B7472B4
:0C023A006F6E696B6120323030350A00B5
:0E0246004D494B524F3030782E545854000022
:100254005858204D4D432F534420464154313620A5
:100264006C69627261727920627920416E746F6E7A
:0B02740020526965636B6572740A001C
:01027F00007E
:0A0280005465737420456E642E006F
:0C028A004D43552D53746172746564007F
:0C029600546573742053746172742E0060
:00000001FF
