:100000000C9403050C9400000C9400000C94000068
:100010000C9400000C9400000C9400000C94000060
:100020000C9400000C9400000C9400000C94000050
:100030000C9400000C9400000C9400000C94000040
:100040000C9400000C9400000C9400000C94000030
:040050000C9400000C
:100A0600BFE5BDBFB4E0BEBF0E941208CDB7DEB7DA
:100A16002297CDBFDEBF21962F923F924F925F92D3
:100A26006F927F92B0E0B5BBB9E1B9B9B0E0B0BDA5
:100A360014DD18E605EE0A95F1F71A95E1F7BCE91B
:100A46002B2EB0E03B2E67DEBDE02B2E52DCBAE04B
:100A56002B2E4FDC4424B4E03B2EB0E12B2E38DEA7
:100A6600BAE2B093E902B0E0B093EA028BDD10E09F
:100A7600103009F4003079F41F930F93B0E92B2E50
:100A8600B0E03B2E48DE0F911F91BDE02B2E31DCEE
:100A9600BAE02B2E2EDCB02FB12B59F0B1E82B2E5D
:100AA600B0E03B2E38DEBDE02B2E23DCBAE02B2E49
:100AB60020DC20E030E00FEF11E00217130760F0B2
:100AC60009EE10E0F901E00FF11FB5E4B0838901EA
:100AD6000F5F1F4F9801EFCFB9EE6B2EB0E07B2E64
:100AE600B7E32B2EB0E03B2E4B2E5B2EBADE10E08A
:100AF600103009F4003031F4B8EA2B2EB0E03B2E6A
:100B06000ADE05C0B5EC2B2EB0E03B2E04DEBDE0C0
:100B16002B2EEFDBBAE02B2EECDBBDEE2B2EB2E05C
:100B26003B2E35DE402F50E0503009F44030A9F519
:100B3600B0E0B093EB02B093EC022091EB0230915F
:100B4600EC020FE010E00217130710F12DEE32E071
:100B56000091EB021091EC02F801E20FF31F008105
:100B6600202EF0DD0091EB021091EC02103009F41A
:100B76000F3019F0BDE22B2EBCDB0091EB02109179
:100B8600EC020F5F1F4F0093EB021093EC02D5CFE0
:100B9600BDE02B2EAEDB8A0106C0B1EB2B2EB0E0FA
:100BA6003B2E8A01B8DD1F930F93BDEE2B2EB2E0CC
:100BB6003B2E7EDC0F911F91103009F4003009F0B6
:100BC60037C0B0E0B093EB02B093EC022091EB0299
:100BD6003091EC020FE010E00217130710F12DEE32
:100BE60032E00091EB021091EC02F801E20FF31FE4
:100BF6000081202EA7DD0091EB021091EC0210304F
:100C060009F40F3019F0BDE22B2E73DB0091EB02D5
:100C16001091EC020F5F1F4F0093EB021093EC0252
:100C2600D5CFBDE02B2E65DBBAE02B2E62DB05C0EF
:100C3600BBEB2B2EB0E03B2E6EDDB0E0B093DB00BD
:100C460064DB002309F4B0C129ED30E00091DB003C
:100C560010E0020F131F088319835CDB18812981BA
:100C6600E12FF22F00830091DB00102F1F5F1093FE
:100C7600DB0001E0011708F097C1B0E0B093DB009C
:100C86000091D900033521F40091DA000093DD00CC
:100C96000091D900033721F40091DA000093DC00BB
:100CA6000091D900053421F40091DA000093D800B0
:100CB6000091D900053621F40091DA000093D500A1
:100CC6000091D900023509F0DCC00091DA00023744
:100CD60009F0D7C00091DD0010E0212F312F702FD1
:100CE6004427552766270091DC0010E0212F312F7D
:100CF600312F202F00271127400F511F621F731F0E
:100D06000091D80010E0212F312F322F212F102FE4
:100D16000027400F511F621F731F0091D50010E07E
:100D2600212F312F040F151F261F371F0093D100C7
:100D36001093D2002093D3003093D400B9EE6B2EDB
:100D4600B0E07B2E18012901E7DA10E0103009F433
:100D5600003009F08BC0B0E0B093EB02B093EC0228
:100D66000091EB021091EC02123009F4003008F009
:100D760076C029EE30E00091EB021091EC02F8010A
:100D8600E20FF31F0081202EDDDCB0E22B2EB1DA5C
:100D96000091EB021091EC020F5F1F4F0F70107065
:100DA600103009F4003009F04FC0B0E22B2EA1DA62
:100DB6000091EB021091EC020F5010400093D60008
:100DC6001093D7002091D6003091D7000091EB0206
:100DD6001091EC0202171307A0F129EE30E0009102
:100DE600D6001091D700F801E20FF31F108101E23F
:100DF6000117C8F429EE30E00091D6001091D70013
:100E0600F801E20FF31F00810E3768F429EE30E097
:100E16000091D6001091D700F801E20FF31F008170
:100E2600202E67DA03C0BEE22B2E63DA0091D600CD
:100E36001091D7000F5F1F4F0093D6001093D70075
:100E4600C1CFBDE02B2E55DA0091EB021091EC02DA
:100E56000F5F1F4F0093EB021093EC0281CFBDE0B2
:100E66002B2E47DABAE02B2E44DA0BC0B0E62B2E37
:100E7600B0E03B2E50DCBDE02B2E3BDABAE02B2E49
:100E860038DA0091D900073509F086C00091DA00FA
:100E9600073709F081C00091DD0010E0212F312FC6
:100EA600702F4427552766270091DC0010E0212F7C
:100EB600312F312F202F00271127400F511F621F7E
:100EC600731F0091D80010E0212F312F322F212FD0
:100ED600102F0027400F511F621F731F0091D5006E
:100EE60010E0212F312F040F151F261F371F0093E7
:100EF600D1001093D2002093D3003093D400B0E0F9
:100F0600B093EB02B093EC020091EB021091EC026D
:100F1600123009F40030B8F429EE30E00091EB020B
:100F26001091EC02F801E20FF31F0091E800008334
:100F36000091EB021091EC020F5F1F4F0093EB0242
:100F46001093EC02E1CFB9EE6B2EB0E07B2E209031
:100F5600D1003090D2004090D3005090D40081DC74
:100F660010E0103009F4003061F0BBE62B2EB0E043
:100F76003B2ED1DBBDE02B2EBCD9BAE02B2EB9D946
:100F86000BC0B8E72B2EB0E03B2EC5DBBDE02B2E09
:100F9600B0D9BAE02B2EADD90091D900033421F493
:0C0FA6000091DA000093E8004BCEFFCF72
:10071C0010E0F1010081202F022F003079F03F9280
:10072C002F92202EE3DD2F903F90012F0F5F102F83
:0E073C00E02FF0E0E20DF31D0081EFCF0895F5
:1002F800BBB1B5FD01C0FCCFBBB1B6FF03C0BBB1FC
:08030800B064BBB92CB80895E4
:1006D600BAE2B093E902B0E0B093EA02BFEFB0939A
:1006E600E600BFEFB093E700B7B3B068B7BBB7B3E8
:1006F600BF7BB7BBB7B3B062B7BBB7B3B061B7BB6D
:1007060032FABEB1B0F9BEB9032D0370042902292D
:0607160000640DB9089516
:10058A00CF93DF93CDB7DEB72197CDBFDEBF2196DC
:10059A002F923F924F925F926F927F92B5E0B09303
:1005AA007700B0913700B160B09337000BDE20E0DE
:1005BA0030E0303009F42A3080F43F932F93BFEFB4
:1005CA002B2EE091E902F091EA0209952F913F91D1
:1005DA0089010F5F1F4F9801ECCF03DEB5E97B2E2F
:1005EA003324442455246624222401DE0883EADDC8
:1005FA000881013011F001E05EC0F3DDB7E87B2E1F
:10060A00BAEA3B2EB1E04B2EB0E05B2E6B2EB8E07F
:10061A002B2EEDDD0883BFEF2B2EE091E902F0913E
:10062A00EA020995BFEF2B2EE091E902F091EA0266
:10063A000995BFEF2B2EE091E902F091EA020995A4
:10064A00BFEF2B2EE091E902F091EA020995BADD9B
:10065A000881013041F0B1E02B2EFEDC002311F0BD
:10066A002224FADC03C0B2E02B2EF6DC00917700DC
:10067A0010E0103009F4053011F402E01CC00091BA
:10068A00770010E0103009F40430A1F0AADDBFEFC2
:10069A007B2EB0E03B2EB2E04B2EB0E05B2E6B2EF1
:1006AA00B0E12B2EA4DD08838DDD0881003011F026
:1006BA0003E001C000E07F906F905F904F903F9001
:0C06CA002F90CDBFDEBFDF91CF910895CF
:1001CE002F92B0913800B160B0933800BFEF2B2E54
:0E01DE00E091E902F091EA0209952F90089550
:0E0054002FB8BEB1B7FD01C0FCCF0FB10895AB
:0C01EC00B0913800BE7FB0933800089539
:1001F800CF93DF93CDB7DEB72197CDBFDEBF219672
:100208002F92022D005C7F926F925F924F923F92E5
:10021800202EE091E902F091EA0209953F904F9073
:100228005F906F906F925F924F923F92262CE09171
:10023800E902F091EA0209953F904F905F906F9024
:100248006F925F924F923F92252CE091E902F091D4
:10025800EA0209953F904F905F906F906F925F927E
:100268004F923F92242CE091E902F091EA0209951D
:100278003F904F905F906F90232CE091E902F091AE
:10028800EA0209957F90272CE091E902F091EA02B1
:10029800099530E040E04F933F937F926F925F92D1
:1002A8004F923F922F92BFEF2B2EE091E902F091EF
:1002B800EA0209952F903F904F905F906F907F9042
:1002C8003F914F910883132F242F1F5F2F4F312FFA
:1002D800422F0078003029F0403009F4343608F411
:1002E800DACF08812F90CDBFDEBFDF91CF9108957F
:0002F80006
:10006200CF93DF93CDB7DEB72497CDBFDEBF219606
:100072003F924F925F926F927F92B0E0B883B983C2
:1000820008811981173209F4003108F093C0022D5A
:1000920010E0103009F40030B9F4A7D02F92BFEF6E
:1000A2007B2E3324442455246624B1E02B2EA3D086
:1000B2000A838CD02F900A81003029F4B0E0B093EB
:1000C200770000E078C06FC090D02F92BFEF7B2EF8
:1000D2003324442455246624B7E32B2E8CD00A8380
:1000E20075D02F900A81013009F05CC07ED02F922A
:1000F200BFEF7B2EB0E03B2E4B2E5B2EB0E46B2E7F
:10010200B9E22B2E78D00A8361D02F900A81003079
:1001120009F047C0022D10E0103009F4023009F056
:100122003BC063D02F92BFEF7B2E3324442455244F
:100132006624BAE32B2E5FD00A83BFEF2B2EE09109
:10014200E902F091EA0209950B83BFEF2B2EE091B1
:10015200E902F091EA020995BFEF2B2EE091E90244
:10016200F091EA020995BFEF2B2EE091E902F0919E
:10017200EA0209952BD02F900A81003061F40B819D
:1001820006FF04C0B4E0B093770003C0B3E0B093BD
:10019200770000E010C005C0B1E0B093770000E046
:1001A2000AC001C007C0088119810F5F1F4F088371
:1001B200198366CF01E07F906F905F904F903F90E0
:0C01C2002396CDBFDEBFDF91CF910895E2
:100868002F923F924F925F92BDDC0091770010E08B
:10087800103009F4043019F4810192010DC0B9E077
:1008880081019201000F111F221F331FBA95D1F762
:10089800A801B9018A019B017F926F92BFEF7B2E5D
:1008A800302E412E522E632EB8E12B2EA1DC6F90F4
:1008B8007F90002319F087DC01E09CC07F926F9243
:1008C800BFEF2B2EE091E902F091EA020995BFEF04
:1008D8002B2EE091E902F091EA020995BEEF2B2E4A
:1008E800E091E902F091EA0209956F907F9020E08B
:1008F80030E00FEF11E002171307F8F0F901E60DE9
:10090800F71D00813F932F937F926F925F924F92D2
:100918003F922F92202EE091E902F091EA02099588
:100928002F903F904F905F906F907F902F913F91C5
:1009380089010F5F1F4F9801DCCF7F926F925F9202
:100948004F923F922F92BFEF2B2EE091E902F09148
:10095800EA020995BFEF2B2EE091E902F091EA0235
:100968000995BFEF2B2EE091E902F091EA02099573
:100978002F903F904F905F906F907F90202F30E0A6
:1009880089010F711070103009F4053079F07F92E9
:100998006F925F924F923F922F9215DC2F903F906B
:1009A8004F905F906F907F9002E024C07F926F928B
:1009B8005F924F923F922F92BFEF2B2EE091E90268
:1009C800F091EA0209952F903F904F905F906F90B9
:1009D8007F900F3F09F0EACF7F926F925F924F921C
:1009E8003F922F92F0DB2F903F904F905F906F9047
:0E09F8007F9000E05F904F903F902F90089509
:10079400CF93DF93CDB7DEB72297CDBFDEBF2196CF
:1007A4004F925F926F927F921FDD3F922F92BFEF25
:1007B4007B2E3324442455246624BAE02B2E1ADDE0
:1007C4002F903F90002319F000DD01E041C03F92DB
:1007D4002F92BFEF2B2EE091E902F091EA020995E6
:1007E4002F903F900E3F09F0F2CF30E03031E0F42B
:1007F400032F10E0020D131D088319833F933F92CA
:100804002F92BFEF2B2EE091E902F091EA020995B5
:100814002F903F903F9118812981E12FF22F00837F
:10082400032F0F5F302FE2CF3F922F92BFEF2B2E7B
:10083400E091E902F091EA020995BFEF2B2EE091D5
:10084400E902F091EA020995C0DC2F903F9000E0A4
:100854007F906F905F904F902196CDBFDEBFDF9168
:04086400CF91089593
:10074A002F92022D007F0695069506950695102F85
:10075A00105D212F09E3011720F4022F095F202FD2
:10076A0000C0022D0F70102F105D312F09E3011701
:10077A0028F4032F095F102F012F01C0032F222E07
:0A078A00B6DD202EB4DD2F90089597
:1004B600CF93DF93CDB7DEB72297CDBFDEBF2196B0
:1004C6004F925F926F927F928EDE3F922F92BFEF96
:1004D6007B2E3324442455246624B9E02B2E89DE52
:1004E6002F903F90002319F06FDE01E041C03F924C
:1004F6002F92BFEF2B2EE091E902F091EA020995C7
:100506002F903F900E3F09F0F2CF30E03031E0F40B
:10051600032F10E0020D131D088319833F933F92AA
:100526002F92BFEF2B2EE091E902F091EA02099596
:100536002F903F903F9118812981E12FF22F008360
:10054600032F0F5F302FE2CF3F922F92BFEF2B2E5C
:10055600E091E902F091EA020995BFEF2B2EE091B6
:10056600E902F091EA0209952FDE2F903F9000E014
:100576007F906F905F904F902196CDBFDEBFDF9149
:04058600CF91089574
:0A0310000BB0002707FC03950895C9
:04031A000CB1089585
:10031E00CF93DF93CDB7DEB72297CDBFDEBF219649
:10032E002F923F924F925F925ADF0091770010E02A
:10033E00103009F4043019F4810192010DC0B9E0B6
:10034E0081019201000F111F221F331FBA95D1F7A1
:10035E00A801B9018A019B017F926F92BFEF7B2E9C
:10036E00302E412E522E632EB1E12B2E3EDF6F909A
:10037E007F90002319F024DF01E061C07F926F921D
:10038E005F924F923F922F92BFEF2B2EE091E90298
:10039E00F091EA0209952F903F904F905F906F90E9
:1003AE007F900E3F09F0EACF30E040E0423009F492
:1003BE00303048F5032F142F060D171D08831983AF
:1003CE004F933F937F926F925F924F923F922F92F5
:1003DE00BFEF2B2EE091E902F091EA0209952F90E2
:1003EE003F904F905F906F907F903F914F9118810B
:1003FE002981E12FF22F0083032F142F0F5F1F4F40
:10040E00302F412FD3CF7F926F925F924F923F92B8
:10041E002F92BFEF2B2EE091E902F091EA0209959F
:10042E00BFEF2B2EE091E902F091EA020995C8DEAA
:10043E002F903F904F905F906F907F9000E05F9075
:10044E004F903F902F902196CDBFDEBFDF91CF9181
:02045E000895FF
:0A04AC0005900D920197E1F7089505
:10046000BCE7B093E000B1E0B093E100BDE8B09329
:10047000DE00B1E0B093DF00B8E8B093E400B1E093
:10048000B093E500BFEFB093E200BFEFB093E3009D
:10049000B1B3BE7FB1BBB1B3B260B1BB0AB1086149
:0804A0000AB9B6E8B0BD0895E9
:0204A8000895B5
:0204AA000895B3
:10102400A0E6B0E0E2EBFFE081E790E00E94560228
:0210340008951D
:0B0FB200526561642D6572726F720061
:0C0FBD0057726974652D6572726F7200C6
:010FC9000027
:090FCA0057726974652D4F6B002C
:0F0FD3004D4D4320496E69742D6572726F720027
:0C0FE2004D4D4320496E69742D4F4B00AB
:0C0FEE005049432D537461727465640017
:090FFA0057726974652D4F4B001C
:0A1003004349442D6572726F7200BC
:0A100D004353442D6572726F7200A8
:0C10170057726974652D4572726F72008B
:00000001FF
