:100000000C94F6200C9400000C9400000C9400005A
:100010000C9400000C9400000C9400000C94000060
:100020000C9400000C9400000C9400000C94000050
:100030000C9400000C9400000C9400000C94000040
:100040000C9400000C9400000C9400000C94000030
:100050000C9400000C9400000C9400000C94000020
:100060000C9400000C9400000C9400000C94000010
:100070000C9400000C9400000C9400000C94000000
:100080000C9400000C9400000C9400000C940000F0
:100090000C9400000C9400000C9400000C940000E0
:1000A0000C9400000C9400000C9400000C940000D0
:1000B0000C9400000C9400000C9400000C940000C0
:1000C0000C9400000C9400000C9400000C940000B0
:1000D0000C9400000C9400000C9400000C940000A0
:1000E0000C9400000C9400000C9400000C94000090
:1000F0000C9400000C9400000C9400000C94000080
:100100000C9400000C9400000C9400000C9400006F
:100110000C9400000C9400000C9400000C9400005F
:100120000C9400000C9400000C9400000C9400004F
:100130000C9400000C9400000C9400000C9400003F
:100140000C9400000C9400000C9400000C9400002F
:100150000C9400000C9400000C9400000C9400001F
:100160000C9400000C9400000C9400000C9400000F
:100170000C9400000C9400000C9400000C940000FF
:100180000C9400000C9400000C9400000C940000EF
:100190000C9400000C94000000000000000000001F
:1001A0000C9400000C9400000C9400000C940000CF
:1001B0000C9400000C9400000C9400000C940000BF
:1001C0000C9400000C9400000C9400000C940000AF
:1001D0000C9400000C9400000C9400000C9400009F
:1001E0000C9400000C9400000C9400000C9400008F
:0401F0000C9400006B
:1041EC00BFEFBDBFBFE3BEBFCDB7DEB72C97CDBF12
:1041FC00DEBF21962F923F924F92E7E7F4E2B6E4AE
:10420C00B193B1E4B193B4E5B193B1E3B193B6E337
:10421C00B193B0E2B193BEE6B193BFE6B193B4E70C
:10422C00B193B0E2B193B6E6B193BFE6B193B5E703
:10423C00B193BEE6B193B4E6B193B0E0B193EBE4C5
:10424C00F4E2B8E5B193B8E5B193B0E2B193BDE453
:10425C00B193BDE4B193B3E4B193BFE2B193B3E5D1
:10426C00B193B4E4B193B0E2B193B6E4B193B1E4D9
:10427C00B193B4E5B193B1E3B193B6E3B193B0E2CA
:10428C00B193BCE6B193B9E6B193B2E6B193B2E7A0
:10429C00B193B1E6B193B2E7B193B9E7B193B0E2A0
:1042AC00B193B2E6B193B9E7B193B0E2B193B1E493
:1042BC00B193BEE6B193B4E7B193BFE6B193BEE65A
:1042CC00B193B0E2B193B2E5B193B9E6B193B5E66F
:1042DC00B193B3E6B193BBE6B193B5E6B193B2E754
:1042EC00B193B4E7B193B3E2B193B0E0B193BAE058
:1042FC00B0937424E8E9F4E2BDE4B193B9E4B1936A
:10430C00BBE4B193B2E5B193BFE4B193B0E3B19325
:10431C00B0E3B193B8E7B193B4E5B193B8E5B19319
:10432C00B4E5B193B0E0B193C4DA0091A4080B7F6B
:10433C000093A408B7E6B093A608B0E0B093A70822
:10434C007BDA22E010EA03E90A95F1F71A95E1F716
:10435C002A95D1F70000FE01B1E4B193B6E5B19313
:10436C00B2E5B193BDE2B193B3E5B193B4E7B193C8
:10437C00B1E6B193B2E7B193B4E7B193B5E6B193BB
:10438C00B4E6B193B0E0B1938E01180183DA442402
:10439C00B3E03B2EB0E12B2E99DABBDA003039F5C5
:1043AC004424B4E03B2EB0E12B2E90DA57DDADDD8A
:1043BC006BDEA7DE0FDE55DE42D895D9FE01B4E5E3
:1043CC00B193B5E6B193B3E7B193B4E7B193B0E26F
:1043DC00B193B5E4B193BEE6B193B4E6B193BEE24A
:1043EC00B193B0E0B1938E01180154DA05C0B7E770
:1043FC002B2EB4E23B2E4EDA4F903F902F90FCCFF9
:00440C00B0
:1038BE00B2E0B0935000B0915100B1FFFCCFB8ED23
:0A38CE00B4BFB1E0B09340000895CC
:1038A0002F923F920E946C11BDE02B2E0E94470682
:0E38B000BAE02B2E0E9447063F902F900895FD
:1022D8009101F9010081003071F0F90100813F920C
:1022E8002F92202E0E9447062F903F9089010F5F62
:0822F8001F4F9801EECF08957D
:100C8E00B091A108B5FFFCCF2092A008B091A108A9
:100C9E00B6FF05C0B091A108B064B093A108089545
:000CAE0046
:1038D800B9E0B093B024B9E0B093B124BFEFB0938E
:1038E8002722BFEFB0932822B0EBB0934106B0E493
:1038F800B0934206B0E0B093C108032D03700429C9
:10390800022900640093C00832FAB091C008B7F9E0
:06391800B093C008089501
:10391E00CF93DF93CDB7DEB72597CDBFDEBF219610
:10392E002F923F924F925F926F927F92B0E0B88348
:10393E00B0E0B983BA83BB83BC830E94A40918810B
:10394E001F5F1883003010E009F41FEF0881023367
:10395E00B0E008F0BFEF0B2F012B09F4EECF08817A
:10396E00023318F0BFEFB8836BC20E94091010E04B
:10397E001F93B1E26B2EB0E27B2E20903A22309054
:10398E003B2240903C2250903D220E94AB101F9152
:10399E0000911F22053509F0E7C0009120220A3A56
:1039AE0009F0DFC000912120093E20E009F42FEF3D
:1039BE00009121200B3E10E009F41FEF009123200F
:1039CE000039B0E009F4BFEF0B2F0123022B0030BA
:1039DE0009F0C5C00091EB21003010E009F01FEF97
:1039EE000091EC210030B0E009F0BFEF0B2F102B4F
:1039FE000091ED210030B0E009F0BFEF0B2F102B3E
:103A0E000091EE210030B0E009F0BFEF0B2F012B3B
:103A1E0089F00091E72100933A220091E82100936A
:103A2E003B220091E92100933C220091EA21009370
:103A3E003D2293C00091FB21003010E009F01FEFF2
:103A4E000091FC210030B0E009F0BFEF0B2F102BDE
:103A5E000091FD210030B0E009F0BFEF0B2F102BCD
:103A6E000091FE210030B0E009F0BFEF0B2F012BCB
:103A7E0089F00091F72100933A220091F8210093EA
:103A8E003B220091F92100933C220091FA210093F0
:103A9E003D2263C000910B22003010E009F01FEFB1
:103AAE0000910C220030B0E009F0BFEF0B2F102B6D
:103ABE0000910D220030B0E009F0BFEF0B2F102B5C
:103ACE0000910E220030B0E009F0BFEF0B2F012B5A
:103ADE0089F00091072200933A2200910822009368
:103AEE003B220091092200933C2200910A2200936E
:103AFE003D2233C000911B22003010E009F01FEF71
:103B0E0000911C220030B0E009F0BFEF0B2F102BFC
:103B1E0000911D220030B0E009F0BFEF0B2F102BEB
:103B2E0000911E220030B0E009F0BFEF0B2F012BE9
:103B3E0089F00091172200933A22009118220093E7
:103B4E003B220091192200933C2200911A220093ED
:103B5E003D2203C0B1E0B88373C100E001C001E0B3
:103B6E0001C0012F402F01C0412FB0E0B88340307B
:103B7E0009F040C04F93B1E26B2EB0E27B2E209045
:103B8E003A2230903B2240903C2250903D220E949F
:103B9E00AB104F9100911F22053510E009F41FEF75
:103BAE00009120220A3AB0E009F4BFEF0B2F012357
:103BBE00002311F001E01FC00881003419F4B1E0B8
:103BCE00B8833EC108810F5F088300913A2210919D
:103BDE003B2220913C2230913D220F5F1F4F2F4FF1
:103BEE003F4F00933A2210933B2220933C22309376
:103BFE003D22BDCF042FB1E0B883013009F020C1C2
:103C0E0000912C200093AA2400912D200093AB2428
:103C1E0000912E200093A72400912F200093302294
:103C2E0000913020009331220091312000932922FF
:103C3E000091372000931720009138200093182010
:103C4E000091312010E0212F312F409117205091FB
:103C5E00182060E0762F0E944E1140913A2250912A
:103C6E003B2260913C2270913D22400F511F621FFA
:103C7E00731F009130221091312220E0322F040F59
:103C8E00151F261F371F009308201093092020931D
:103C9E000A2030930B200091322000933E22009197
:103CAE00332000933F2200913E2210913F22B5E037
:103CBE00A80160E0762F440F551F661F771FBA9537
:103CCE00D1F70091AA241091AB2420E0322F040FDB
:103CDE00151F261F371F01501040204030404091C5
:103CEE00AA245091AB2460E0762F0E94F70E890132
:103CFE009A01409108205091092060910A207091FC
:103D0E000B20040F151F261F371F0093042010933E
:103D1E000520209306203093072020903A223090E1
:103D2E003B2240903C2250903D2200913022109137
:103D3E003122A80160E0762F420D531D641D751DC2
:103D4E0040931320509314206093152070931620E7
:103D5E00009117201091182020E0322F040F151F0C
:103D6E00261F371F00931D2010931E2020931F2007
:103D7E00309320200091AA241091AB24169507951C
:103D8E000093AC241093AD2410913820009137206D
:103D9E00012B09F453C01091342000913520012BD2
:103DAE0039F0009134200983009135200A830CC02C
:103DBE00009141200983009142200A830091432003
:103DCE000B83009144200C8300900420109005205A
:103DDE0009811A8100191109009006201090072000
:103DEE002B813C81200931094091A72450E0652F99
:103DFE00752F0E94380F8B019C0109831A832B8328
:103E0E003C83303029F4203019F41F3009F4053F7B
:103E1E0018F4B1E0B88311C009811A812B813C815D
:103E2E00303029F4203019F41F3F09F4053F18F4FF
:103E3E00B0E0B88302C0B1E0B88302C0B1E0B8838D
:103E4E0008817F906F905F904F903F902F902496B7
:0A3E5E00CDBFDEBFDF91CF910895C4
:10134800CF93DF93CDB7DEB72197CDBFDEBF219610
:101358002F923F924F925F926F927F92B5E0B09337
:10136800B224B0914006B160B0934006B0914406F3
:10137800B160B093440620E030E03F932F93BFEF75
:101388002B2EE091B024F091B12409952F913F9133
:10139800303009F4293029F089010F5F1F4F980177
:1013A800ECCF98DEB5E97B2E3324442455246624FB
:1013B800222496DE088310DF0881013011F011E045
:1013C80058C088DEB7E87B2EBAEA3B2EB1E04B2E38
:1013D800B0E05B2E6B2EB8E02B2E82DE0883BFEFC9
:1013E8002B2EE091B024F091B1240995BFEF2B2E5C
:1013F800E091B024F091B1240995BFEF2B2EE09134
:10140800B024F091B1240995BFEF2B2EE091B024C0
:10141800F091B1240995E0DE0881013041F0B1E096
:101428002B2EA7DD003011F02224A3DD03C0B2E08B
:101438002B2E9FDD0091B224053011F412E019C063
:101448000091B2240430A1F045DEBFEF7B2EB0E05E
:101458003B2EB2E04B2EB0E05B2E6B2EB0E12B2E74
:101468003FDE0883B9DE0881003011F013E001C0C7
:1014780010E0012F7F906F905F904F903F902F90DA
:0A148800CDBFDEBFDF91CF910895C4
:101212002092C308B091C208B7FFFCCF1091C30857
:04122200012F0895FB
:101226002092C309B091C209B7FFFCCF1091C30940
:04123600012F0895E7
:10123A002092C30AB091C20AB7FFFCCF1091C30A29
:04124A00012F0895D3
:1011FE002092C30BB091C20BB7FFFCCF1091C30B63
:04120E00012F08950F
:0C10DC00B0914406BE7FB0934406089516
:1010E8002F92022D005C7F926F925F924F923F92F7
:1010F800202EE091B024F091B12409953F904F90B3
:101108005F906F906F925F924F923F92262CE09182
:10111800B024F091B12409953F904F905F906F9063
:101128006F925F924F923F92252CE091B024F091FC
:10113800B12409953F904F905F906F906F925F92A6
:101148004F923F92242CE091B024F091B12409955C
:101158003F904F905F906F90232CE091B024F091D6
:10116800B12409957F90272CE091B024F091B12407
:10117800099550E060E06F935F937F926F925F9262
:101188004F923F922F92BFEF2B2EE091B024F09117
:10119800B12409952F903F904F905F906F907F906A
:1011A8005F916F91402F252F362F2F5F3F4F522F82
:1011B800632F042F0078003010E009F41FEF30305F
:1011C80009F4243600E008F00FEF012B002309F49E
:0811D800D2CF042F2F900895DF
:1011E0002F92B0914406B160B0934406BFEF2B2E0E
:0E11F000E091B024F091B12409952F9008955C
:100F7A00CF93DF93CDB7DEB72497CDBFDEBF2196DF
:100F8A003F924F925F926F927F92B0E0B883B9839B
:100F9A00B0E02B16B9F49DD02F92BFEF7B2E3324ED
:100FAA00442455246624B1E02B2E99D00A8313D108
:100FBA002F900A81003029F4B0E0B093B22410E0F7
:100FCA007CC06DC086D02F92BFEF7B2E3324442481
:100FDA0055246624B7E32B2E82D00A83FCD02F90A7
:100FEA000A81013009F05AC074D02F92BFEF7B2ECC
:100FFA00B0E03B2E4B2E5B2EB0E46B2EB9E22B2ECB
:10100A006ED00A83E8D02F900A81003009F045C0DB
:10101A00B2E02B1609F03CC05CD02F92BFEF7B2EBA
:10102A003324442455246624BAE32B2E58D00A8349
:10103A00BFEF2B2EE091B024F091B12409950B83D8
:10104A00BFEF2B2EE091B024F091B1240995BFEFA8
:10105A002B2EE091B024F091B1240995BFEF2B2EED
:10106A00E091B024F091B1240995B5D02F900A816E
:10107A00003069F40B810074003021F0B4E0B093C1
:10108A00B22403C0B3E0B093B22410E016C005C086
:10109A00B1E0B093B22410E010C001C00DC00881C5
:1010AA001981173209F40F3039F0088119810F5F5D
:1010BA001F4F088319836CCF11E0012F7F906F9027
:1010CA005F904F903F902396CDBFDEBFDF91CF91C7
:0210DA00089577
:10201200B0E0B0930820B0930920B0930A20B093A7
:102022000B20B0E0B0931120B0931220B0E0B09337
:102032001B20B0931C20B0E0B0933622B09337221D
:10204200B0933822B0933922B0E0B0934022B093DB
:102052004122B0E0B0932122B0932222B0932322F6
:10206200B0932422B0E0B0930020B0930120B0934B
:102072000220B0930320B0E0B0931320B093142059
:10208200B0931520B0931620B0E0B0931D20B0930A
:102092001E20B0931F20B0932020B0E0B093AE2456
:1020A200B093AF24B0E0B0934222B0934322B0E0A9
:1020B200B093A824B093A924B0E0B0931920B093B0
:1020C2001A20B0E0B093AA24B093AB24B0E0B0934E
:1020D200AC24B093AD24B0E0B0933022B09331225F
:1020E200B0E0B0931720B0931820B0E0B0933E2236
:1020F200B0933F22B0E0B0930420B0930520B09398
:102102000620B0930720B0E0B093A724B0E0B093CC
:102112000C20B0E0B0932922B0E0B0933A22B09301
:102122003B22B0933C22B0933D22B0E0B0933222E6
:10213200B0933322B0E0B0930D20B0930E20B0E004
:10214200B0933422B0933522B0E0B0930F20B09315
:0421520010200895BC
:10215600CF93DF93CDB7DEB72297CDBFDEBF2196F3
:102166002F923F924F925F920E946E080091B22486
:10217600043019F4810192010DC0B9E08101920188
:10218600000F111F221F331FBA95D1F7A801B901FD
:102196008A019B017F926F92BFEF7B2E302E412EDC
:1021A600522E632EB1E12B2E0E9474086F907F9001
:1021B600003019F012D811E063C07F926F925F92DF
:1021C6004F923F922F92BFEF2B2EE091B024F091C9
:1021D600B12409952F903F904F905F906F907F901C
:1021E6000E3F11F00000E9CF30E040E0032F142F3E
:1021F600060D171D088319834F933F937F926F92A5
:102206005F924F923F922F92BFEF2B2EE091B02418
:10221600F091B12409952F903F904F905F906F9069
:102226007F903F914F9118812981E12FF22F0083F2
:10223600413009F43F3F39F0032F142F0F5F1F4F32
:10224600302F412FD3CF7F926F925F924F923F9262
:102256002F92BFEF2B2EE091B024F091B124099577
:10226600BFEF2B2EE091B024F091B12409950E9486
:10227600F0082F903F904F905F906F907F9010E006
:10228600012F5F904F903F902F902196CDBFDEBFDC
:06229600DF91CF910895D5
:10229C00049FD001159FF001249FE00DF11D069FB6
:1022AC00E00DF11D349FF00D259FF00D169FF00DE4
:1022BC00079FF00D3327149FB00DE11DF31F059FF1
:0C22CC00B00DE11DF31F8D019F0108956E
:101DEE00C9019A01AB01B80197FB092E05260ED049
:101DFE0057FD04D014D00AD0001C38F450954095ED
:101E0E00309521953F4F4F4F5F4F0895F6F79095C0
:101E1E008095709561957F4F8F4F9F4F0895A1E2EA
:101E2E001A2EAA1BBB1BFD010DC0AA1FBB1FEE1F46
:101E3E00FF1FA217B307E407F50720F0A21BB30B91
:101E4E00E40BF50B661F771F881F991F1A9469F70D
:101E5E0060957095809590959B01AC01BD01CF0169
:021E6E000895D5
:101E7000C9019A01AB01B801A1E21A2EAA1BBB1B32
:101E8000FD010DC0AA1FBB1FEE1FFF1FA217B30746
:101E9000E407F50720F0A20BB30BE40BF50B661F6C
:101EA000771F881F991F1A9469F760957095809520
:041EB000909508956C
:103E68002F923F924F925F926F927F928F92B1E41E
:103E7800B0939F248824B3E27B2EBAE06B2EB5E181
:103E88005B2EB6E04B2EB5ED2B2EB7E03B2E0E94F5
:103E98002612B0EA4B2EB8E92B2EB4E23B2E0E9434
:103EA8008D120E94620EB1E0B0934A24BEE22B2E1E
:103EB8000E94470600914A244AE00E949809005D42
:103EC80000934B2400914A244AE00E949809092F44
:103ED800005D00934C24BAE24B2EB0E05B2EBBE4AD
:103EE8002B2EB4E23B2E0E94920A00914A240336FC
:103EF80031F000914A240F5F00934A24D7CF8F9066
:0E3F08007F906F905F904F903F902F900895A4
:10244C0081010C5B174018010F7710701801042DD7
:10245C000F70402E003011F4B1E04B2E0FE105153A
:10246C0010E008F41FEFB1E05B1600E008F40FEF8A
:10247C00012B11F0B1E05B2E07E1061508F4662480
:10248C000BE3071508F477240BE3081508F48824EC
:10249C00482D4695842EB9E0222D332D220F331F63
:1024AC00BA95E1F72093322230933322042D10E0B9
:1024BC00B5E0000F111FBA95E1F7022B132B009317
:1024CC0032221093332205290093322210933322A7
:1024DC00062D10E0BBE09801220F331FBA95E1F7EF
:1024EC002093342230933522072D10E0B5E0000FF5
:1024FC00111FBA95E1F7022B132B00933422109382
:0E250C003522042B00933422109335220895BB
:10251A00CF93DF93CDB7DEB72F97CDBFDEBF21961E
:10252A005F926F927F9240E060E0E42FF0E0E20D6C
:10253A00F31D0081003009F441C0E42FF0E0E20D00
:10254A00F31D00810E3211F4542F01C0562FE42FCF
:10255A00F0E0E20DF31D00813F922F92202E0E949F
:10256A005C032F903F900023C1F08E01040FB0E06E
:10257A001B1F0D871E87E42FF0E0E20DF31D00817B
:10258A003F922F92202E0E946A032F903F901D8522
:10259A002E85E12FF22F00830CC08E01242F30E00C
:1025AA00200F311FE42FF0E0E20DF31D0081F90145
:1025BA000083042F0F5F402F652FB7CF8E01E42FC2
:1025CA00F0E0E00FF11FB0E0B083603009F440C0E2
:1025DA00762F562F5E5F5717A0F1272F2F5F8E0198
:1025EA00E22FF0E0E00FF11F00810030A1F4072F85
:1025FA00362F202F032F0E5F021758F08E01E22F7D
:10260A00F0E0E00FF11FB0E2B083022F0F5F202F3E
:10261A00F1CF132F19C03C2F4D2F172F20E0130F86
:10262A00241F072F0F5FE02FF0E0E30FF41F008154
:10263A00E12FF22F0083751731F0072F0F5F702FEC
:10264A00C8CF162F01C0162F012F0D5F102F01C002
:10265A00142F012F0150402F0A3038F59E01E42F24
:10266A00F0E0E20FF31F00810A87142F1150E12FC7
:10267A00F0E0E20FF31F00810987012F0150102FAC
:10268A00E02FF0E0E20FF31F00810887212F07E017
:10269A00021758F08E01E22FF0E0E00FF11FB0E2CE
:1026AA00B083022F0F5F202FF2CFB0E0BB87B0E0DC
:1026BA00B0931B20B0931C20B0E0B0931120B093CC
:1026CA0012204F923F922F92B1E26B2EB0E27B2EF4
:1026DA00209008203090092040900A2050900B202A
:1026EA0035DD2F903F904F9060E070E000E0102FB2
:1026FA000AE0011708F489C020911B2030911C20A0
:10270A000091AA241091AB242017310771F5B0E08B
:10271A00B0931B20B0931C2000911120109112201D
:10272A00A8014F5F5F4F40931120509312200091F0
:10273A0008201091092020910A2030910B20040FC3
:10274A00151FB0E02B1F3B1F7F936F934F923F9251
:10275A002F92B1E26B2EB0E27B2E18012901F6DC32
:10276A002F903F904F906F917F9190E080E0009181
:10277A001B2010911C20282F30E0200F311F01E26E
:10278A0010E2A901400F511F8E01E82FF0E0E00F7F
:10279A00F11F1081FA010081011721F4092F0F5F3F
:1027AA00902F00C08A3021F0082F0F5F802FDFCFD3
:1027BA009B01692F89010F5F1F4FA80101E210E2F7
:1027CA0020911B2030911C20F901E00FF11F00819C
:1027DA00702F8901005E1F4F00931B2010931C204D
:1027EA006B3081F000913E2210913F224017510731
:1027FA0011F40EE101C0062F703011F409E100C096
:10280A00102F01C0162FBA0173CF143108F0DAC0A5
:10281A0040911B2050911C204052504040931B2055
:10282A0050931C209A01265E3F4F01E210E2F90103
:10283A00E00FF11F0081009340229A01255E3F4F6D
:10284A0001E210E2F901E00FF11F00810093412239
:10285A000E94F20200911B2010911C209801245E14
:10286A003F4F01E210E2F901E00FF11F00810093EE
:10287A00002000911B2010911C209801235E3F4FDD
:10288A0001E210E2F901E00FF11F0081009301203B
:10289A0000911B2010911C209801225E3F4F01E2FB
:1028AA0010E2F901E00FF11F00810093022000916C
:1028BA001B2010911C209801215E3F4F01E210E27B
:1028CA00F901E00FF11F0081009303200E94200309
:1028DA0000911B2010911C209801225F3F4F01E2BA
:1028EA0010E2F901E00FF11F0081009334220091F8
:1028FA001B2010911C209801215F3F4F01E210E23A
:10290A00F901E00FF11F00810093352200911B208D
:10291A0010911C209801205F3F4F01E210E2F9015B
:10292A00E00FF11F00810093322200911B201091C9
:10293A001C2098012F5E3F4F01E210E2F901E00FDF
:10294A00F11F00810093332200911B2010911C205B
:10295A0098012A5E3F4F01E210E2F901E00FF11FF0
:10296A00008100930F2000911B2010911C209801D8
:10297A00295E3F4F01E210E2F901E00FF11F0081E9
:10298A000093102000911B2010911C209801285EB2
:10299A003F4F01E210E2F901E00FF11F00810093BD
:1029AA000D2000911B2010911C209801275E3F4F9B
:1029BA0001E210E2F901E00FF11F008100930E20FD
:1029CA0011E014C0042D0078003079F0042D0F773F
:1029DA004F923F922F92402E8E0118010E947C0343
:1029EA002F903F904F9011E001C010E0012F7F908F
:1029FA006F905F902E96CDBFDEBFDF91CF91089585
:002A0A00CC
:1006B8000AE7021510E008F01FEFB1E62B1600E07C
:0C06C80008F00FEF0123102F012F089500
:1006D4000AE7021510E008F01FEFB1E62B1600E060
:1006E40008F00FEF012319F0022D0F7D202E122D9B
:0406F400012F089535
:1005E400409140225091412260E0762F4250504089
:1005F4006040704040932122509322226093232232
:10060400709324220091A72410E0212F312F0E94FF
:100614004E11409104205091052060910620709164
:100624000720040F151F261F371F00932122109344
:0C063400222220932322309324220895D8
:10064000CF93DF93CDB7DEB72497CDBFDEBF219622
:10065000009140221091412220E0322F000F111F03
:10066000221F331F088319832A833B834091AA24C6
:100670005091AB2460E0762F0E94380F8B019C01D3
:100680000093AE241093AF244091AA245091AB2440
:1006900060E0762F088119812A813B810E94380F02
:1006A0008D019F010093A8241093A9242396CDBF08
:0806B000DEBFDF91CF91089538
:1006F8005F926F927F92B0E0B0931B20B0931C2062
:10070800B0E0B0931120B09312204F923F922F92F5
:1007180042DEDEDE2F903F904F9046DF4F923F92B1
:100728002F92B1E26B2EB0E27B2E20900820309001
:10073800092040900A2050900B200E94AB102F9067
:100748003F904F9060E0603009F062C020911B201C
:1007580030911C200091AA241091AB242017310756
:1007680069F5B0E0B0931B20B0931C2000911120D4
:1007780010911220A8014F5F5F4F409311205093B2
:100788001220009108201091092020910A20309110
:100798000B20040F151FB0E02B1F3B1F6F934F92C8
:1007A8003F922F92B1E26B2EB0E27B2E1801290105
:1007B8000E94AB102F903F904F906F9101E210E292
:1007C80030911B2040911C20E32FF42FE00FF11FE4
:1007D8000081053E20E009F42FEF01E210E2E32F4B
:1007E800F42FE00FF11F00810030B0E009F4BFEFF3
:1007F8000B2F022B11F061E000C000911B2010911B
:100808001C20005E1F4F00931B2010931C209BCFC1
:10081800613009F038C100911B2010911C20005252
:10082800104000931B2010931C2040E050E00091E2
:100838001B2010911C209A01200F311F01E210E2A9
:10084800200F311FFA01E20DF31D0081F901008329
:10085800503009F44A3029F08A010F5F1F4FA80170
:10086800E6CF4CE150E000911B2010911C209A012A
:10087800200F311F01E210E2F901E00FF11FB0E093
:10088800B083503009F44F3129F08A010F5F1F4FB0
:10089800A801E9CF00911B2010911C209801265E29
:1008A8003F4F01E210E2F901E00FF11F00914022F1
:1008B800008300911B2010911C209801255E3F4F5A
:1008C80001E210E2F901E00FF11F009141220083DB
:1008D80000911B2010911C209801255F3F4F01E2D9
:1008E80010E2F901E00FF11F40824DE050E0009165
:1008F8001B2010911C209A01200F311F01E210E2E9
:10090800F901E00FF11FB0E0B083503009F449312C
:1009180029F08A010F5F1F4FA801E9CF00911B2022
:1009280010911C209801225F3F4F01E210E2F9016B
:10093800E00FF11F00913422008300911B201091D9
:100948001C209801215F3F4F01E210E2F901E00FFE
:10095800F11F00913522008300911B2010911C206B
:100968009801205F3F4F01E210E2F901E00FF11F0B
:1009780000913222008300911B2010911C209801C5
:100988002F5E3F4F01E210E2F901E00FF11F0091E5
:100998003322008300911B2010911C2098012E5EA9
:1009A8003F4F01E210E2F901E00FF11F00913222FE
:1009B800008300911B2010911C2098012D5E3F4F51
:1009C80001E210E2F901E00FF11F009133220083E8
:1009D80000911B2010911C2098012A5E3F4F01E2D4
:1009E80010E2F901E00FF11F009134220083009119
:1009F8001B2010911C209801295E3F4F01E210E254
:100A0800F901E00FF11F00913522008300911B20AE
:100A180010911C209801285E3F4F01E210E2F90175
:100A2800E00FF11F00913222008300911B201091EA
:100A38001C209801275E3F4F01E210E2F901E00F08
:100A4800F11F009133220083409108205091092022
:100A580060910A2070910B200091112010911220B2
:100A680020E0322F040F151F261F371F4F923F9289
:100A78002F92B1E26B2EB0E27B2E18012901B6DB72
:100A88002F903F904F90AADD7F906F905F900895D0
:000A98005E
:10039E00CF93DF93CDB7DEB72197CDBFDEBF2196CA
:1003AE002F923F924F925F926F927F92B0E0B883FE
:1003BE00B0E0B093AE24B093AF24B4E0B093A824D1
:1003CE00B0E0B093A924B1E26B2EB0E27B2E209068
:1003DE0013203090142040901520509016200E942B
:1003EE00AB100881003009F05BC02091A824309139
:1003FE00A9240091AA241091AB242017310729F5C6
:10040E00B0E0B093A824B093A9240091AE2410912B
:10041E00AF24A8014F5F5F4F4093AE245093AF249B
:10042E000091132010911420209115203091162048
:10043E00040F151FB0E02B1F3B1FB1E26B2EB0E275
:10044E007B2E180129010E94AB1021E230E20091AF
:10045E00A8241091A924F801E20FF31F40819801FE
:10046E002F5F3F4F01E210E2F901E00FF11F008113
:10047E00403010E009F41FEF0030B0E009F4BFEF98
:10048E000B2F012311F0B1E0B8830091A824109135
:10049E00A9240E5F1F4F0093A8241093A924A1CF67
:1004AE000091A8241091A924025010400093A82472
:1004BE001093A9247F906F905F904F903F902F9054
:0A04CE00CDBFDEBFDF91CF9108958E
:1004D8002F923F924F925F926F927F9221E230E289
:1004E8000091A8241091A924F801E20FF31FBFEF8F
:1004F800B0830091A8241091A92498012F5F3F4F41
:1005080001E210E2F901E00FF11FBFEFB083409163
:10051800132050911420609115207091162000919D
:10052800AE241091AF2420E0322F040F151F261F90
:10053800371FB1E26B2EB0E27B2E1801290156DE7F
:1005480040911D2050911E2060911F207091202005
:100558000091AE241091AF2420E0322F040F151F14
:10056800261F371FB1E26B2EB0E27B2E180129013E
:100578003DDE7F906F905F904F903F902F90089551
:0005880073
:1001F4002F923F924F925F926FD70091B2240430B6
:1002040019F4810192010DC0B9E081019201000F3E
:10021400111F221F331FBA95D1F7A801B9018A0112
:100224009B017F926F92BFEF7B2E302E412E522E78
:10023400632EB8E12B2E56D76F907F90003019F0C3
:10024400CDD711E09CC07F926F92BFEF2B2EE0912F
:10025400B024F091B1240995BFEF2B2EE091B02486
:10026400F091B1240995BEEF2B2EE091B024F091CA
:10027400B12409956F907F9020E030E0F901E60DFC
:10028400F71D00813F932F937F926F925F924F925D
:100294003F922F92202EE091B024F091B124099541
:1002A4002F903F904F905F906F907F902F913F9150
:1002B400313009F42F3F29F089010F5F1F4F980156
:1002C400DDCF7F926F925F924F923F922F92BFEF5A
:1002D4002B2EE091B024F091B1240995BFEF2B2E81
:1002E400E091B024F091B1240995BFEF2B2EE09159
:1002F400B024F091B12409952F903F904F905F90D6
:100304006F907F90202F30E089010F7110701030B2
:1003140009F4053079F07F926F925F924F923F9289
:100324002F925CD72F903F904F905F906F907F906B
:1003340012E025C07F926F925F924F923F922F926C
:10034400BFEF2B2EE091B024F091B12409952F90AA
:100354003F904F905F906F907F900F3F11F000009F
:10036400E9CF7F926F925F924F923F922F9236D74E
:100374002F903F904F905F906F907F9010E0012FEF
:0A0384005F904F903F902F90089576
:1005B0000091AE241091AF244091AC245091AD2411
:1005C000E6DE00934022109341222091A82430912E
:1005D000A92436952795020F131F009340221093EC
:0405E0004122089517
:10038E009801249F8001259F100D349F100D089514
:00039E005F
:101CC4002F923F924F925F926F927F92BFEF2B2E93
:101CD4000E945706B0E0B0933622B0933722B093F7
:101CE4003822B0933922B0E0B0930020B0930120A1
:101CF400B0930220B0930320B0E0B0930C200E9474
:101D0400D8020E94F202409108205091092060916B
:101D14000A2070910B20009111201091122020E0D4
:101D2400322F040F151F261F371FB1E26B2EB0E2AE
:101D34007B2E180129010DD200911B2010911C202B
:101D44009801245E3F4F01E210E2F901E00FF11F18
:101D5400B0E0B08300911B2010911C209801235EF9
:101D64003F4F01E210E2F901E00FF11FB0E0B08350
:101D740000911B2010911C209801225E3F4F01E22C
:101D840010E2F901E00FF11FB0E0B08300911B20D5
:101D940010911C209801215E3F4F01E210E2F901ED
:101DA400E00FF11FB0E0B08340910820509109206A
:101DB40060910A2070910B20009111201091122043
:101DC40020E0322F040F151F261F371FB1E26B2EA0
:101DD400B0E27B2E180129010E94FA007F906F90D7
:0A1DE4005F904F903F902F900895FC
:100CAE00CF93DF93CDB7DEB72497CDBFDEBF2196AE
:100CBE002F923F924F925F926F927F9240911320AC
:100CCE005091142060911520709116200091AE2441
:100CDE001091AF2420E0322F040F151F261F371F4F
:100CEE002F92B1E26B2EB0E27B2E180129010E94E9
:100CFE00AB102F9001E210E24091A8245091A9244C
:100D0E00FA01E00FF11F00810883B0E0B983BA83C6
:100D1E00BB839A012F5F3F4F01E210E2F901E00F12
:100D2E00F11F008109830091AE241091AF2400932E
:100D3E004222109343224093192050931A2001E22D
:100D4E0010E2FA01E00FF11F20820091A824109109
:100D5E00A92498012F5F3F4F01E210E2F901E00F45
:100D6E00F11F208240911320509114206091152084
:100D7E00709116200091AE241091AF2420E0322FF6
:100D8E00040F151F261F371FB1E26B2EB0E27B2E0C
:100D9E001801290128DA40911D2050911E206091E2
:100DAE001F20709120200091AE241091AF2420E0DE
:100DBE00322F040F151F261F371FB1E26B2EB0E224
:100DCE007B2E180129010FDA088119812A813B81B6
:100DDE00303029F4203019F41F3F09F40F3F09F485
:100DEE00A9C0088119812A813B81000F111F221F82
:100DFE00331F088319832A833B834091AA24509181
:100E0E00AB2460E0762F0E94380F8B019C0100937B
:100E1E00AE241093AF244091AA245091AB2460E0ED
:100E2E00762F088119812A813B810E94380F8D010E
:100E3E009F010093A8241093A92440911320509150
:100E4E00142060911520709116200091AE241091FF
:100E5E00AF2420E0322F040F151F261F371F2F92AD
:100E6E00B1E26B2EB0E27B2E180129010E94AB106D
:100E7E0001E210E24091A8245091A924FA01E00F5A
:100E8E00F11F00810883B0E0B983BA83BB839A0156
:100E9E002F5F3F4F01E210E2F901E00FF11F0081D9
:100EAE00098301E210E2FA01E00FF11FB0E0B08316
:100EBE000091A8241091A92498012F5F3F4F01E2C1
:100ECE0010E2F901E00FF11FB0E0B0834091132062
:100EDE005091142060911520709116200091AE242F
:100EEE001091AF2420E0322F040F151F261F371F3D
:100EFE00B1E26B2EB0E27B2E1801290174D940911C
:100F0E001D2050911E2060911F2070912020009175
:100F1E00AE241091AF2420E0322F040F151F261F90
:100F2E00371FB1E26B2EB0E27B2E180129015BD97F
:100F3E002F904ACF00914222109143220093AE246B
:100F4E001093AF240091192010911A200093A82419
:100F5E001093A9247F906F905F904F903F902F90A9
:0C0F6E002396CDBFDEBFDF91CF91089528
:10152400CF93DF93CDB7DEB72297CDBFDEBF219631
:101534006F927F925F924F923F922F92B1E26B2E05
:10154400B0E27B2E20902122309022224090232250
:1015540050902422FED52F903F904F905F9080E0D2
:1015640090E082010150104008831983081719077D
:1015740008F4A3C021E230E2009136221091372210
:10158400200F311FFC01E20DF31D0081F9010083DE
:10159400009136221091372220913822309139223D
:1015A400A801B9014F5F5F4F6F4F7F4F40933622C1
:1015B4005093372260933822709339220091AA24E1
:1015C4001091AB2440175107B0E06B077B0709F07B
:1015D4006AC09F938F935F924F923F922F92B1E292
:1015E4006B2EB0E27B2E209021223090222240905C
:1015F4002322509024220E94FA002F903F904F9073
:101604005F908F919F91009121221091222220912D
:101614002322309124220F5F1F4F2F4F3F4F0093FF
:101624002122109322222093232230932422B0E0FB
:10163400B0933622B0933722B0933822B093392234
:1016440000910C20102F1F5F10930C200091A724F1
:10165400101781F4B0E0B0930C209F938F935F92A6
:101664004F923F922F9216DA2F903F904F905F90B7
:101674008F919F919F938F935F924F923F922F925E
:10168400B1E26B2EB0E27B2E2090212230902222F8
:1016940040902322509024225CD52F903F904F906D
:1016A4005F908F919F91088119818017910729F08C
:1016B4008C010F5F1F4FC80154CF5F924F923F922E
:1016C4002F92B1E26B2EB0E27B2E2090212230903B
:1016D400222240902322509024220E94FA002F902C
:1016E4003F904F905F900091002010910120209135
:1016F400022030910320040D151DB0E02B1F3B1F69
:1017040000930020109301202093022030930320A3
:10171400409108205091092060910A2070910B207B
:10172400009111201091122020E0322F040F151F78
:10173400261F371F5F924F923F922F92B1E26B2E7A
:10174400B0E27B2E1801290104D500911B201091D1
:101754001C2098012E5E3F4F01E210E2F901E00FD8
:10176400F11F00913222008300911B2010911C2054
:1017740098012D5E3F4F01E210E2F901E00FF11FE5
:1017840000913322008300911B2010911C209801AA
:101794002C5E3F4F01E210E2F901E00FF11FB0E0CF
:1017A400B08300911B2010911C2098012B5E3F4FA9
:1017B40001E210E2F901E00FF11FB0E0B083009103
:1017C4001B2010911C2098012A5E3F4F01E210E279
:1017D400F901E00FF11F00913422008300911B20D6
:1017E40010911C209801295E3F4F01E210E2F9019B
:1017F400E00FF11F00913522008300911B2010910E
:101804001C209801285E3F4F01E210E2F901E00F2D
:10181400F11F00913222008300911B2010911C20A3
:101824009801275E3F4F01E210E2F901E00FF11F3A
:1018340000913322008300911B2010911C209801F9
:10184400245E3F4F01E210E2F901E00FF11F009125
:101854000020008300911B2010911C209801235E1E
:101864003F4F01E210E2F901E00FF11F0091012066
:10187400008300911B2010911C209801225E3F4F91
:1018840001E210E2F901E00FF11F00910220008350
:1018940000911B2010911C209801215E3F4F01E212
:1018A40010E2F901E00FF11F009103200083409141
:1018B40008205091092060910A2070910B2000911A
:1018C40011201091122020E0322F040F151F261F23
:1018D400371FB1E26B2EB0E27B2E180129010E9462
:1018E400FA002F903F904F905F907F906F902196D9
:0A18F400CDBFDEBFDF91CF91089554
:100A98002F923F924F925F926F927F920091AE2475
:100AA8001091AF2400934222109343220091A8246E
:100AB8001091A9240093192010931A206CDC08DDEA
:100AC80073DD40911320509114206091152070918E
:100AD8001620009142221091432220E0322F040F69
:100AE800151F261F371FB1E26B2EB0E27B2E1801AF
:100AF80029010E94AB1021E230E2009119201091E7
:100B08001A20F801E20FF31F0091402200830091A0
:100B1800192010911A2098012F5F3F4F01E210E22F
:100B2800F901E00FF11F0091412200834091132049
:100B38005091142060911520709116200091422246
:100B48001091432220E0322F040F151F261F371F54
:100B5800B1E26B2EB0E27B2E1801290147DB4091F0
:100B68001D2050911E2060911F207091202000911F
:100B780042221091432220E0322F040F151F261F16
:100B8800371FB1E26B2EB0E27B2E180129012EDB54
:100B980025DD7F906F905F904F903F902F90089544
:000BA8004D
:10133000992779E004C0991F941708F0941B001FA7
:081340007A95C9F700950895A4
:103F16002F923F924F925F926F927F928F92B2E46E
:103F2600B0934822209048220E94470600914822DA
:103F360000939F248824B3E27B2EBAE06B2EB5E172
:103F46005B2EB6E04B2EB5ED2B2EB7E03B2E0E9436
:103F56002612B0EA4B2EB8E92B2EB4E23B2E0E9475
:103F66008D120E94620EB1E0B0934A2400914A2459
:103F76004AE00E949809005D00934B2400914A2470
:103F86004AE00E949809092F005D00934C24BAE28A
:103F96004B2EB0E05B2EBBE42B2EB4E23B2E0E94F0
:103FA600920A00914A240C3231F000914A240F5FA4
:103FB60000934A24DBCF009148220A3531F0009164
:103FC60048220F5F00934822ADCF8F907F906F906D
:0A3FD6005F904F903F902F900895E8
:104094002F923F924F925F92B3E4B0939F244424B3
:1040A400B8E92B2EB4E23B2E0E948D120E94620EC0
:1040B400B1E0B0934A2400914A244AE00E9498094E
:1040C400005D00934B2400914A244AE00E94980921
:1040D400092F005D00934C24BAE24B2EB0E05B2E16
:1040E400BBE42B2EB4E23B2E0E94920A00914A2498
:1040F400073331F000914A240F5F00934A24DBCF49
:0A4104005F904F903F902F900895B8
:10410E002F923F924F925F926F927F928F92B2E474
:10411E00B0939F244424B8E92B2EB4E23B2E0E9488
:10412E008D128824B6E17B2EB1E16B2EB7E15B2EAA
:10413E00B1E04B2EB9ED2B2EB7E03B2E0E9426128E
:10414E000E94560DEBE4F4E2B0E2B193B6E6B19301
:10415E00BFE6B193B2E7B193B0E2B193BDE6B193CE
:10416E00B9E6B193BBE6B193B2E7B193BFE6B193B3
:10417E00B5E4B193BCE6B193B5E6B193BBE6B193AA
:10418E00B4E7B193B2E7B193BFE6B193BEE6B19394
:10419E00B9E6B193BBE6B193B1E6B193B0E2B19398
:1041AE00B2E3B193B0E3B193B0E3B193B9E3B1939A
:1041BE00B0E0B193BAE0B0936524BBE14B2EB0E012
:1041CE005B2EBBE42B2EB4E23B2E0E94920A8F9004
:0E41DE007F906F905F904F903F902F900895CC
:101AAC00CF93DF93CDB7DEB72497CDBFDEBF2196A2
:101ABC002F923F924F925F926F927F9240911320A0
:101ACC005091142060911520709116200091AE2435
:101ADC001091AF2420E0322F040F151F261F371F43
:101AEC00B1E26B2EB0E27B2E180129012ED301E25C
:101AFC0010E22091A8243091A924F901E00FF11FE4
:101B0C0000810883B0E0B983BA83BB832F5F3F4F5A
:101B1C0001E210E2F901E00FF11F00810983088155
:101B2C0019812A813B81303029F4203019F41F3F70
:101B3C0009F40F3F09F45CC0088119812A813B81AB
:101B4C00000F111F221F331F088319832A833B8325
:101B5C004091AA245091AB2460E0762F83D18B0165
:101B6C009C010093AE241093AF244091AA24509171
:101B7C00AB2460E0762F088119812A813B8172D1D8
:101B8C008D019F010093A8241093A9244091132048
:101B9C005091142060911520709116200091AE2464
:101BAC001091AF2420E0322F040F151F261F371F72
:101BBC00B1E26B2EB0E27B2E18012901C6D201E2F4
:101BCC0010E22091A8243091A924F901E00FF11F13
:101BDC0000810883B0E0B983BA83BB832F5F3F4F8A
:101BEC0001E210E2F901E00FF11F0081098397CFA8
:101BFC000E94D8020E94F2020091A72410E0212F2B
:101C0C00312F4091AA245091AB2460E0762F40D321
:101C1C00A801B9010091002010910120209102200F
:101C2C0030910320DED08B019C014091AA2450916D
:101C3C00AB2460E0762FD5D089019A0100930C205B
:101C4C0040912122509122226091232270912422D2
:101C5C0010E0212F312F040F151F261F371F009363
:101C6C00212210932222209323223093242240916C
:101C7C00AA245091AB2460E0762F009100201091A3
:101C8C0001202091022030910320ECD08D019F0186
:101C9C000093362210933722209338223093392226
:101CAC007F906F905F904F903F902F902396CDBF79
:081CBC00DEBFDF91CF91089516
:103FE0002F923F924F92B2E4B0939F244424B8E9B9
:103FF0002B2EB4E23B2E0E948D12B4E42B2EB2E2A3
:104000003B2E0E947F0C40914422509145226091AA
:1040100046227091472200E010E020E030E00417D3
:10402000150726073707FCF4B9E42B2EB4E23B2E24
:104030000E942709209049240E94470600914422AB
:104040001091452220914622309147220150104084
:104050002040304000934422109345222093462272
:0E40600030934722D0CF4F903F902F9008957D
:1018FE002F923F924F925F926F927F92B0E0B09391
:10190E003622B0933722B0933822B0933922009109
:10191E000020109101202091022030910320F1012E
:10192E000193119321933193B0E0B0930C20B1E267
:10193E006B2EB0E27B2E20902122309022224090FE
:10194E0023225090242200D47F906F905F904F906E
:06195E003F902F90089558
:10124E002F923F924F925F926F927F9221E230E205
:10125E000091362210913722F801E20FF31F008120
:10126E00F10100830091362210913722209138220D
:10127E0030913922A801B9014F5F5F4F6F4F7F4FF9
:10128E00409336225093372260933822709339223E
:10129E000091AA241091AB2440175107B0E06B07C0
:1012AE007B07C1F5B0E0B0933622B0933722B093EE
:1012BE003822B093392200912122109122222091BE
:1012CE002322309124220F5F1F4F2F4F3F4F009349
:1012DE002122109322222093232230932422009144
:1012EE000C20102F1F5F10930C200091A7241017B5
:1012FE0021F4B0E0B0930C2050DCB1E26B2EB0E2E2
:10130E007B2E20902122309022224090232250903A
:10131E0024221AD77F906F905F904F903F902F901E
:02132E00089520
:100BA800CF93DF93CDB7DEB72297CDBFDEBF2196B7
:100BB8002F923F924F925F926F927F9240911320B3
:100BC8005091142060911520709116200091AE2448
:100BD8001091AF2420E0322F040F151F261F371F56
:100BE800B1E26B2EB0E27B2E180129010E94AB10F6
:100BF80001E210E22091A8243091A924F901E00F24
:100C0800F11F008108832F5F3F4F01E210E2F901D5
:100C1800E00FF11F00810983088119811F3F09F442
:100C28000F3F29F14091AC245091AD2408811981DE
:100C3800A7DC8C010093AE241093AF244091AC2420
:100C48005091AD24088119819BDC8D010093A82463
:100C58001093A924000F111F0093A8241093A9240E
:100C6800088119810093402210934122B7DC7F90BC
:100C78006F905F904F903F902F902196CDBFDEBF31
:060C8800DF91CF910895F9
:10058800C801BA01AA1BBB1B51E107C0AA1FBB1FA8
:10059800A617B70710F0A61BB70B881F991F5A9507
:0805A800A9F7809590950895D4
:10406E002F923F924F92B6E4B0939F244424B8E926
:10407E002B2EB4E23B2E0E948D120E9480114F9087
:06408E003F902F90089501
:10230000CF93DF93CDB7DEB72497CDBFDEBF219645
:102310002F923F924F925F926F927F92409108204E
:102320005091092060910A2070910B20009111209A
:102330001091122020E0322F040F151F261F371F87
:10234000088319832A833B8322240E945706B1E223
:102350006B2EB0E27B2E288039804A805B80FBDECA
:1023600021E230E200911B2010911C20F801E20FC5
:10237000F31FB5EEB083B1E26B2EB0E27B2E288066
:1023800039804A805B800E94FA007F906F905F9056
:102390004F903F902F902396CDBFDEBFDF91CF911E
:0223A00008959E
:10344A00CF93DF93CDB7DEB76F97CDBFDEBF21969F
:10345A002F923F924F925F926F927F928F929F929A
:10346A00B2E4B0939F244424B8E92B2EB4E23B2E55
:10347A004FD8003009F418C19E012B5F3F4F8E01CF
:10348A000C5F1F4F48018E010D5F1F4F38018E01DF
:10349A000E5F1F4F28018E0118013F932F930E9440
:1034AA00490AADB7BEB71296ADBFBEBFFE0173964D
:1034BA00B0E2B193B3E6B193B2E7B193B5E6B19393
:1034CA00B1E6B193B4E7B193B5E6B193B4E6B1937B
:1034DA00BAE3B193B0E2B193B0E0B1938E010D5E5D
:1034EA001F4F18010E946C118E010A5F1F4F28019D
:1034FA00288039800E94290D8E010A5F1F4F18010A
:10350A000E946C118E010A5F1F4F302E412E2A80B5
:10351A000E94060D8E010A5F1F4F18010E946C114E
:10352A008E010A5F1F4F28012B80B0E03B2E0E94BC
:10353A00290D8E010A5F1F4F18010E946C118E011E
:10354A000A5F1F4F28012C80B0E03B2E0E94290DF4
:10355A008E010A5F1F4F18010E946C118E010A5FCB
:10356A001F4F28012D80B0E03B2E0E94290D8E01AD
:10357A000A5F1F4F18010E946C119E012B5F3F4F7B
:10358A008E010C5F1F4F48018E010D5F1F4F3801DE
:10359A008E010E5F1F4F28018E0118013F932F9352
:1035AA000E94B20CADB7BEB71296ADBFBEBFFE0148
:1035BA007396B0E2B193BDE6B193BFE6B193B4E6B8
:1035CA00B193B9E6B193B6E6B193B9E6B193B5E66C
:1035DA00B193B4E6B193BAE3B193B0E2B193B0E078
:1035EA00B1938E010D5E1F4F18010E946C118E015E
:1035FA000A5F1F4F2801288039800E94290D8E01F9
:10360A000A5F1F4F18010E946C118E010A5F1F4F3B
:10361A00302E412E2A800E94060D8E010A5F1F4F0E
:10362A0018010E946C118E010A5F1F4F28012B801E
:10363A00B0E03B2E0E94290D8E010A5F1F4F180130
:10364A000E946C118E010A5F1F4F28012C80B0E086
:10365A003B2E0E94290D8E010A5F1F4F18010E94FE
:10366A006C118E010A5F1F4F28012D80B0E03B2E9E
:10367A000E94290D8E010A5F1F4F18010E946C11CA
:10368A000E94FB0CA801B9018E010A5F1F4F380185
:10369A00572E462E352E242E0E94D1118E010A5FF6
:1036AA001F4F1801F8D012C0B5E52B2E0E9447060D
:1036BA0023EA17E503E00A95F1F71A95E1F72A9547
:1036CA00D1F70000B5E52B2E0E9447069F908F90F8
:1036DA007F906F905F904F903F902F906E96CDBFE6
:0836EA00DEBFDF91CF910895CE
:10149200CF93DF93CDB7DEB72696288139810091AD
:1014A200342210913522007E1770B5E0169507950B
:1014B200BA95E1F7F90100830091342210913522A7
:1014C2000070187FBBE016950795BA95E1F7F40115
:1014D200008300913222109133220F711070F301B8
:1014E20000830091322210913322007E1170B5E008
:1014F20016950795BA95E1F7F20100830091322221
:101502001091332200701E7FB9E016950795BA95A7
:10151200E1F70454184FF10101931193DF91CF9138
:0215220008952A
:101A5200F201B0E2B193B0E2B193B0E2B193B0E27D
:101A6200B193B0E3B193B0E0B19382010C5F1F4F29
:101A72009801B0E03B1611F4B0E02B16A9F04AE051
:101A820050E081010E94C4028D01005DF9010083D2
:101A92004AE050E081010E94C4028C0118018901D0
:0A1AA200015010409801E5CF0895AF
:101A0C00E32DF42DB0E2B193B0E2B193B0E3B19316
:101A1C00B0E0B193032D142D0E5F1F4F9801B0E071
:101A2C002B1681F04AE0022D7DDC092F005DF901B7
:101A3C0000834AE0022D76DC202E890101501040F3
:061A4C009801EDCF0895A2
:10196400CF93DF93CDB7DEB72696288139810091D6
:101974000F2010911020007E1770B5E01695079582
:10198400BA95E1F7F901008300910F20109110201E
:101994000070187FBBE016950795BA95E1F7F4013E
:1019A400008300910D2010910E200F711070F3012F
:1019B400008300910D2010910E20007E1170B5E07F
:1019C40016950795BA95E1F7F201008300910D2071
:1019D40010910E2000701E7FB9E016950795BA95F8
:1019E400E1F70454184FF10101931193DF91CF9162
:0219F400089554
:1019F60040910020509101206091022070910320B7
:061A06008A019B01089516
:1023A200CF93DF93CDB7DEB72297CDBFDEBF2196A5
:1023B200F301B0E2B193B0E2B193B0E2B193B0E213
:1023C200B193B0E2B193B0E2B193B0E2B193B0E2B3
:1023D200B193B0E2B193B0E3B193B0E0B1938301B2
:1023E200075F1F4F08831983B0E05B1641F4B0E02A
:1023F2004B1629F4B0E03B1611F4B0E02B16F9F0BD
:102402004AE050E060E070E08101920130DD8D0130
:102412009F01005DE881F98100834AE050E060E0BD
:1024220070E08101920123DD8B019C0118012901D9
:10243200088119810150104008831983D5CF219654
:0A244200CDBFDEBFDF91CF910895FA
:1036F200CF93DF93CDB7DEB72B97CDBFDEBF219639
:103702002F923F924F925F926F927F928F9220E020
:1037120030E009E412E2F901E00FF11F20833130B9
:1037220009F42F3F29F089010F5F1F4F9801F1CF54
:10373200B0E28B2EFE01BDE6B193B9E6B193BBE6D2
:10374200B193B2E7B193BFE6B193B5E4B193BEE2F0
:10375200B193B4E7B193B8E7B193B4E7B193B0E0F2
:10376200B1938E013801B8E82B2EB3E13B2EB0E0C5
:103772004B2E5B2E49D9009344221093452220936D
:10378200462230934722303029F4203019F4103089
:1037920009F4003009F448C0B7E76B2EB4E27B2E7F
:1037A2002090442230904522409046225090472259
:1037B2000E945A0FB7E72B2EB4E23B2E70D040E0A6
:1037C20050E05F934F93B9E46B2EB2E27B2E2090D0
:1037D20044223090452240904622509047220E9437
:1037E200FA004F915F91009144221091452220915D
:1037F2004622309147220F5F1F4F2F4F3F4F0093BA
:103802004422109345222093462230934722BEE25F
:103812002B2E0E944706533109F4473829F08A01BA
:103822000F5F1F4FA801CDCF8F907F906F905F9059
:103832004F903F902F902A96CDBFDEBFDF91CF9160
:023842000895E7
:102A0A00CF93DF93CDB7DEB7A297CDBFDEBF2196B6
:102A1A00B0E0BE83BF8340E0E42FF0E0E60DF71D8F
:102A2A000081003009F44CC0E42FF0E0E60DF71DF8
:102A3A0000810E3219F44E83B0E0BF83E42FF0E038
:102A4A00E60DF71D00815F924F923F922F92202E42
:102A5A000E945C032F903F904F905F900023F1F00B
:102A6A008E01035F1F4F040FB0E01B1F08A319A3B9
:102A7A00E42FF0E0E60DF71D00815F924F923F923E
:102A8A002F92202E0E946A032F903F904F905F90C2
:102A9A0018A129A1E12FF22F00830EC08E01035F36
:102AAA001F4F242F30E0200F311FE42FF0E0E60DF6
:102ABA00F71D0081F9010083042F0F5F402FACCF6F
:102ACA008E01035F1F4FE42FF0E0E00FF11FB0E02B
:102ADA00B0830E811F81103009F4003009F44EC012
:102AEA006E810E81502F5E5F052F10E00617B0E051
:102AFA001B0708F43FC0262F2F5F8E01035F1F4F6D
:102B0A00E22FF0E0E00FF11F00810030B9F4262F28
:102B1A000E811F810E5F1F4F0217B0E01B0768F07E
:102B2A008E01035F1F4FE22FF0E0E00FF11FB0E2CA
:102B3A00B083022F0F5F202FEBCF1CC03C2F4D2FED
:102B4A00335F4F4F162F20E0130F241F062F0F5FFE
:102B5A00E02FF0E0E30FF41F0081E12FF22F008352
:102B6A00062F10E00517B0E01B0721F0062F0F5FB4
:102B7A00602FB7CF0E810D5F102F01C0142F012FC8
:102B8A000150402F0A3058F59E01235F3F4FE42F32
:102B9A00F0E0E20FF31F00810F8B142F1150E12F89
:102BAA00F0E0E20FF31F00810E8B012F0150102F6E
:102BBA00E02FF0E0E20FF31F00810D8B212F07E0D9
:102BCA00021768F08E01035F1F4FE22FF0E0E00F5B
:102BDA00F11FB0E2B083022F0F5F202FF0CFB0E0D9
:102BEA00B88F4091A72450E0652F752F810192017B
:102BFA003AD98B019C010C831D838101920140917A
:102C0A00AA245091AB2460E0762F43DB0883198312
:102C1A002A833B834091A72450E0652F752F8101B9
:102C2A00920121D98D019F01303029F4203019F405
:102C3A00103009F4003031F00C811D810F5F1F4FF5
:102C4A000C831D830C811D810E831F838F927F92BB
:102C5A006F925F924F923F922F920E94CF012F90D4
:102C6A003F904F905F906F907F908F900091AE242D
:102C7A001091AF244091AC245091AD240E94C70119
:102C8A002091A8243091A92436952795020F131F65
:102C9A00088719870091AE241091AF24009342222D
:102CAA00109343220091A8241091A924009319207B
:102CBA0010931A200E811F81103009F4003040E071
:102CCA0009F04FEF2091AE243091AF2400911720E4
:102CDA00109118202017310700E008F40FEF0423A1
:102CEA0009F492C02091A8243091A9240091AA2421
:102CFA001091AB242017310790F1B0E0B093A824CB
:102D0A00B093A9240091AE241091AF24A8014F5F7B
:102D1A005F4F4093AE245093AF240091132010913B
:102D2A0014202091152030911620040F151FB0E0B1
:102D3A002B1F3B1F8F927F926F925F924F923F920F
:102D4A002F92B1E26B2EB0E27B2E18012901FED937
:102D5A002F903F904F905F906F907F908F9001E2FD
:102D6A0010E22091A8243091A924F901E00FF11F63
:102D7A0000810A872F5F3F4F2093A8243093A9240C
:102D8A0001E210E2F901E00FF11F00810B878901CE
:102D9A000F5F1F4F0093A8241093A9240A851B854F
:102DAA00103009F4003039F40E811F8101501040AF
:102DBA000E831F8328C00C811D810E831F830091FF
:102DCA00AE241091AF244091AC245091AD240E94BE
:102DDA00C7012091A8243091A92436952795020F7E
:102DEA00131F088719870091AE241091AF2400930E
:102DFA004222109343220091A8241091A9240093FF
:102E0A00192010931A2056CF0E811F81103009F411
:102E1A00003009F009C30C811D810E831F830091C4
:102E2A004222109143220093AE241093AF240091C2
:102E3A00192010911A200093A8241093A9244091D4
:102E4A001320509114206091152070911620009142
:102E5A0042221091432220E0322F040F151F261F11
:102E6A00371F8F927F926F925F924F923F922F926B
:102E7A00B1E26B2EB0E27B2E1801290167D92F909F
:102E8A003F904F905F906F907F908F900E811F813F
:102E9A00015010400E831F830E811F81103009F4E8
:102EAA00003009F4A3C0088519850F5F1F4F0887F2
:102EBA00198721E230E20091A8241091A924F8018F
:102ECA00E20FF31F088500830091A8241091A9241A
:102EDA0098012F5F3F4F2093A8243093A92401E241
:102EEA0010E2F901E00FF11F098500830091A8247F
:102EFA001091A92498012F5F3F4F2093A824309363
:102F0A00A9240091AA241091AB242017310708F4B0
:102F1A0066C0409113205091142060911520709141
:102F2A0016200091AE241091AF2420E0322F040F16
:102F3A00151F261F371F8F927F926F925F924F92B3
:102F4A003F922F92B1E26B2EB0E27B2E180129013B
:102F5A000E94FA0040911D2050911E2060911F206E
:102F6A00709120200091AE241091AF2420E0322FDE
:102F7A00040F151F261F371FB1E26B2EB0E27B2EFE
:102F8A00180129010E94FA00B0E0B093A824B09376
:102F9A00A9240091AE241091AF24A8014F5F5F4F7E
:102FAA004093AE245093AF24009113201091142023
:102FBA002091152030911620040F151FB0E02B1F09
:102FCA003B1FB1E26B2EB0E27B2E18012901BED85D
:102FDA002F903F904F905F906F907F908F900E81CF
:102FEA001F81015010400E831F8356CF21E230E229
:102FFA000091A8241091A924F801E20FF31FBFEF52
:10300A00B0830091A8241091A92498012F5F3F4F03
:10301A002093A8243093A92401E210E2F901E00FD9
:10302A00F11FBFEFB083409113205091142060919B
:10303A001520709116200091AE241091AF2420E043
:10304A00322F040F151F261F371F8F927F926F9200
:10305A005F924F923F922F92B1E26B2EB0E27B2E9B
:10306A00180129010E94FA0040911D2050911E204A
:10307A0060911F20709120200091AE241091AF24FE
:10308A0020E0322F040F151F261F371FB1E26B2EC7
:10309A00B0E27B2E180129010E94FA0044248E0115
:1030AA00035F1F4F180134DA2F903F904F905F90C3
:1030BA006F907F908F90003039F1009142221091E9
:1030CA0043220A8F1B8F0091192010911A200C8F0E
:1030DA001D8F8F927F926F925F924F923F922F92A3
:1030EA000AD92F903F904F905F906F907F908F906A
:1030FA000A8D1B8D00934222109343220C8D1D8D45
:10310A000093192010931A20B0E0B0931B20B093BB
:10311A001C20B0E0B0931120B09312208F927F92BE
:10312A006F925F924F923F922F92B1E26B2EB0E272
:10313A007B2E209008203090092040900A20509041
:10314A000B2004D82F903F904F905F906F907F9004
:10315A008F90B0E0BC870C85003009F068C02091E0
:10316A001B2030911C200091AA241091AB24201717
:10317A00310799F5B0E0B0931B20B0931C20009161
:10318A00112010911220A8014F5F5F4F4093112028
:10319A0050931220009108201091092020910A20B2
:1031AA0030910B20040F151FB0E02B1F3B1F8F928D
:1031BA007F926F925F924F923F922F92B1E26B2E63
:1031CA00B0E27B2E180129010E94AB102F903F908C
:1031DA004F905F906F907F908F9001E210E2309154
:1031EA001B2040911C20E32FF42FE00FF11F0081D8
:1031FA00053E20E009F42FEF01E210E2E32FF42F5D
:10320A00E00FF11F00810030B0E009F4BFEF0B2F8F
:10321A00022B11F0B1E0BC8700911B2010911C20F9
:10322A00005E1F4F00931B2010931C2094CF0C8527
:10323A00013009F0DBC000911B2010911C200052C4
:10324A00104000931B2010931C2040E000911B208B
:10325A0010911C20242F30E0200F311F01E210E2D0
:10326A00200F311F8E01035F1F4FE42FF0E0E00FA4
:10327A00F11F0081F90100834A3029F0042F0F5F02
:10328A00802F482FE3CF00911B2010911C2098011A
:10329A00255F3F4F01E210E2F901E00FF11F808242
:1032AA0000911B2010911C209801245E3F4F01E2DF
:1032BA0010E2F901E00FF11F0881008300911B2041
:1032CA0010911C209801235E3F4F01E210E2F901A0
:1032DA00E00FF11F0981008300911B2010911C202F
:1032EA009801225E3F4F01E210E2F901E00FF11F5F
:1032FA000A81008300911B2010911C209801215EF5
:10330A003F4F01E210E2F901E00FF11F0B81008348
:10331A0000914222109143224091AC245091AD2455
:10332A000E94C7012091192030911A2036952795BD
:10333A00020F131F0887198700911B2010911C2068
:10334A009801265E3F4F01E210E2F901E00FF11FFA
:10335A000885008300911B2010911C209801255E8E
:10336A003F4F01E210E2F901E00FF11F09850083E6
:10337A004DE000911B2010911C20242F30E0200FDB
:10338A00311F01E210E2F901E00FF11FB0E0B08352
:10339A00493121F0042F0F5F402FEBCF40910820D5
:1033AA005091092060910A2070910B200091112000
:1033BA001091122020E0322F040F151F261F371FED
:1033CA008F927F926F925F924F923F922F92B1E2C9
:1033DA006B2EB0E27B2E180129010E94FA002F9071
:1033EA003F904F905F906F907F908F90488559855E
:1033FA0060E0762F42505040604070400091A72410
:10340A0010E0212F312F0E944E114091042050913B
:10341A0005206091062070910720040F151F261FB2
:10342A00371FA801B90104C040E050E060E070E035
:10343A008A019B01A196CDBFDEBFDF91CF9108958E
:00344A0082
:101EB400CF93DF93CDB7DEB72397CDBFDEBF219697
:101EC400BFEF5B1641F4B0E04B1629F4B0E03B16CB
:101ED40011F4B0E02B16D1F4F301BDE2B193B2E3F7
:101EE400B193B1E3B193B4E3B193B7E3B193B4E382
:101EF400B193B8E3B193B3E3B193B6E3B193B4E36D
:101F0400B193B8E3B193B0E0B1937BC0B0E0BA83CE
:101F140000E010E020E030E02016310642065306CF
:101F240064F4BFEFBA8300E010E020E030E002196F
:101F340013092409350918012901F301B0E2B19309
:101F4400B0E2B193B0E2B193B0E2B193B0E2B19335
:101F5400B0E2B193B0E2B193B0E2B193B0E2B19325
:101F6400B0E2B193B0E3B193B0E0B1938301065F03
:101F74001F4F08831983B0E05B1641F4B0E04B16A1
:101F840029F4B0E03B1611F4B0E02B1699F17F92DE
:101F94006F925F924F923F922F924AE050E060E03E
:101FA40070E08101920121DF8B019C012F903F9011
:101FB4004F905F90005DE881F98100835F924F92BA
:101FC4003F922F924AE050E060E070E0810192017C
:101FD4000CDF89019A012F903F904F905F906F9092
:101FE4007F9018012901088119810150104008834C
:101FF4001983C1CF0A81002321F0E881F981BDE270
:0E200400B0832296CDBFDEBFDF91CF9108954D
:10384400B7E4B0932522B6E0B0932622BFEFB0933D
:103854002E22BFEFB0932F22BFEFB0932C22BFEFE5
:10386400B0932D22BFEFB0932A22BFEFB0932B2247
:10387400B0914206B460B0934206B0914106B8607C
:10388400B0934106B0E0B093A3080091A408086186
:0C3894000093A408B3E0B093A5080895C9
:00000001FF
