:100000000C9451040C9400000C9400000C9400001B
:100010000C9400000C9400000C9400000C94000060
:100020000C9400000C9400000C9400000C94000050
:100030000C9400000C9400000C9400000C94000040
:100040000C9400000C9400000C9400000C94000030
:040050000C9400000C
:1008A200BFE5BDBFB4E0BEBFCDB7DEB72F97CDBFAA
:1008B200DEBF21962F923F924F925F926F927F926C
:1008C200BFEFB4BBB0E0B5BBB9E1B9B9B0E0B0BD00
:1008D200B0DF18E605EE0A95F1F71A95E1F7BFEFDA
:1008E200BABBB1E0BBBBFE01B1E4B193B6E5B193D3
:1008F200B2E5B193BDE2B193B3E5B193B4E7B1937D
:10090200B1E6B193B2E7B193B4E7B193B5E6B1936F
:10091200B4E6B193B0E0B1938E011801AEDFBDE051
:100922002B2EE2DCBAE02B2EDFDC4424B4E03B2E9B
:10093200B0E12B2EB6DEB0E3B0937F02B0E0B0930D
:100942008002D2DE00938102B0E0B0938202009175
:10095200810205BB0091810210918202103009F4DC
:10096200003011F5FE01BDE4B193BDE4B193B3E4EF
:10097200B193B0E2B193B9E4B193BEE6B193B9E6F3
:10098200B193B4E7B193BDE2B193BFE4B193BBE4D9
:10099200B193B0E0B1938E0118016FDFBDE02B2E51
:1009A200A3DCBAE02B2EA0DC00918102109182021E
:1009B200B02FB12B41F1FE01BDE4B193BDE4B1937F
:1009C200B3E4B193B0E2B193B9E4B193BEE6B193AB
:1009D200B9E6B193B4E7B193BDE2B193B5E6B19391
:1009E200B2E7B193B2E7B193BFE6B193B2E7B19385
:1009F200B0E0B1938E01180140DFBDE02B2E74DC14
:100A0200BAE02B2E71DCB0E0B0938102B093820287
:100A120020E630E00091810210918202F801E20F9B
:100A2200F31FB5E4B083009181021091820211306C
:100A320009F40F3F59F000918102109182020F5F79
:100A42001F4F0093810210938202E2CFB0E66B2E19
:100A5200B0E07B2EB7E32B2EB0E03B2E4B2E5B2E6D
:100A6200C4DC00938102B0E0B09382020091810263
:100A720010918202103009F40030B9F4FE01B7E59A
:100A8200B193B2E7B193B9E6B193B4E7B193B5E6E6
:100A9200B193BDE2B193BFE4B193BBE4B193B0E0D3
:100AA200B1938E011801E9DE1CC0FE01B7E5B193D6
:100AB200B2E7B193B9E6B193B4E7B193B5E6B193B6
:100AC200BDE2B193B5E4B193B2E7B193B2E7B193AA
:100AD200BFE6B193B2E7B193B0E0B1938E011801D2
:100AE200CCDEBDE02B2E00DCBAE02B2EFDDBB0E627
:100AF2002B2EB2E03B2E05DC00938102B0E0B093D6
:100B020082020091810210918202103009F40030B9
:100B120099F5B0E0B0938302B093840220E632E00C
:100B22000091830210918402F801E20FF31F008109
:100B3200202E28DD0091830210918402103009F4E6
:100B42000F3019F0BDE22B2ECFDB00918302109102
:100B52008402103009F40F3059F000918302109191
:100B620084020F5F1F4F0093830210938402D6CF3B
:100B7200BDE02B2EB9DB18C0FE01B3E4B193B9E49A
:100B8200B193B4E4B193BDE2B193B5E6B193B2E7E8
:100B9200B193B2E7B193BFE6B193B2E7B193B0E0DC
:100BA200B1938E01180169DEB0E62B2EB2E03B2E26
:100BB2000EDD00938102B0E0B093820200918102C7
:100BC20010918202103009F4003009F036C0B0E012
:100BD200B0938302B093840220E632E00091830254
:100BE20010918402F801E20FF31F0081202ECADC6B
:100BF2000091830210918402103009F40F3019F031
:100C0200BDE22B2E71DB0091830210918402103021
:100C120009F40F3059F000918302109184020F5FA2
:100C22001F4F0093830210938402D6CFBDE02B2E78
:100C32005BDBBAE02B2E58DB18C0FE01B3E4B193A4
:100C4200B3E5B193B4E4B193BDE2B193B5E6B19328
:100C5200B2E7B193B2E7B193BFE6B193B2E7B19312
:100C6200B0E0B1938E01180108DE7F906F905F9023
:080C72004F903F902F90F9CF45
:10087C009101F9010081003069F0F90100813F928A
:10088C002F92202E2CDD2F903F9089010F5F1F4F50
:06089C009801EFCF089562
:1002EA00BBB1B5FD02C00000FBCFBBB1B6FF03C076
:0A02FA00BBB1B064BBB92CB8089585
:1006A400B0E3B0937F02B0E0B0938002BFEFB093A9
:1006B4008902BFEFB0938A02B7B3B068B7BBB7B3D0
:1006C400BF7BB7BBB7B3B062B7BBB7B3B061B7BB9F
:1006D40032FABEB1B0F9BEB9032D03700429022960
:0606E40000640DB9089549
:1006EA00CF93DF93CDB7DEB72197CDBFDEBF21967B
:1006FA002F923F924F925F926F927F92B5E0B093A2
:10070A008B02B0913700B160B0933700B0913800D6
:10071A00B160B093380020E030E03F932F93BFEFF1
:10072A002B2EE0917F02F091800209952F913F9143
:10073A00303009F4293029F089010F5F1F4F9801E1
:10074A00ECCF83DCB5E97B2E33244424552466247C
:10075A0022248ADC0883B5DD0881013011F011E01A
:10076A0058C073DCB7E87B2EBAEA3B2EB1E04B2EB9
:10077A00B0E05B2E6B2EB8E02B2E76DC0883BFEF41
:10078A002B2EE0917F02F09180020995BFEF2B2E6C
:10079A00E0917F02F09180020995BFEF2B2EE09144
:1007AA007F02F09180020995BFEF2B2EE0917F0224
:1007BA00F0918002099585DD0881013041F0B1E0B0
:1007CA002B2ECEDC003011F02224CADC03C0B2E0AA
:1007DA002B2EC6DC00918B02053011F412E019C0F1
:1007EA0000918B020430A1F030DCBFEF7B2EB0E029
:1007FA003B2EB2E04B2EB0E05B2E6B2EB0E12B2EDF
:10080A0033DC08835EDD0881003011F013E001C09B
:10081A0010E0012F7F906F905F904F903F902F9044
:0A082A00CDBFDEBFDF91CF9108952E
:100060002FB8BEB1B7FD02C00000FBCF1FB1012FFA
:020070000895F1
:0C005400B0913800BE7FB09338000895D2
:100072002F92022D005C7F926F925F924F923F927D
:10008200202EE0917F02F091800209953F904F90DF
:100092005F906F906F925F924F923F92262CE09109
:1000A2007F02F091800209953F904F905F906F9090
:1000B2006F925F924F923F92252CE0917F02F091D6
:1000C200800209953F904F905F906F906F925F9280
:1000D2004F923F92242CE0917F02F0918002099589
:1000E2003F904F905F906F90232CE0917F02F091B0
:1000F200800209957F90272CE0917F02F091800287
:10010200099550E060E06F935F937F926F925F92E8
:100112004F923F922F92BFEF2B2EE0917F02F091F0
:10012200800209952F903F904F905F906F907F9043
:100132005F916F91402F252F362F2F5F3F4F522F08
:10014200632F042F0078003010E009F41FEF3030E5
:1001520009F4243600E008F00FEF012B002309F424
:08016200D2CF042F2F90089565
:1002CC002F92B0913800B160B0933800BFEF2B2E55
:0E02DC00E0917F02F091800209952F90089525
:10016A00CF93DF93CDB7DEB72497CDBFDEBF2196FD
:10017A003F924F925F926F927F92B0E0B883B983B9
:10018A00B0E02B16B9F461DF2F92BFEF7B2E332438
:10019A00442455246624B1E02B2E66DF0A8391D0CD
:1001AA002F900A81003029F4B0E0B0938B0210E05E
:1001BA007CC06DC04ADF2F92BFEF7B2E33244424CC
:1001CA0055246624B7E32B2E4FDF0A837AD02F906B
:1001DA000A81013009F05AC038DF2F92BFEF7B2E17
:1001EA00B0E03B2E4B2E5B2EB0E46B2EB9E22B2EE9
:1001FA003BDF0A8366D02F900A81003009F045C0A0
:10020A00B2E02B1609F03CC020DF2F92BFEF7B2E05
:10021A003324442455246624BAE32B2E25DF0A838B
:10022A00BFEF2B2EE0917F02F091800209950B839C
:10023A00BFEF2B2EE0917F02F09180020995BFEF6C
:10024A002B2EE0917F02F09180020995BFEF2B2EB1
:10025A00E0917F02F0918002099533D02F900A81B4
:10026A00003069F40B810074003021F0B4E0B093DF
:10027A008B0203C0B3E0B0938B0210E016C005C036
:10028A00B1E0B0938B0210E010C001C00DC008812C
:10029A001981173209F40F3039F0088119810F5F7B
:1002AA001F4F088319836CCF11E0012F7F906F9045
:1002BA005F904F903F902396CDBFDEBFDF91CF91E5
:0202CA00089595
:1003EC002F923F924F925F922FDE00918B0204303E
:1003FC0019F4810192010DC0B9E081019201000F45
:10040C00111F221F331FBA95D1F7A801B9018A0118
:10041C009B017F926F92BFEF7B2E302E412E522E7E
:10042C00632EB8E12B2E1FDE6F907F90003019F0F9
:10043C0047DF11E09CC07F926F92BFEF2B2EE091B3
:10044C007F02F09180020995BFEF2B2EE0917F0285
:10045C00F09180020995BEEF2B2EE0917F02F09176
:10046C00800209956F907F9020E030E0F901E60D55
:10047C00F71D00813F932F937F926F925F924F9263
:10048C003F922F92202EE0917F02F09180020995ED
:10049C002F903F904F905F906F907F902F913F9156
:1004AC00313009F42F3F29F089010F5F1F4F98015C
:1004BC00DDCF7F926F925F924F923F922F92BFEF60
:1004CC002B2EE0917F02F09180020995BFEF2B2E2D
:1004DC00E0917F02F09180020995BFEF2B2EE09105
:1004EC007F02F091800209952F903F904F905F9082
:1004FC006F907F90202F30E089010F7110701030B9
:10050C0009F4053079F07F926F925F924F923F928F
:10051C002F92D6DE2F903F904F905F906F907F90F0
:10052C0012E025C07F926F925F924F923F922F9272
:10053C00BFEF2B2EE0917F02F091800209952F9056
:10054C003F904F905F906F907F900F3F11F00000A5
:10055C00E9CF7F926F925F924F923F922F92B0DED3
:10056C002F903F904F905F906F907F9010E0012FF5
:0A057C005F904F903F902F9008957C
:10030400CF93DF93CDB7DEB72297CDBFDEBF219663
:100314004F925F926F927F929BDE3F922F92BFEF3C
:100324007B2E3324442455246624BAE02B2E9FDEEE
:100334002F903F90003019F0C7DF11E04AC03F9280
:100344002F92BFEF2B2EE0917F02F091800209954E
:100354002F903F900E3F11F00000F1CF30E040E0CD
:10036400032F142F020D131D088319834F933F93FA
:100374003F922F92BFEF2B2EE0917F02F0918002EB
:1003840009952F903F903F914F9118812981E12F3A
:10039400F22F0083403009F43F3039F0032F142F3B
:1003A4000F5F1F4F302F412FDBCF3F922F92BFEFB4
:1003B4002B2EE0917F02F09180020995BFEF2B2E46
:1003C400E0917F02F091800209957EDF2F903F90AB
:1003D40010E0012F7F906F905F904F902196CDBFDA
:0803E400DEBFDF91CF91089507
:100586002F92022D007F0695069506950695102F4B
:10059600105D212F09E3011720F4022F095F202F98
:1005A60000C0022D0F70102F105D312F09E30117C7
:1005B60028F4032F095F102F012F01C0032F222ECD
:0A05C60091DE202E8FDE2F900895A5
:1005D000CF93DF93CDB7DEB72297CDBFDEBF219695
:1005E0004F925F926F927F9235DD3F922F92BFEFD5
:1005F0007B2E3324442455246624B9E02B2E39DD88
:100600002F903F90003019F061DE11E040C03F9222
:100610002F92BFEF2B2EE0917F02F091800209957F
:100620002F903F900E3F99F730E0032F10E0020D1E
:10063000131D088319833F933F922F92BFEF2B2EF8
:10064000E0917F02F091800209952F903F903F91B9
:1006500018812981E12FF22F00833F3021F0032FF1
:100660000F5F302FE2CF3F922F92BFEF2B2EE09102
:100670007F02F09180020995BFEF2B2EE0917F025F
:10068000F0918002099522DE2F903F9010E0012F1B
:100690007F906F905F904F902196CDBFDEBFDF912E
:0406A000CF91089559
:10083400B5E7B0938502B1E0B0938602BFEFB09301
:100844008702BFEFB0938802BFEFB0938C02BFEF73
:10085400B0938D02BFEFB0938E02BFEFB0938F02BF
:10086400B1B3BE7FB1BBB1B3B260B1BB0AB1086171
:080874000AB9B6E8B0BD089511
:00000001FF
