:10000000CCEF1EF00000000000EF00F00000000048
:0A0010000000000000000000F3D71C
:10001C0095C5C9FFC7B002D00000FCD7C9CF00F00E
:02002C001200C0
:10002E00F250026EF29E0500FF6A0150FE6E005005
:08003E00FD6E02BEF28E1200FD
:100046008B80E5C2E1FFE6C2E2FFFF0EE66EE3C289
:0A00560000F0E4C201F0E8DF120040
:040060008B9012006F
:10006400400E05018C25006EE5C2E1FFE6C2E2FF09
:1000740000C0E6FFE3C200F0E4C201F0D6DFE5C24F
:10008400E1FFE6C2E2FF90C5E6FFE3C200F0E4C28E
:1000940001F0CBDFE5C2E1FFE6C2E2FF8FC5E6FF78
:1000A400E3C200F0E4C201F0C0DFE5C2E1FFE6C252
:1000B400E2FF8EC5E6FFE3C200F0E4C201F0B5DF63
:1000C400E5C2E1FFE6C2E2FF8DC5E6FFE3C200F050
:1000D400E4C201F0AADFE5C2E1FFE6C2E2FF91C596
:1000E400E6FFE3C200F0E4C201F09FDF0501936B79
:1000F400946BE5C2E1FFE6C2E2FFFF0EE66EE3C2E7
:1001040000F0E4C201F091DF00C092F50501934BC9
:10011400942B800E0014016E0150000A07E0000EBB
:10012400945D02E1640E935D01E2E3D792C500F0B1
:020134001200B7
:1001360094DF000E000A02E1040E311809E17EC5C3
:1001460086F57FC587F580C588F581C589F514D004
:10015600090E006E7EC586F57FC587F580C588F5D4
:1001660081C589F5005008E00501863786918737F5
:1001760088378937FF0FF7D70501110E8C6F86C5B3
:100186008DF587C58EF588C58FF589C590F5FF0E67
:10019600916F65DF005204E053DF010E006E12001E
:1001A600E5C2E1FFE6C2E2FFFF0EE66EE3C200F043
:1001B600E4C201F039DF0050FE0A01E0F1D7050183
:1001C600846B856B020E855D02E1000E845D1BE289
:1001D600845182258A6F855183218B6FE5C2E1FFA9
:1001E600E6C2E2FFFF0EE66EE3C200F0E4C201F0F3
:1001F6001BDF8AC5E1FF8BC5E2FF00C0E6FF0501F4
:10020600844B852BDFD7E5C2E1FFE6C2E2FFFF0E96
:10021600E66EE3C200F0E4C201F006DFE5C2E1FFEC
:10022600E6C2E2FFFF0EE66EE3C200F0E4C201F0B2
:08023600FBDE06DF006A120086
:10023E0010DF000E000A02E1040E311809E17EC53E
:10024E0086F57FC587F580C588F581C589F514D0FB
:10025E00090E006E7EC586F57FC587F580C588F5CB
:10026E0081C589F5005008E00501863786918737EC
:10027E0088378937FF0FF7D70501180E8C6F86C5A3
:10028E008DF587C58EF588C58FF589C590F5FF0E5E
:10029E00916FE1DE005204E0CFDE010E006E12001F
:1002AE00E5C2E1FFE6C2E2FFFF0EE66EE3C200F03A
:1002BE00E4C201F0B5DEE5C2E1FFE6C2E2FFFF0EE9
:1002CE00E66EE3C200F0E4C201F0AADEE5C2E1FF91
:1002DE00E6C2E2FFFE0EE66EE3C200F0E4C201F0FB
:1002EE009FDE0501846B856B8551010802E1845107
:1002FE00FF0815E384518225E96E85518321EA6E4C
:10030E00E5C2E1FFE6C2E2FFEECFE6FFE3C200F098
:10031E00E4C201F085DE0501844B852BE5D7E5C2ED
:10032E00E1FFE6C2E2FFFF0EE66EE3C200F0E4C2BA
:10033E0001F076DEE5C2E1FFE6C2E2FFFF0EE66EF9
:10034E00E3C200F0E4C201F06BDEE5C2E1FFE6C2FB
:10035E00E2FFFF0EE66EE3C200F0E4C201F060DEE3
:10036E0000C084F5000E0501856F1F0E8415016E09
:10037E0085C502F0000E021601C084F502C085F597
:10038E00000E021802E1050E011804E055DE020E01
:10039E00006E1200E5C2E1FFE6C2E2FFFF0EE66E5E
:1003AE00E3C200F0E4C201F03BDE0050FF0A01E0C0
:0803BE00F1D742DE006A1200D3
:1003C6000B6A0A6A096A00500402F4CF09F0F3CFF7
:1003D60008F001500502F4CF0BF0F3CF0AF00050FD
:1003E6000502F3500926F4500A22E86A0B2201504E
:1003F6000402F3500926F4500A22E86A0B2208C0C8
:1004060000F009C001F00AC002F00BC003F01200B0
:10041600220E0C6E086A096A0A6A0B6A0C06D8B4C0
:100426001FD0D8900B320A32093208320332023218
:1004360001320032D8A0F2D70C06D8B409D0045045
:1004460008260550092206500A2207500B22EAD731
:10045600045008260550092206500A2207500B228E
:02046600120082
:1004680005017D6B0201E16BE26B040EDF6F000E8C
:10047800E06F0DC37EF50EC37FF50FC380F510C383
:1004880081F5C30E0501826F000E836F50DE0201F5
:10049800E051DE1902E1DD51DF191EE1DF6BE06B8F
:1004A800E14BE22BE15103010D2505017E6F0201AD
:1004B800E25103010E2105017F6F000E03010F2198
:1004C8000501806F000E030110210501816FC30E25
:1004D800826F000E836F2BDEC30E0201DF25E96EEB
:1004E800000EE021EA6EEE50000A12E1010EDF254F
:1004F800006E000EE021016EC30E0024E96E000EAE
:100508000120EA6EEE50000A03E1010E05017D6F3D
:10051800020E0201DF27000EE02305017D53B7E03C
:0E0528007D6B020E0201DF5F000EE05B120031
:100536000B6A0A6A096A086A0E6A033408360450A6
:10054600085E0550D8A0053C095E0650D8A0063CBA
:100556000A5E0750D8A0073C0B5EE86AD8A0010ED9
:100566000E5E0336070E0C6E0334083609360A365D
:100576000B360E36045003A012D0085E0550D8A0E4
:10058600053C095E0650D8A0063C0A5E0750D8A076
:10059600073C0B5EE86AD8A0010E0E5E11D0082655
:1005A6000550D8B0053C09260650D8B0063C0A26A8
:1005B6000750D8B0073C0B26E86AD8B0010E0E26C5
:1005C60003360C2ED1D70234083609360A360B36D6
:1005D6000E36045003A012D0085E0550D8A0053C84
:1005E600095E0650D8A0063C0A5E0750D8A0073C14
:1005F6000B5EE86AD8A0010E0E5E11D008260550E3
:10060600D8B0053C09260650D8B0063C0A26075045
:10061600D8B0073C0B26E86AD8B0010E0E26023683
:10062600070E0C6E0234083609360A360B360E36BD
:10063600045002A012D0085E0550D8A0053C095E01
:100646000650D8A0063C0A5E0750D8A0073C0B5EB1
:10065600E86AD8A0010E0E5E11D008260550D8B063
:10066600053C09260650D8B0063C0A260750D8B0E5
:10067600073C0B26E86AD8B0010E0E2602360C2E71
:10068600D1D70134083609360A360B360E360450F1
:1006960002A012D0085E0550D8A0053C095E06509F
:1006A600D8A0063C0A5E0750D8A0073C0B5EE86A55
:1006B600D8A0010E0E5E11D008260550D8B0053C14
:1006C60009260650D8B0063C0A260750D8B0073C83
:1006D6000B26E86AD8B0010E0E260136070E0C6E00
:1006E6000134083609360A360B360E36045001A098
:1006F60012D0085E0550D8A0053C095E0650D8A069
:10070600063C0A5E0750D8A0073C0B5EE86AD8A0F4
:10071600010E0E5E11D008260550D8B0053C0926FC
:100726000650D8B0063C0A260750D8B0073C0B2620
:10073600E86AD8B0010E0E2601360C2ED1D7003449
:10074600083609360A360B360E36045001A012D08A
:10075600085E0550D8A0053C095E0650D8A0063CA8
:100766000A5E0750D8A0073C0B5EE86AD8A0010EC7
:100776000E5E11D008260550D8B0053C0926065055
:10078600D8B0063C0A260750D8B0073C0B26E86AC4
:10079600D8B0010E0E260036070E0C6E0034083651
:1007A60009360A360B360E36045000A012D0085E03
:1007B6000550D8A0053C095E0650D8A0063C0A5E46
:1007C6000750D8A0073C0B5EE86AD8A0010E0E5E63
:1007D60011D008260550D8B0053C09260650D8B0D9
:1007E600063C0A260750D8B0073C0B26E86AD8B064
:1007F600010E0E2600360C2ED1D700B00ED00450B6
:1008060008260550D8B0053C09260650D8B0063C47
:0C0816000A260750D8B0073C0B26120041
:10082200C30E0201DF25E16E000EE021E26EFF0E33
:10083200E66E010EDF25006E000EE021016EC30E92
:100842000024E16E000E0120E26EFF0EE66EE15121
:1008520003010D2505017E6F0201E25103010E2104
:1008620005017F6F000E03010F210501806F000E4D
:10087200030110210501816FC30E826F000E836F89
:10088200DDDC0201E15103011D2505017E6F02013C
:10089200E25103011E2105017F6F000E03011F219A
:1008A2000501806F000E030120210501816FC30E37
:0A08B200826F000E836FC2DC12009B
:1008BC00E1C200F0E2C201F0D6C204F0D7C205F0EA
:1008CC007CDDDFC202F0E0C203F003320232039E91
:1008DC00025000240201E76F03500120E86F120060
:1008EC00020E0201E75D046E000EE859056ECDC2E2
:1008FC0000F0000E016E026E036E000E066E076EA7
:10090C0084DD00C021F301C022F302C023F303C035
:10091C0024F3030109510024216F0A510120226F95
:0E092C000B510220236F0C510320246F120088
:10093A00050178517A0804E3610E785DD8B0789B96
:06094A0078C500F0120068
:10095000050178517A0806E3610E785D03E3010E24
:08096000006E01D0006A1200D4
:10096800086A096A100E0C6E0134083609360450FC
:10097800085E0550D8A0053C095ED8B007D00450E1
:1009880008260550D8B0053C0926D890003601360F
:060998000C2EEAD712004C
:0E099E00ACB202D00000FCD778C5ADFF12004D
:1009AC000201E15103010D2505017E6F0201E251A7
:1009BC0003010E2105017F6F000E03010F210501BC
:1009CC00806F000E030110210501816FC30E826F31
:1009DC00000E836F9BEC00F0C30E0201DF25026E4C
:1009EC00000EE021036E02C0E9FF03C0EAFFEECF68
:1009FC0079F5000E05017A6F7B6F7C6F000E7A6FB4
:100A0C007B6F7C6F010E0201DF25006E000EE02172
:100A1C00016EC30E0024E96E000E0120EA6EEECFCB
:100A2C007AF5E1C21BF3E2C21CF3DFC215F3E0C29C
:100A3C0016F302C0E1FF03C0E2FF78C5E6FF010E2A
:100A4C00DF25006E000EE021016EC30E0024E16E66
:100A5C00000E0120E26E78C5E6FFE15103010D2581
:100A6C0005017E6F0201E25103010E2105017F6F2A
:100A7C00000E03010F210501806F000E03011021F0
:100A8C000501816FC30E826F000E836F1FEC01F0A6
:100A9C000201E15103011D2505017E6F0201E251A6
:100AAC0003011E2105017F6F000E03011F210501AB
:100ABC00806F000E030120210501816FC30E826F30
:100ACC00000E836F1FEC01F0000E006E05017C1907
:100ADC0008E100507B1905E1FF0E7A1902E179510A
:100AEC00FF0AD8B4BED079C500F07AC501F07BC539
:100AFC0002F07CC503F00036009001360236033656
:100B0C0000C079F501C07AF502C07BF503C07CF515
:100B1C00DDC204F0DEC205F0000E066E076E05DDC8
:100B2C0000C0E1F201C0E2F2DDC204F0DEC205F069
:100B3C00000E066E076E79C500F07AC501F07BC514
:100B4C0002F07CC503F0F1DC08C000F009C001F034
:100B5C000AC002F00BC003F000C0DFF201C0E0F2EB
:100B6C000201E15103010D2505017E6F0201E251E5
:100B7C0003010E2105017F6F000E03010F210501FA
:100B8C00806F000E030110210501816FC30E826F6F
:100B9C00000E836F9BEC00F0C30E0201DF25026E8A
:100BAC00000EE021036E02C0E9FF03C0EAFFEECFA6
:100BBC0079F5010EDF25006E000EE021016EC30EEB
:100BCC000024E96E000E0120EA6EEECF7AF502C029
:100BDC00E1FF03C0E2FFE66A010EDF25006E000EA6
:100BEC00E021016EC30E0024E16E000E0120E26EC6
:100BFC00E66AE15103010D2505017E6F0201E25108
:100C0C0003010E2105017F6F000E03010F21050169
:100C1C00806F000E030110210501816FC30E826FDE
:100C2C00000E836F1FEC01F00201E15103011D2541
:100C3C0005017E6F0201E25103011E2105017F6F48
:100C4C00000E03011F210501806F000E03012021FE
:100C5C000501816FC30E826F000E836F1FEC01F0D4
:100C6C0033D71BC3E1F21CC3E2F215C3DFF216C388
:040C7C00E0F2120090
:100C80000201C96BCA6BCB6BCC6B34EC02F0C9DDD3
:100C900015DEC5C27EF5C6C27FF5C7C280F5C8C2E3
:100CA00081F5C30E0501826F000E836F9BEC00F08F
:100CB00005017C6B0201CA51DE1902E1DD51C9193F
:100CC0001DE1C96BCA6BCB4BCC2BCB51C5250501A4
:100CD0007E6F0201CC51C62105017F6F000E02011B
:100CE000C7210501806F000E0201C8210501816F37
:100CF000C30E826F000E836F9BEC00F0C30E0201E7
:100D0000C925E96E000ECA21EA6EEE50E50A0AE036
:100D1000C30EC925E96E000ECA21EA6EEE50000A24
:100D200001E003D0010E05017C6F200E0201C927EE
:100D3000000ECA2305017C53BDE07C51010AD8A4F2
:100D400020D1200E0201C95F000ECA5B05017B6B3A
:100D50007B510A0818E37B510201C925006E000E81
:100D6000CA21016EC30E0024E16E000E0120E26E66
:100D700005017B517825E96E000E7921EA6EEECFF0
:100D8000E6FF7B2BE5D71C0E7B6F200E7B5D11E20F
:100D90007B510201C925006E000ECA21016EC30EEF
:100DA0000024E16E000E0120E26EE66A05017B2B55
:100DB000ECD71A0E0201C925006E000ECA21016E81
:100DC000C30E0024E16E000E0120E26EE7C2E6FFD2
:100DD0001B0EC925006E000ECA21016EC30E002431
:100DE000E16E000E0120E26EE8C2E6FF0B0EC9259F
:100DF000006E000ECA21016EC30E0024E16E000ECB
:100E00000120E26E7AC5E6FF0D0E05017B6F7B5176
:100E1000190811E37B510201C925006E000ECA2199
:100E2000016EC30E0024E16E000E0120E26EE66A40
:100E300005017B2BECD70E0E0201C925006E000EBA
:100E4000CA21016EC30E0024E16E000E0120E26E85
:100E5000C3C2E6FF0F0EC925006E000ECA21016E47
:100E6000C30E0024E16E000E0120E26EC4C2E6FF54
:100E7000100EC925006E000ECA21016EC30E00249B
:100E8000E16E000E0120E26ED4C2E6FF110EC9250C
:100E9000006E000ECA21016EC30E0024E16E000E2A
:100EA0000120E26ED5C2E6FF120EC925006E000ECB
:100EB000CA21016EC30E0024E16E000E0120E26E15
:100EC000D4C2E6FF130EC925006E000ECA21016EC2
:100ED000C30E0024E16E000E0120E26ED5C2E6FFD3
:100EE000160EC925006E000ECA21016EC30E002425
:100EF000E16E000E0120E26EC3C2E6FF170EC925A7
:100F0000006E000ECA21016EC30E0024E16E000EB9
:100F10000120E26EC4C2E6FF180EC925006E000E65
:100F2000CA21016EC30E0024E16E000E0120E26EA4
:100F3000D4C2E6FF190EC925006E000ECA21016E4B
:100F4000C30E0024E16E000E0120E26ED5C2E6FF62
:100F5000CB51C52505017E6F0201CC51C62105018B
:100F60007F6F000E0201C7210501806F000E020194
:100F7000C8210501816FC30E826F000E836F1FECC5
:060F800001F0B4DC1200D8
:100F8600E7C205F0E8C206F0000E076E086E05C05F
:100F960000F006C001F007C002F008C003F00036FA
:100FA600009001360236033600C078F501C079F5A7
:100FB60002C07AF503C07BF5DDC204F0DEC205F09F
:100FC600000E066E076E9BEC02F000C0E1F201C057
:100FD600E2F2DDC204F0DEC205F0000E066E076E18
:100FE60078C500F079C501F07AC502F07BC503F03B
:100FF6009BEC02F008C000F009C001F00AC002F044
:0E1006000BC003F000C0DFF201C0E0F21200E8
:101014000201E15103010D2505017E6F0201E25138
:1010240003010E2105017F6F000E03010F2105014D
:10103400806F000E030110210501816FC30E826FC2
:10104400000E836F9BEC00F0C30E0201DF25E96EF6
:10105400000EE021EA6EEECF62F5010EDF25006E90
:10106400000EE021016EC30E0024E96E000E012083
:10107400EA6EEECF63F505016351FF0A02E1FF0E4C
:1010840062192BE0D6C204F0D7C205F062C500F0A5
:1010940063C501F067DC00C0E1F201C0E2F2D6C230
:1010A40004F0D7C205F062C500F063C501F05ADC54
:1010B40008C000F009C001F000C0DFF201C0E0F296
:1010C40000C0DFF201C0E0F20201DF37DF91E03758
:0C10D40062C5E7F263C5E8F207DC120019
:1010E000086A080E0C6E003408360450085ED8B04A
:0E10F00002D00826D89000360C2EF5D712003C
:1010FE000B1E0A1E091E081E082AD8B4092AD8B4C7
:08110E000A2AD8B40B2A1200D2
:101116000501636B646B270E645D02E1100E635D6F
:10112600D8B0AAD0000E000A02E1000E621918E13A
:1011360030EC00F0010E8C6F8D6B8E6B8F6B906BAD
:10114600FF0E916F32EC00F000C065F523EC00F065
:1011560005016551000A03E1316A006A120089D06F
:1011660030EC00F0370E8C6F8D6B8E6B8F6B906B47
:10117600FF0E916F32EC00F000C065F523EC00F035
:1011860005016551010AD8A473D030EC00F0290E90
:101196008C6F000E8D6F000E8E6F000E8F6F400EDF
:1011A600906FFF0E916F32EC00F000C065F523ECF6
:1011B60000F005016551000A5AE1000E000A02E13D
:1011C600020E621950E130EC00F03A0E8C6F8D6B16
:1011D6008E6B8F6B906BFF0E916F32EC00F000C040
:1011E60065F5E5C2E1FFE6C2E2FFFF0EE66EE3C289
:1011F60000F0E4C201F017EC00F000C066F5E5C2AD
:10120600E1FFE6C2E2FFFF0EE66EE3C200F0E4C2D3
:1012160001F017EC00F0E5C2E1FFE6C2E2FFFF0EC7
:10122600E66EE3C200F0E4C201F017EC00F0E5C29E
:10123600E1FFE6C2E2FFFF0EE66EE3C200F0E4C2A3
:1012460001F017EC00F023EC00F005016551000AEF
:1012560009E166AD03D0040E316E02D0030E316E85
:10126600006A120004D0010E316E006A120001D02D
:0E12760003D0634B642B4FD7010E006E1200A5
:101284000501656B62C5E9FF63C5EAFFEECF64F54E
:101294006451000A0FE064C578F5CFEC04F0050151
:1012A400652B65516225E96E000E6321EA6EEECF6F
:0612B40064F5EED7120004
:1012BA00E1C21BF3E2C21CF3DFC215F3E0C216F36C
:1012CA0034EC02F011EC04F05EEC04F003011B5163
:1012DA000D2505017E6F03011C510E2105017F6F4B
:1012EA00000E03010F210501806F000E030110217A
:1012FA000501816FC30E826F000E836F9BEC00F0B5
:10130A00C30E03011525E16E000E1621E26EE7C237
:10131A00E6FF010E1525006E000E1621016EC30EA2
:10132A000024E16E000E0120E26EE8C2E6FF1B51C6
:10133A000D2505017E6F03011C510E2105017F6FEA
:10134A00000E03010F210501806F000E0301102119
:10135A000501816FC30E826F000E836F1FEC01F0CF
:10136A0003011B511D2505017E6F03011C511E211E
:10137A0005017F6F000E03011F210501806F000E1A
:10138A00030120210501816FC30E826F000E836F56
:0A139A001FEC01F076EC04F01200E5
:1013A4000501686B696B000E695D02E10A0E685DF8
:1013B4000BE268516625E16E69516721E26E200EE9
:1013C400E66E684B692BEFD768516625E16E69516B
:1013D4006721E26EE66A010E685F000E695B685180
:1013E40066256A6F695167216B6F0A0E046E000EE1
:1013F400056E066E076E62C500F063C501F064C534
:1014040002F065C503F09BEC02F008C000F009C0CF
:1014140001F00AC002F00BC003F0300E00266AC5CA
:10142400E1FF6BC5E2FF00C0E6FF0A0E046E000E8A
:10143400056E066E076E62C500F063C501F064C5F3
:1014440002F065C503F09BEC02F000C062F501C038
:1014540063F502C064F503C065F5000E046E03185D
:1014640008E10450021805E10450011802E100509B
:10147400000A01E105D0010E685F000E695BAFD779
:02148400120054
:101486000501746B756B74516225E96E000E63215C
:10149600EA6EEE50000A42E074516225E96E000ED3
:1014A6006321EA6EEE502E0A02E174C575F5745199
:1014B6006225E96E000E6321EA6EEECF78F5A8ECA0
:1014C60004F0005219E0680E766F050E776F7451BE
:1014D6007627D8B0772B74516225E96E000E63210A
:1014E600EA6EEECF78F59DEC04F076C5E1FF77C5A0
:1014F600E2FF00C0E6FF10D0680EE16E050EE26E58
:101506007451E126D8B0E22A74516225E96E000EC4
:101516006321EA6EEECFE6FF742BB5D7680EE16E57
:10152600050EE26E7451E126D8B0E22AE66A7553DA
:1015360054E075C574F5030E7525016E026A000E3A
:101546000222800E006E800E0218005C02E101503D
:10155600745D43E27451010F006E016A000E0122B0
:10156600680E0024E96E050E0120EA6EEE50000AB0
:101576001CE1020E7525016E026A000E0222800E23
:101586000218006E800E005C02E17451015C0CE3EF
:10159600680EE16E050EE26E7451E126D8B0E22ABD
:1015A600200EE66E742BE5D718D0680EE16E050E98
:1015B600E26E7451E126D8B0E22A7451010F006E32
:1015C600016A000E0122680E0024E96E050E012054
:1015D600EA6EEECFE6FF742BAED774070A0E745D83
:1015E6002FE2680EE96E050EEA6E7451E926D8B050
:1015F600EA2AEECF72F57407680EE96E050EEA6EFA
:101606007451E926D8B0EA2AEECF71F57407680E50
:10161600E96E050EEA6E7451E926D8B0EA2AEECFD5
:1016260070F5745107080CE3680EE16E050EE26E64
:101636007451E126D8B0E22A200EE66E742BF1D75B
:10164600736B0201C96BCA6BCB6BCC6BC5C27EF5E3
:10165600C6C27FF5C7C280F5C8C281F5C30E0501B3
:10166600826F000E836F9BEC00F00501656B666B65
:10167600756B0201CA51DE1902E1DD51C9191DE17E
:10168600C96BCA6BCB4BCC2BCB51C52505017E6FE5
:101696000201CC51C62105017F6F000E0201C72150
:1016A6000501806F000E0201C8210501816FC30E7E
:1016B600826F000E836F9BEC00F00501756B746BF7
:1016C60074510A081CE374510201C925006E000E0C
:1016D600CA21016EC30E0024E96E000E0120EA6ED7
:1016E600680ED96E050EDA6E05017451D926D8B08A
:1016F600DA2AEE50DE18D8B4752B742BE1D7654B79
:10170600662BC30E0201C925E96E000ECA21EA6ED8
:10171600EECF67F5200EC927000ECA2305017551C5
:101726000B0A11E066510301121903E1115105017B
:10173600651903E105011E0E756F05016751000A63
:1017460002E1190E756F75510A0893E2140E755D64
:10175600D8B0D7D0200E0201C95D026E000ECA595C
:10176600036E02C0C9F203C0CAF21A0E0224006E4A
:10177600000E0320016EC30E0024E96E000E012048
:10178600EA6EEECFE7F21B0E0224006E000E032077
:10179600016EC30E0024E96E000E0120EA6EEECF44
:1017A600E8F276EC04F01C0E0201C925006E000E6C
:1017B600CA21016EC30E0024E96E000E0120EA6EF6
:1017C600EECF17F31D0EC925006E000ECA21016E5D
:1017D600C30E0024E96E000E0120EA6EEECF18F368
:1017E6001E0EC925006E000ECA21016EC30E00240E
:1017F600E96E000E0120EA6EEECF19F31F0EC92521
:10180600006E000ECA21016EC30E0024E96E000EA2
:101816000120EA6EEECF1AF3C3EC07F00E0EC925CF
:10182600006E000ECA21016EC30E0024E96E000E82
:101836000120EA6EEECFC3F20F0EC925006E000E30
:10184600CA21016EC30E0024E96E000E0120EA6E65
:10185600EECFC4F2100EC925006E000ECA21016E2D
:10186600C30E0024E96E000E0120EA6EEECFD4F21C
:10187600110EC925006E000ECA21016EC30E00248A
:10188600E96E000E0120EA6EEECFD5F2160EC925DE
:10189600006E000ECA21016EC30E0024E96E000E12
:1018A6000120EA6EEECFEFF2170EC925006E000E8C
:1018B600CA21016EC30E0024E96E000E0120EA6EF5
:1018C600EECFF0F2180EC925006E000ECA21016E89
:1018D600C30E0024E96E000E0120EA6EEECFF1F28F
:1018E600190EC925006E000ECA21016EC30E002412
:1018F600E96E000E0120EA6EEECFF2F2010E006EE6
:10190600120064AF0CD0680E786F050E796F7F0EEB
:1019160064157A6F40EC06F0010E006E1200006A44
:021926001200AD
:101928000201CB51C5250501626F0201CC51C621C8
:101938000501636F000E0201C7210501646F000EE7
:101948000201C8210501656F786BD6EC04F062C509
:101958007EF563C57FF564C580F565C581F5C30E61
:101968000501826F000E836F9BEC00F0C30E02012D
:10197800C925E16E000ECA21E26EE50EE66E62C56B
:101988007EF563C57FF564C580F565C581F5C30E31
:0E1998000501826F000E836F1FEC01F012003C
:1019A6000450085E0550D8A0053C095E0650D8A034
:1019B600063C0A5E0750D8A0073C0B5E0336070EAE
:1019C6000C6E0334083609360A360B36045003A06B
:1019D6000ED0085E0550D8A0053C095E0650D8A07A
:1019E600063C0A5E0750D8A0073C0B5E0DD00826C1
:1019F6000550D8B0053C09260650D8B0063C0A2644
:101A06000750D8B0073C0B2603360C2EDAD7023423
:101A1600083609360A360B36045003A00ED0085E87
:101A26000550D8A0053C095E0650D8A0063C0A5EC3
:101A36000750D8A0073C0B5E0DD008260550D8B03D
:101A4600053C09260650D8B0063C0A260750D8B0F1
:101A5600073C0B260236070E0C6E02340836093692
:101A66000A360B36045002A00ED0085E0550D8A0E8
:101A7600053C095E0650D8A0063C0A5E0750D8A071
:101A8600073C0B5E0DD008260550D8B0053C09264C
:101A96000650D8B0063C0A260750D8B0073C0B269D
:101AA60002360C2EDAD70134083609360A360B36DA
:101AB600045002A00ED0085E0550D8A0053C095E71
:101AC6000650D8A0063C0A5E0750D8A0073C0B5E1D
:101AD6000DD008260550D8B0053C09260650D8B0CA
:101AE600063C0A260750D8B0073C0B260136070EDF
:101AF6000C6E0134083609360A360B36045001A03E
:101B06000ED0085E0550D8A0053C095E0650D8A048
:101B1600063C0A5E0750D8A0073C0B5E0DD008268F
:101B26000550D8B0053C09260650D8B0063C0A2612
:101B36000750D8B0073C0B2601360C2EDAD70034F6
:101B4600083609360A360B36045001A00ED0085E58
:101B56000550D8A0053C095E0650D8A0063C0A5E92
:101B66000750D8A0073C0B5E0DD008260550D8B00C
:101B7600053C09260650D8B0063C0A260750D8B0C0
:101B8600073C0B260036070E0C6E00340836093665
:101B96000A360B36045000A00ED0085E0550D8A0B9
:101BA600053C095E0650D8A0063C0A5E0750D8A040
:101BB600073C0B5E0DD008260550D8B0053C09261B
:101BC6000650D8B0063C0A260750D8B0073C0B266C
:101BD60000360C2EDAD700B00ED004500826055079
:101BE600D8B0053C09260650D8B0063C0A26075050
:081BF600D8B0073C0B261200D9
:101BFE000201C56BC66BC76BC86BCB6BCC6BC96B6D
:101C0E00CA6BE96BEA6BEB6BEC6BE76BE86B030192
:101C1E00216B226B236B246B176B186B196B1A6B72
:101C2E000D6B0E6B0F6B106B1D6B1E6B1F6B206B9A
:101C3E000201E16BE26B03011B6B1C6B0201DF6B9C
:101C4E00E06B0301156B166B0201DD6BDE6BD66B61
:101C5E00D76BCE6BCF6B0301136B146B116B126BC7
:101C6E00096B0A6B0B6B0C6B0201CD6BEE6BFF6B92
:101C7E00ED6BD06BD16BD26BD36BD46BD56BF16B31
:0C1C8E00F26BC36BC46BEF6BF06B1200C9
:101C9A000201E15103010D2505017E6F0201E251A6
:101CAA0003010E2105017F6F000E03010F210501BB
:101CBA00806F000E030110210501816FC30E826F30
:101CCA00000E836F9BEC00F0C30E0201DF25E96E64
:101CDA00000EE021EA6EEECF3BF5000E05013C6FE7
:101CEA003D6F3E6F000E3C6F3D6F3E6F010E02016D
:101CFA00DF25006E000EE021016EC30E0024E96E9E
:101D0A00000E0120EA6EEECF3CF5000E006E0501D2
:101D1A003E1908E100503D1905E1FF0E3C1902E1A8
:101D2A003B51FF0A73E03BC500F03CC501F03DC5DD
:101D3A0002F03EC503F00036009001360236033643
:101D4A0000C03BF501C03CF502C03DF503C03EF5BD
:101D5A00DDC204F0DEC205F0000E066E076E9BECD3
:101D6A0002F000C0E1F201C0E2F2DDC204F0DEC21C
:101D7A0005F0000E066E076E3BC500F03CC501F08B
:101D8A003DC502F03EC503F09BEC02F008C000F02E
:101D9A0009C001F00AC002F00BC003F000C0DFF274
:101DAA0001C0E0F20201E15103010D2505017E6F38
:101DBA000201E25103010E2105017F6F000E0301AA
:101DCA000F210501806F000E030110210501816FAB
:101DDA00C30E826F000E836F9BEC00F0C30E0201EC
:101DEA00DF25E96E000EE021EA6EEECF3BF5010E2B
:101DFA00DF25006E000EE021016EC30E0024E96E9D
:101E0A00000E0120EA6EEECF3CF57FD75EEC04F0BF
:101E1A0076EC04F0CDC200F0000E016E026E036E85
:101E2A00DDC204F0DEC205F0000E066E076E0BEC92
:101E3A0002F000C004F001C005F002C006F003C0C1
:101E4A0007F017C300F018C301F019C302F01AC350
:101E5A0003F09BEC02F008C000F009C001F00AC0D0
:101E6A0002F00BC003F0DDC204F0DEC205F0000E82
:101E7A00066E076E9BEC02F000C0EEF200502127BE
:101E8A00000E222323232423DDC204F0DEC205F040
:101E9A00000E066E076E17C300F018C301F019C3CF
:101EAA0002F01AC303F09BEC02F008C000F009C06C
:101EBA0001F00AC002F00BC003F000C0E9F201C051
:0C1ECA00EAF202C0EBF203C0ECF21200DE
:101ED600050E316E949023EC00F005013B6B3C6BD4
:101EE600000E3C5D02E10A0E3B5D10E2E5C2E1FF39
:101EF600E6C2E2FFFF0EE66EE3C200F0E4C201F0C6
:101F060017EC00F005013B4B3C2BEAD730EC00F018
:101F16008C6B8D6B8E6B8F6B906B950E916F32EC1D
:101F260000F000C03DF523EC00F005013D51010A2B
:101F360003E0010E006E120030EC00F0080E8C6F0C
:101F4600AA0E8D6F010E8E6F000E8F6F906F870E2B
:101F5600916F32EC00F000C03DF5E5C2E1FFE6C24C
:101F6600E2FFFF0EE66EE3C200F0E4C201F017ECFA
:101F760000F0E5C2E1FFE6C2E2FFFF0EE66EE3C255
:101F860000F0E4C201F017EC00F0E5C2E1FFE6C2A2
:101F9600E2FFFF0EE66EE3C200F0E4C201F017ECCA
:101FA60000F0E5C2E1FFE6C2E2FFFF0EE66EE3C225
:101FB60000F0E4C201F017EC00F023EC00F005019C
:101FC6003D51010A0AE0010E626F8BEC08F00052E7
:101FD60003E0626B8BEC08F004D0020E626F8BECB0
:101FE60008F0000E000A02E1050E311803E1020EA8
:101FF600006E1200000E000A02E1040E31181AE00B
:1020060030EC00F0100E8C6F000E8D6F020E8E6F8E
:10201600000E8F6F906FFF0E916F32EC00F000C0D4
:102026003DF523EC00F005013D51000A03E0030EE7
:08203600006E1200006A1200A6
:10203E000450000A12E10550000A0FE10650000A92
:10204E000CE10750000A09E1FF0E006EFF0E016E53
:10205E00FF0E026E7F0E036E12000C6A07BE0C2A74
:10206E000D6A0B6A0A6A096A086A035002100110A7
:10207E000010D8B484D0035007180E6E0EBE0D1E7D
:10208E0007AE0BD0041E051E061E071E042AD8B46A
:10209E00052AD8B4062AD8B4072A03AE0BD0001EE0
:1020AE00011E021E031E002AD8B4012AD8B4022A29
:1020BE00D8B4032A035007100E6E0EBE1CD06CDC73
:1020CE000CBE36D00DAE5BD0001E011E021E031ECE
:1020DE00002AD8B4012AD8B4022AD8B4032A081E7A
:1020EE00091E0A1E0B1E082AD8B4092AD8B40A2AB9
:1020FE00D8B40B2A44D007AE15D003BE0DD0035072
:10210E000B6E02500A6E0150096E0050086E036A83
:10211E00026A016A006AD6D7036A026A016A006A15
:10212E00002A000C031E021E011E001E0C8EC7D7B5
:10213E00082AD8B4092AD8B40A2AD8B40B2A0450CB
:10214E00085CD8A4BFD70550095CD8A4BBD70650ED
:10215E000A5CD8A4B7D707500B5CD8A4B3D70B6AC8
:10216E000A6A096A086A002AD8B4012AD8B4022A6F
:10217E00D8B4032A03AEA6D70E6A0E88FF0C0E6AD9
:0C218E000CA002D07FEC08F0000F120043
:10219A0005015B6B5C6B5D6B5E6B5F6BCDC204F0C4
:1021AA00000E056E066E076E3BC500F03CC501F0D9
:1021BA003DC502F03EC503F09BEC02F000C042F5BB
:1021CA0001C043F53BC500F03CC501F03DC502F036
:1021DA003EC503F0DDC204F0DEC205F0000E066E55
:1021EA00076E0BEC02F000C044F501C045F502C0D1
:1021FA0046F503C047F55F513F25E96E000E4021C1
:10220A00EA6EEE50000A44E05F513F25E96E000E87
:10221A004021EA6EEE502E0A04E15FC55BF5000E1E
:10222A005C6F5F513F25E96E000E4021EA6EEECFEA
:10223A0078F5A8EC04F0005219E04B0E606F050E19
:10224A00616F5F516027D8B0612B5F513F25E96EFE
:10225A00000E4021EA6EEECF78F59DEC04F060C5E1
:10226A00E1FF61C5E2FF00C0E6FF10D04B0EE16E50
:10227A00050EE26E5F51E126D8B0E22A5F513F2592
:10228A00E96E000E4021EA6EEECFE6FF5F2BB3D770
:10229A004B0EE16E050EE26E5F51E126D8B0E22ADE
:1022AA00E66A5B515C1150E05BC55FF5030E5B2586
:1022BA00016E000E5C21026E000E006E0250005C80
:1022CA0002E101505F5D40E25F51010F006E016A59
:1022DA00000E01224B0E0024E96E050E0120EA6E63
:1022EA00EE50000A19E1020E5B25016E000E5C2118
:1022FA00026E000E025C02E15F51015C0CE34B0EC0
:10230A00E16E050EE26E5F51E126D8B0E22A200E98
:10231A00E66E5F2BE8D718D04B0EE16E050EE26E23
:10232A005F51E126D8B0E22A5F51010F006E016ABF
:10233A00000E01224B0E0024E96E050E0120EA6E02
:10234A00EECFE6FF5F2BB2D75F070A0E5F5D2FE283
:10235A004B0EE96E050EEA6E5F51E926D8B0EA2AFD
:10236A00EECF55F55F074B0EE96E050EEA6E5F512B
:10237A00E926D8B0EA2AEECF54F55F074B0EE96E8C
:10238A00050EEA6E5F51E926D8B0EA2AEECF53F578
:10239A005F5107080CE34B0EE16E050EE26E5F51CA
:1023AA00E126D8B0E22A200EE66E5F2BF1D7566BF3
:1023BA00CDC204F0000E056E066E076E3BC500F036
:1023CA003CC501F03DC502F03EC503F09BEC02F0AE
:1023DA0008C000F009C001F00AC002F00BC003F007
:1023EA00005001100210031002E0424B432B42C579
:1023FA005BF543C55CF534EC02F0E1C200F0E2C2E1
:10240A0001F0D6C204F0D7C205F0E3EC01F0DFC256
:10241A0002F0E0C203F003320232039E02500024AB
:10242A0005015D6F035001205E6FE1C21BF3E2C23A
:10243A001CF3DFC215F3E0C216F35B515C11D8B48A
:10244A0074D0030114510201E25D04E10301135146
:10245A000201E15D6AE2DE51E05D02E1DD51DF5D2C
:10246A001FE3DF6BE06BE14BE22BE15103010D252A
:10247A0005017E6F0201E25103010E2105017F6F02
:10248A00000E03010F210501806F000E03011021C8
:10249A000501816FC30E826F000E836F9BEC00F003
:1024AA00C30E0201DF25E96E000EE021EA6EEECFCF
:1024BA0048F5DF4BE02BC30EDF25E96E000EE02165
:1024CA00EA6EEECF49F5DF4BE02B000E0501491904
:1024DA0002E1000E481905E1010E5B5F000E5C5B2C
:1024EA0023D042C55BF543C55CF5E1C200F0E2C208
:1024FA0001F0D6C204F0D7C205F0E3EC01F0DFC266
:10250A0002F0E0C203F003320232039E02500024BA
:10251A005D6F035001205E6FE1C21BF3E2C21CF340
:10252A00DFC215F3E0C216F388D705015B515C11CF
:10253A00D8A453D242C55BF543C55CF51BC3E1F28F
:10254A001CC3E2F215C3DFF216C3E0F203011B510A
:10255A000D2505017E6F03011C510E2105017F6FB8
:10256A00000E03010F210501806F000E03011021E7
:10257A000501816FC30E826F000E836F9BEC00F022
:10258A00010E05015B5F000E5C5B5B515C1175E03F
:10259A005D4B5E2BC30E0201DF25E16E000EE021CA
:1025AA00E26E5DC5E6FFDF4BE02BC30EDF25E16E71
:1025BA00000EE021E26E5EC5E6FFDF4BE02BDE5146
:1025CA00E05D02E1DD51DF5D57E3E15103010D25D5
:1025DA0005017E6F0201E25103010E2105017F6FA1
:1025EA00000E03010F210501806F000E0301102167
:1025FA000501816FC30E826F000E836F1FEC01F01D
:10260A000201E15103011D2505017E6F0201E2511C
:10261A0003011E2105017F6F000E03011F21050121
:10262A00806F000E030120210501816FC30E826FA6
:10263A00000E836F1FEC01F00201DF6BE06BE14BD0
:10264A00E22BE15103010D2505017E6F0201E251E2
:10265A0003010E2105017F6F000E03010F21050101
:10266A00806F000E030110210501816FC30E826F76
:10267A00000E836F9BEC00F083D7C30E0201DF25A7
:10268A00E16E000EE021E26EFF0EE66EDF4BE02BFC
:10269A00C30EDF25E16E000EE021E26EFF0EE66E4C
:1026AA00E15103010D2505017E6F0201E25103018B
:1026BA000E2105017F6F000E03010F210501806FB6
:1026CA00000E030110210501816FC30E826F000EF7
:1026DA00836F1FEC01F00201E15103011D25050181
:1026EA007E6F0201E25103011E2105017F6F000E78
:1026FA0003011F210501806F000E0301202105013E
:10270A00816FC30E826F000E836F1FEC01F04B0EB8
:10271A000501626F050E636F646B43EC0AF00052A9
:10272A0012E01BC357F51CC358F515C359F516C358
:10273A005AF594EC0CF057C51BF358C51CF359C550
:10274A0015F35AC516F30201C96BCA6BCB6BCC6B76
:10275A00C5C27EF5C6C27FF5C7C280F5C8C281F57B
:10276A00C30E0501826F000E836F9BEC00F005011A
:10277A004A6B0201CA51DE1902E1DD51C9191DE194
:10278A00C96BCA6BCB4BCC2BCB51C52505017E6FD0
:10279A000201CC51C62105017F6F000E0201C7213B
:1027AA000501806F000E0201C8210501816FC30E69
:1027BA00826F000E836F9BEC00F0C30E0201C925E5
:1027CA00E96E000ECA21EA6EEE50E50A0AE0C30E6F
:1027DA00C925E96E000ECA21EA6EEE50000A01E030
:1027EA0003D0010E05014A6F200E0201C927000E0F
:1027FA00CA2305014A53BDE04A51010AD8A4D1D0DF
:10280A00200E0201C95F000ECA5B05015F6B5F51B2
:10281A000A081AE35F510201C925006E000ECA2197
:10282A00016EC30E0024E16E000E0120E26E4B0E13
:10283A00E96E050EEA6E05015F51E926D8B0EA2A6B
:10284A00EECFE6FF5F2BE3D70B0E0201C925006E20
:10285A00000ECA21016EC30E0024E16E000E012093
:10286A00E26E41C5E6FF1C0EC925006E000ECA21A4
:10287A00016EC30E0024E16E000E0120E26E44C513
:10288A00E6FF1D0EC925006E000ECA21016EC30E99
:10289A000024E16E000E0120E26E45C5E6FF1E0E21
:1028AA00C925006E000ECA21016EC30E0024E16E16
:1028BA00000E0120E26E46C5E6FF1F0EC925006E16
:1028CA00000ECA21016EC30E0024E16E000E012023
:1028DA00E26E47C5E6FF1BC300F01CC301F0D6C277
:1028EA0004F0D7C205F0E3EC01F015C302F016C3F9
:1028FA0003F003320232039E0250002405015D6F89
:10290A00035001205E6F1A0E0201C925006E000EE7
:10291A00CA21016EC30E0024E16E000E0120E26E90
:10292A005DC5E6FF1B0EC925006E000ECA21016EA9
:10293A00C30E0024E16E000E0120E26E5EC5E6FFC2
:10294A000D0E05015F6F5F51190811E35F51020116
:10295A00C925006E000ECA21016EC30E0024E16E65
:10296A00000E0120E26EE66A05015F2BECD7020138
:10297A00CB51C52505017E6F0201CC51C621050147
:10298A007F6F000E0201C7210501806F000E020150
:10299A00C8210501816FC30E826F000E836F1FEC81
:1029AA0001F0020E05015D5D046E000E5E59056EB2
:1029BA00CDC200F0000E016E026E036E000E066EAE
:1029CA00076E0BEC02F00301095100260A5101229D
:1029DA000B5102220C5103221200006A016A026A98
:0429EA00036A12006A
:1029EE00BC0E05013B5F070E3C5B7F0E3B17000ED6
:1029FE003C170F0E3D15006E00C03DF5005202E172
:102A0E00010E3D6F3E511F0804E3010E3E5D01E3D2
:102A1E0002D0010E3E6F3F511708D8A03F6B4051B8
:102A2E003B08D8A0406B41513B08D8A0416B41C533
:102A3E0005F00532059E05C041F5090E006E3BC539
:102A4E00D4F23CC5D5F2005006E00201D437D49141
:102A5E00D537FF0FF9D73DC503F0000E046E050EF6
:102A6E00026E03C000F004C001F0025005E0003613
:102A7E0000900136FF0FFAD702010050D413015017
:102A8E00D51305013E510201D413000ED5133FC5D7
:102A9E00C3F2000EC46F0B0E006E005005E0C3377C
:102AAE00C391C437FF0FFAD740C503F0000E046E72
:102ABE00050E026E03C000F004C001F0025005E0E6
:102ACE00003600900136FF0FFAD702010050C313F3
:0E2ADE000150C4130550C313000EC4131200A0
:102AEC0021C37EF522C37FF523C380F524C381F572
:102AFC00C30E0501826F000E836F9BEC00F0050185
:102B0C003F6B406B3E51405D02E13D513F5D59E2F0
:102B1C00C30E0201E925E16E000EEA21E26E050109
:102B2C003F513B25E96E40513C21EA6EEECFE6FF6A
:102B3C00010E0201E927000EEA23EB23EC23000E21
:102B4C00006EEC1908E10050EB1905E1DE51EA19B1
:102B5C0002E1E951DD1931E121C37EF522C37FF594
:102B6C0023C380F524C381F5C30E0501826F000ECB
:102B7C00836F1FEC01F0010E03012127000E2223AD
:102B8C00232324230201E96BEA6BEB6BEC6BEE2B3A
:102B9C00EE51CD1903E1EE6B5DEC09F021C37EF52E
:102BAC0022C37FF523C380F524C381F5C30E050131
:102BBC00826F000E836F9BEC00F005013F4B402BA6
:102BCC00A1D721C37EF522C37FF523C380F524C38F
:102BDC0081F5C30E826F000E836F1FEC01F00501AF
:102BEC003F51030117270501405103011823000E23
:102BFC0019231A230201CB51C52505017E6F020151
:102C0C00CC51C62105017F6F000E0201C7210501C1
:102C1C00806F000E0201C8210501816FC30E826F07
:102C2C00000E836F9BEC00F0120E0201C925006EA2
:102C3C00000ECA21016EC30E0024E16E000E0120AD
:102C4C00E26ED4C2E6FF130EC925006E000ECA2137
:102C5C00016EC30E0024E16E000E0120E26ED5C29F
:102C6C00E6FF140EC925006E000ECA21016EC30EBC
:102C7C000024E16E000E0120E26EE66A150EC925F5
:102C8C00006E000ECA21016EC30E0024E16E000E10
:102C9C000120E26EE66A160EC925006E000ECA21EE
:102CAC00016EC30E0024E16E000E0120E26EC3C261
:102CBC00E6FF170EC925006E000ECA21016EC30E69
:102CCC000024E16E000E0120E26EC4C2E6FF180E75
:102CDC00C925006E000ECA21016EC30E0024E16EE0
:102CEC00000E0120E26ED4C2E6FF190EC925006E5B
:102CFC00000ECA21016EC30E0024E16E000E0120ED
:102D0C00E26ED5C2E6FF1C0EC925006E000ECA216C
:102D1C00016EC30E0024E16E000E0120E26E17C39B
:102D2C00E6FF1D0EC925006E000ECA21016EC30EF2
:102D3C000024E16E000E0120E26E18C3E6FF1E0EA9
:102D4C00C925006E000ECA21016EC30E0024E16E6F
:102D5C00000E0120E26E19C3E6FF1F0EC925006E9E
:102D6C00000ECA21016EC30E0024E16E000E01207C
:102D7C00E26E1AC3E6FFCB51C52505017E6F020139
:102D8C00CC51C62105017F6F000E0201C721050140
:102D9C00806F000E0201C8210501816FC30E826F86
:0A2DAC00000E836F1FEC01F012000F
:102DB600FF0E0501786FD6EC04F00201E96BEA6BB1
:102DC600EB6BEC6B0301176B186B196B1A6B02013B
:102DD600EE6B5EEC04F076EC04F00201CB51C525F7
:102DE60005017E6F0201CC51C62105017F6F000EE1
:102DF6000201C7210501806F000E0201C8210501ED
:102E0600816FC30E826F000E836F9BEC00F01C0E69
:102E16000201C925006E000ECA21016EC30E0024F0
:102E2600E16E000E0120E26EE66A1D0EC925006EF7
:102E3600000ECA21016EC30E0024E16E000E0120B1
:102E4600E26EE66A1E0EC925006E000ECA21016EEC
:102E5600C30E0024E16E000E0120E26EE66A1F0E2C
:102E6600C925006E000ECA21016EC30E0024E16E54
:102E7600000E0120E26EE66ACB51C52505017E6F84
:102E86000201CC51C62105017F6F000E0201C72148
:102E96000501806F000E0201C8210501816FC30E76
:0C2EA600826F000E836F1FEC01F0120021
:102EB2000201E96BEA6BEB6BEC6B3BC5E1FF3CC5D6
:102EC200E2FF17C3E6FF18C3E6FF19C3E6FF1AC302
:102ED200E6FFEE6B21C37EF522C37FF523C380F5A7
:102EE20024C381F5C30E0501826F000E836F9BEC34
:042EF20000F01200DA
:102EF60005013E6B030E3E5D0AE23E513C25E16E46
:102F0600000E3D21E26E200EE66E3E2BF3D73E51BB
:102F16003C25E16E000E3D21E26EE66A3E073E511B
:102F26003C253F6F000E3D21406F0A0E046E3BC5E7
:102F360000F070EC08F008C000F0300E00263FC527
:102F4600E1FF40C5E2FF00C0E6FF0A0E046E3BC586
:102F560000F070EC08F000C03BF50050000A01E1FB
:082F660002D03E07DCD7120087
:102F6E0005013F6B050E3F5D0AE23F513D25E16EC7
:102F7E00000E3E21E26E200EE66E3F2BF3D73F5140
:102F8E003D25E16E000E3E21E26EE66A3F073F519F
:102F9E003D25406F000E3E21416F0A0E046E000E5D
:102FAE00056E3BC500F03CC501F0B4EC04F008C062
:102FBE0000F009C001F0300E002640C5E1FF41C50A
:102FCE00E2FF00C0E6FF0A0E046E000E056E3BC562
:102FDE0000F03CC501F0B4EC04F000C03BF501C0BC
:102FEE003CF5000E011802E1000E001801E102D0BE
:062FFE003F07CDD71200D1
:10300400E00E0201C315036EC451070B046E050ED6
:10301400026E03C000F004C001F0025005E001326A
:103024000032019EFF0FFAD743C5E1FF44C5E2FF1A
:1030340000C0E6FF000EC315036EC451F80B046E06
:103044000B0E026E03C000F004C001F0025005E054
:1030540001320032019EFF0FFAD741C5E1FF42C59C
:10306400E2FF00C0E6FF1F0ED415006ED5C201F0CA
:10307400000E01163FC5E1FF40C5E2FF00C0E6FFB8
:10308400E00ED415036ED551010B046E050E026ECD
:1030940003C000F004C001F0025005E00132003228
:1030A400019EFF0FFAD73DC5E1FF3EC5E2FF00C018
:1030B400E6FF000ED415036ED551FE0B046E090E07
:1030C400026E03C000F004C001F0025005E00132BA
:1030D4000032019EFF0FFAD73BC5E1FF3CC5E2FF7A
:0E30E400BC0E0024E66E070E0120E66E120000
:1030F2000501436B446B3BC545F53CC546F53DC5F3
:1031020047F53EC548F5800E3E19006E800E005C04
:1031120008E1000E3D5D05E1000E3C5D02E1000E9E
:103122003B5D10E2010E436F000E446F456B466B30
:10313200476B486B3B51455F3C51465B3D51475B9A
:103142003E51485B45C562F546C563F547C564F522
:1031520048C565F53FC566F540C567F5D2EC09F08F
:103162000B0E416F000E426F000E006E4251005C6A
:1031720002E14151000819E241513F25E16E4251FD
:103182004021E26E010E415D006E000E4259016E59
:1031920000503F25E96E01504021EA6EEECFE6FF76
:1031A200010E415F000E425BDFD73FC5E1FF40C524
:1031B200E2FF200EE66E435144111AE0416B426B6E
:1031C20041513F25E96E42514021EA6EEE50200AFC
:1031D20003E1414B422BF4D7010E415F000E425BEB
:1031E20041513F25E16E42514021E26E2D0EE66EC5
:0231F2001200C9
:1031F40017C300F018C301F019C302F01AC303F097
:023204001200B6
:10320600E00E0201EF15036EF051070B046E050E7A
:10321600026E03C000F004C001F0025005E0013266
:103226000032019EFF0FFAD743C5E1FF44C5E2FF16
:1032360000C0E6FF000EEF15036EF051F80B046EAA
:103246000B0E026E03C000F004C001F0025005E050
:1032560001320032019EFF0FFAD741C5E1FF42C598
:10326600E2FF00C0E6FF1F0EF115006EF2C201F08C
:10327600000E01163FC5E1FF40C5E2FF00C0E6FFB4
:10328600E00EF115036EF251010B046E050E026E8F
:1032960003C000F004C001F0025005E00132003224
:1032A600019EFF0FFAD73DC5E1FF3EC5E2FF00C014
:1032B600E6FF000EF115036EF251FE0B046E090EC9
:1032C600026E03C000F004C001F0025005E00132B6
:1032D6000032019EFF0FFAD73BC5E1FF3CC5E2FF76
:0E32E600BC0E0024E66E070E0120E66E1200FC
:1032F4003BC562F53CC563F542EC09F00D0E786FF1
:10330400CFEC04F00A0E0501786FCFEC04F0120044
:10331400C30E0201E925E96E000EEA21EA6E3BC5FF
:10332400E1FF3CC5E2FFEECFE6FF010EE927000E08
:10333400EA23EB23EC23000E006EEC1908E10050A5
:10334400EB1905E1DE51EA1902E1E951DD1922E147
:10335400010E03012127000E22232323242302012B
:10336400E96BEA6BEB6BEC6BEE2BEE51CD1903E1E1
:10337400EE6B0AEC08F021C37EF522C37FF523C36C
:1033840080F524C381F5C30E0501826F000E836F9F
:063394009BEC00F01200AA
:10339A001C0E0201E36F000EE46F950EE56F050E39
:1033AA00E66FFF0E0301016FFF0E026FFF0E036F40
:1033BA00FF0E046F949A05012951040A02E19486CA
:1033CA0001D094969488C66A2951C6122B51C61206
:1033DA002A51C7122B5305E02C51000AD8B4C78CC6
:0C33EA0003D02C53D8A4C78CC68A120054
:1033F60005012D6B2E6B6BEC0FF02E2B005204E0AB
:10340600320E2E5D01E2F7D7320E2E5D03E3FF0E7C
:10341600006E1200FFEC0DF0D0C27EF5D1C27FF532
:10342600D2C280F5D3C281F5C30E0501826F000EAC
:10343600836F9BEC00F00201C151550AD8A467D0F6
:10344600C251AA0AD8A463D00001C351E90A09E00F
:10345600C351EB0A04E1C551900A01E102D0006AAA
:1034660002D0010E006E00524FE102018D5307E1BA
:103476008E5305E18F5303E1905301E109D089C2D0
:10348600D0F28AC2D1F28BC2D2F28CC2D3F239D038
:103496009D5307E19E5305E19F5303E1A05301E1CC
:1034A60009D099C2D0F29AC2D1F29BC2D2F29CC282
:1034B600D3F227D0AD5307E1AE5305E1AF5303E195
:1034C600B05301E109D0A9C2D0F2AAC2D1F2ABC26F
:1034D600D2F2ACC2D3F215D0BD5307E1BE5305E11B
:1034E600BF5303E1C05301E109D0B9C2D0F2BAC259
:1034F600D1F2BBC2D2F2BCC2D3F203D0010E006E2F
:10350600120005012D6B03D00501010E2D6F05017B
:103516002E6B05012D5329E1D0C27EF5D1C27FF570
:10352600D2C280F5D3C281F5C30E826F000E836FBF
:103536009BEC00F00201C151550A07E1C251AA0AEB
:1035460004E1010E05012D6F10D005012E51400A30
:1035560003E1010E006E12002E2B010E0201D02790
:10356600000ED123D223D323D4D7010E05012E6F0B
:103576002D51010AD8A414D1CFC0DEF20201DD6BB1
:103586000001CE510201DD13000EDE13D0C0CDF2D4
:10359600D2C0CFF2CE6B0001D1510201CE13000E84
:1035A600CF13D3C0FFF2DAC001F0006A0001D9518F
:1035B6000012000E011200C013F301C014F3D3C0B1
:1035C60004F0000E056EE3EC01F000500201D02578
:1035D600C56F0150D121C66F000ED221C76F000EF4
:1035E600D321C86FCE51C527CF51C623000EC7239E
:1035F600C823D5C001F0006A0001D4510012000EA4
:10360600011200C011F301C012F300C005F001C0A1
:1036160006F0000E076E086E050E046E05C000F07B
:1036260006C001F007C002F008C003F0045007E02E
:1036360000360090013602360336FF0FF8D7020136
:10364600DD510026DE510122000E02220322010E68
:10365600005E000E015A025A035ADDC204F0DEC2B1
:1036660005F0000E066E076E1FEC10F0005002010A
:10367600C5250301096F01500201C62103010A6F26
:1036860002500201C72103010B6F03500201C8213A
:1036960003010C6F0201CE51D025006ECF51D1210E
:1036A600016E000ED221026E000ED321036E00C001
:1036B6000DF301C00EF302C00FF303C010F30301B4
:1036C600135100241D6F145101201E6F000E02209D
:1036D6001F6F000E0320206FDDC2D6F2DEC2D7F2C6
:1036E6000201D733D633D79F0001D951DA11006EC4
:1036F60054E0D751D611006E05E0D6C029F5D7C0E3
:103706002AF508D0E3C029F5E4C02AF5E5C02BF573
:10371600E6C02CF529C500F02AC501F02BC502F03C
:103726002CC503F003010951005E0A51015A0B51E1
:10373600025A0C51035ACDC204F0000E056E066EF5
:10374600076E9BEC02F000C029F501C02AF502C005
:103756002BF503C02CF5000E035C08E1000E025C9D
:1037660005E10F0E015C02E1F50E005C04E2010EBC
:1037760005012E6F11D00501000E2C5D08E1000E2B
:103786002B5D05E1FF0E2A5D02E1F50E295D02E2E1
:103796002E6B02D0010E2E6F03D0010E006E1200AA
:0637A6002EC500F0120028
:1037AC000900F5CFE6FF0006FBE10106F9E1120086
:1037BC009E0E0301056F090E066F780E076F050E3E
:1037CC00086FFF0E0201FB6FFF0EFC6F000EFD6F0A
:1037DC00000EFE6FFF0EF36FFF0EF46F000EF56F11
:1037EC00000EF66FFF0EF76FFF0EF86F000EF96FFD
:1037FC00000EFA6FAC8A900EAB6E948E949C9EAABF
:0A380C0003D0AECF00F0FBD712008E
:10381600420E6E6E670E0501626F000E636F646B7B
:1038260043EC0AF0250E05013B6F030E3C6F59EC85
:1038360017F0010E0201D96F000EDA6FDB6FDC6F35
:10384600DC510301285D0EE10201DB510301275D16
:1038560009E10201DA510301265D04E10201D951B1
:103866000301255D12E3290E05013B6F050E3C6F32
:103876004EDD29C578F5CFEC04F0010E0201D927FB
:0C388600000EDA23DB23DC23DBD712006A
:10389200420E6E6E670E0501626F000E636F646BFF
:1038A20043EC0AF0DA0E05013B6F070E3C6F040E83
:1038B2003D6F130E3E6F090E3F6F140E406F416B4A
:1038C200F7EC14F04DEC0EF0150E05013B6F000EF7
:1038D2003C6F1B0E3D6F000E3E6F76EC15F0120032
:1038E200420E6E6E670E0501626F000E636F646BAF
:1038F20043EC0AF00052D8B4ECD0290E05013B6F1C
:10390200050E3C6F2B0E3D6F050E3E6F2C0E3F6F6A
:10391200050E406F2D0E416F050E426F2E0E436F46
:10392200050E446F02EC18F0890E0501626F000E5D
:10393200636F42EC09F029C53BF52AC53CF52F0E11
:103942003D6F050E3E6FB7EC17F02F0E626F050E3E
:10395200636F42EC09F02BC53BF52F0E3C6F050E51
:103962003D6F7BEC17F02F0E626F050E636F42EC1A
:1039720009F02CC53BF5000E3C6F2F0E3D6F050E76
:103982003E6FB7EC17F02F0E626F050E636F42ECBD
:1039920009F02DC53BF5000E3C6F2F0E3D6F050E55
:1039A2003E6FB7EC17F02F0E626F050E636F42EC9D
:1039B20009F02EC53BF5000E3C6F2F0E3D6F050E34
:1039C2003E6FB7EC17F02F0E626F050E636F42EC7D
:1039D20009F0290E3B6F050E3C6F2B0E3D6F050E55
:1039E2003E6F2C0E3F6F050E406F2D0E416F050E80
:1039F200426F2E0E436F050E446F04DC940E0501D8
:103A0200626F000E636F42EC09F029C53BF52AC5CF
:103A12003CF52F0E3D6F050E3E6FB7EC17F02F0EE3
:103A2200626F050E636F42EC09F02BC53BF52F0E5A
:103A32003C6F050E3D6F7BEC17F02F0E626F050E8B
:103A4200636F42EC09F02CC53BF5000E3C6F2F0E64
:103A52003D6F050E3E6FB7EC17F02F0E626F050E2D
:103A6200636F42EC09F02DC53BF5000E3C6F2F0E43
:103A72003D6F050E3E6FB7EC17F02F0E626F050E0D
:103A8200636F42EC09F02EC53BF5000E3C6F2F0E22
:103A92003D6F050E3E6FB7EC17F02F0E626F050EED
:103AA200636F42EC09F0FAEC18F000C03BF501C07C
:103AB2003CF502C03DF503C03EF52F0E3F6F050EEB
:103AC200406F79EC18F02F0E3B6F050E3C6F11DC46
:103AD20016D0550E0501786FCFEC04F0290E0B6E4F
:103AE200960E0C6E7F0E0D6E0D2EFED70C2EFCD791
:103AF2000B2EFAD7550E0501786FCFEC04F01200A9
:103B0200460E6E6E670E0501626F000E636F646B88
:0A3B120043EC0AF094EC0CF01200F2
:103B1C000501296B2A6B020E2A5D02E1000E295D5C
:103B2C000BE2290E2925E16E030E2A21E26E29C52E
:103B3C00E6FF294B2A2BEFD7880E3B6F130E3C6FF9
:103B4C00000E3D6F3E6FA00E3F6F000E406F200EBB
:103B5C00416FCDEC10F000C025F301C026F302C07C
:103B6C0027F303C028F300500110021003103CE0AF
:103B7C0025C33BF526C33CF527C33DF528C33EF5CD
:103B8C00750E05013F6F000E406F79EC18F0750E45
:103B9C003B6F000E3C6F7AEC19F00501296B2A6B18
:103BAC00130E2A5D02E1880E295D1EE225C37EF507
:103BBC0026C37FF527C380F528C381F5290E826FB4
:103BCC00030E836F1FEC01F0010E03012527000E7D
:103BDC002623272328232E0E0501786FCFEC04F023
:0A3BEC000501294B2A2BDCD712003B
:103BF600410E6E6EDA0E05013B6F070E3C6F040E2A
:103C06003D6F130E3E6F090E3F6F406B416BF7EC35
:103C160014F0670E0501626F000E636FA00E646FED
:103C260043EC0AF0DBEC16F0010E0301006F0051C5
:103C3600630827E32E0E0501786FCFEC04F00A0E19
:103C4600046E00C300F070EC08F0300E00243C6EE9
:103C56000A0E046E00C300F070EC08F008C000F015
:103C6600300E00243D6E3C0E05013B6F000E3C6F8E
:103C76002A0E3D6F000E3E6F76EC15F00301002B09
:043C8600D6D712007B
:103C8A00430E6E6E670E0501626F000E636F646B02
:103C9A0043EC0AF0DBEC16F0010E0301006F005151
:103CAA00370822E30A0E046E00C300F070EC08F035
:103CBA00300E00243C6E0A0E046E00C300F070EC55
:103CCA0008F008C000F0300E00243D6E3C0E0501DD
:103CDA003B6F000E3C6F2A0E3D6F000E3E6F76EC76
:0A3CEA0015F00301002BDBD71200D8
:103CF400420E0201D86FD8515A084BE3D8C278F566
:103D0400CFEC04F0D8C26EF0DA0E05013B6F070E5B
:103D14003C6F040E3D6F130E3E6F090E3F6F406BF8
:103D2400416BF7EC14F0670E0501626F000E636FD0
:103D3400A00E646F43EC0AF0DBEC16F0010E0301F5
:103D4400006F00512C0822E30A0E046E00C300F039
:103D540070EC08F0300E00243C6E0A0E046E00C3B2
:103D640000F070EC08F008C000F0300E00243D6E46
:103D74003C0E05013B6F000E3C6F2A0E3D6F000E9A
:103D84003E6F76EC15F00301002BDBD70201D82B34
:043D9400B2D7120090
:103D980071EC1FF00F0EC112070EB412670EAF6E52
:103DA800AC8408DD680E0C6EE40E0D6E0D2EFED789
:103DB8000C2EFCD70000B70E05013B6F000E3C6FC0
:103DC8007AEC19F0020E0501296F2A6B2B6B010E94
:103DD8002C6FCDEC19F0FBEC19F00050000A1EE135
:103DE8000501296B2A6B2B6B010E2C6FCDEC19F09A
:103DF800AB0E3B6F000E3C6F7AEC19F0F8DE76DF05
:103E080040DF43DD04DD79DE68DD84DE320E050146
:103E18003B6F000E3C6F7AEC19F007D0750E050168
:0C3E28003B6F000E3C6F7AEC19F0FFD7E6
:103EE20010EE15F0AE0E006E010E016E340EF66E7F
:0E3EF2003E0EF76E000EF86ED6EC1BF01200BE
:103E340020666F72206D696B726F456C656B74726E
:0C3E44006F6E696B6120323031300A0073
:013E50000071
:0A3E51005465737420456E642E0062
:103E5B005858204D4D432F53442046415431362062
:103E6B006C69627261727920627920416E746F6E37
:0B3E7B0020526965636B6572740A00D9
:0E3E86004D494B524F3030782E5458540000A6
:103E94004641543136206E6F7420666F756E64002F
:043EA400000000001A
:0B3EA80020637265617465643A2000BD
:0C3EB300206D6F6469666965643A200048
:0B3EBF006D696B726F452E7478740003
:0C3ECA00546573742053746172742E00F0
:0C3ED6005049432D537461727465640000
:020000040030CA
:0D000100061F1EFF8381FF0FC00FE00F40A0
:00000001FF
