:10000000F8EF1FF00000000000EF00F0000000001B
:0A0010000000000000000000F3D71C
:10001C0058C5C9FFC7B002D00000FCD7C9CF01F04A
:06002C0001C000F012000B
:10003200F250026EF29E0500FF6A0150FE6E005001
:08004200FD6E02BEF28E1200F9
:04004A008B90120085
:10004E00400E05014F25006E32C2E1FF33C2E2FFC2
:10005E0000C0E6FF30C200F031C201F0E3DF32C271
:10006E00E1FF33C2E2FF53C5E6FF30C200F031C2FA
:10007E0001F0D8DF32C2E1FF33C2E2FF52C5E6FF24
:10008E0030C200F031C201F0CDDF32C2E1FF33C227
:10009E00E2FF51C5E6FF30C200F031C201F0C2DF0F
:1000AE0032C2E1FF33C2E2FF50C5E6FF30C200F0BC
:1000BE0031C201F0B7DF32C2E1FF33C2E2FF54C5F5
:1000CE00E6FF30C200F031C201F0ACDF0501566B25
:1000DE00576B32C2E1FF33C2E2FFFF0EE66E30C253
:1000EE0000F031C201F09EDF00C055F50501564B00
:1000FE00572B800E5515006E0050000AFF0ED8A427
:10010E00000E016E000E575D02E1640E565D000E8C
:10011E00D8B0FF0E006E0150001201E1DAD755C5BE
:04012E0000F01200CB
:100132008B8032C2E1FF33C2E2FFFF0EE66E30C2B5
:0A01420000F031C201F074DF12007A
:10014C007EDF02012A51040A09E140C549F541C587
:10015C004AF542C54BF543C54CF514D0090E006E5B
:10016C0040C549F541C54AF542C54BF543C54CF56B
:10017C00005008E00501493749914A374B374C3755
:10018C00FF0FF7D70501110E4F6F49C550F54AC542
:10019C0051F54BC552F54CC553F5FF0E546F51DF5D
:1001AC000050000A05E0BFDF010E0501466F4DD07F
:1001BC0032C2E1FF33C2E2FFFF0EE66E30C200F046
:1001CC0031C201F030DF0050FE0A02E00000F0D72F
:1001DC000501476B486B475144254D6F48514521EC
:1001EC004E6F32C2E1FF33C2E2FFFF0EE66E30C249
:1001FC0000F031C201F017DF4DC5E1FF4EC5E2FF43
:10020C0000C0E6FF05014851010A02E1FF0E471943
:10021C0003E0474B482BDFD732C2E1FF33C2E2FF8A
:10022C00FF0EE66E30C200F031C201F0FCDE32C2CD
:10023C00E1FF33C2E2FFFF0EE66E30C200F031C2C6
:10024C0001F0F1DE70DF0501466B46C500F01200CF
:10025C00220E0C6E086A096A0A6A0B6A0C06D8B47C
:10026C001FD0D8900B320A320932083203320232D4
:10027C0001320032D8A0F2D70C06D8B409D0045001
:10028C0008260550092206500A2207500B22EAD7ED
:10029C00045008260550092206500A2207500B224A
:0202AC0012003E
:1002AE000B6A0A6A096A00500402F4CF09F0F3CF10
:1002BE0008F001500502F4CF0BF0F3CF0AF0005016
:1002CE000502F3500926F4500A22E86A0B22015067
:1002DE000402F3500926F4500A22E86A0B2208C0E1
:1002EE0000F009C001F00AC002F00BC003F01200CA
:1002FE00A5DE02012A51040A09E140C549F541C5AE
:10030E004AF542C54BF543C54CF514D0090E006EA7
:10031E0040C549F541C54AF542C54BF543C54CF5B7
:10032E00005008E00501493749914A374B374C37A1
:10033E00FF0FF7D70501180E4F6F49C550F54AC587
:10034E0051F54BC552F54CC553F5FF0E546F78DE83
:10035E000050000A05E0E6DE010E0501466F8ED064
:10036E0032C2E1FF33C2E2FFFF0EE66E30C200F092
:10037E0031C201F057DE32C2E1FF33C2E2FFFF0E9F
:10038E00E66E30C200F031C201F04CDE32C2E1FF47
:10039E0033C2E2FFFE0EE66E30C200F031C201F053
:1003AE0041DE0501476B486B47514425E96E4851C4
:1003BE004521EA6E32C2E1FF33C2E2FFEECFE6FF25
:1003CE0030C200F031C201F02DDE05014851010AA4
:1003DE0002E1FF0E471903E0474B482BE5D732C227
:1003EE00E1FF33C2E2FFFF0EE66E30C200F031C213
:1003FE0001F018DE32C2E1FF33C2E2FFFF0EE66EFD
:10040E0030C200F031C201F00DDE32C2E1FF33C264
:10041E00E2FFFF0EE66E30C200F031C201F002DEE6
:10042E0000C047F5000E0501486F1F0E4715016EFF
:10043E0048C502F0000E021601C047F502C048F58D
:10044E00000E021802E1050E011805E06BDE020E29
:10045E000501466F13D032C2E1FF33C2E2FFFF0E39
:10046E00E66E30C200F031C201F0DCDD0050FF0A52
:10047E0002E00000F0D756DE0501466B46C500F0DF
:02048E0012005A
:100490000B6A0A6A096A086A0E6A0334083604504D
:1004A000085E0550D8A0053C095E0650D8A0063C61
:1004B0000A5E0750D8A0073C0B5EE86AD8A0010E80
:1004C0000E5E0336070E0C6E0334083609360A3604
:1004D0000B360E36045003A012D0085E0550D8A08B
:1004E000053C095E0650D8A0063C0A5E0750D8A01D
:1004F000073C0B5EE86AD8A0010E0E5E11D00826FC
:100500000550D8B0053C09260650D8B0063C0A264E
:100510000750D8B0073C0B26E86AD8B0010E0E266B
:1005200003360C2ED1D70234083609360A360B367C
:100530000E36045003A012D0085E0550D8A0053C2A
:10054000095E0650D8A0063C0A5E0750D8A0073CBA
:100550000B5EE86AD8A0010E0E5E11D00826055089
:10056000D8B0053C09260650D8B0063C0A260750EC
:10057000D8B0073C0B26E86AD8B0010E0E2602362A
:10058000070E0C6E0234083609360A360B360E3664
:10059000045002A012D0085E0550D8A0053C095EA8
:1005A0000650D8A0063C0A5E0750D8A0073C0B5E58
:1005B000E86AD8A0010E0E5E11D008260550D8B00A
:1005C000053C09260650D8B0063C0A260750D8B08C
:1005D000073C0B26E86AD8B0010E0E2602360C2E18
:1005E000D1D70134083609360A360B360E36045098
:1005F00002A012D0085E0550D8A0053C095E065046
:10060000D8A0063C0A5E0750D8A0073C0B5EE86AFB
:10061000D8A0010E0E5E11D008260550D8B0053CBA
:1006200009260650D8B0063C0A260750D8B0073C29
:100630000B26E86AD8B0010E0E260136070E0C6EA6
:100640000134083609360A360B360E36045001A03E
:1006500012D0085E0550D8A0053C095E0650D8A00F
:10066000063C0A5E0750D8A0073C0B5EE86AD8A09B
:10067000010E0E5E11D008260550D8B0053C0926A3
:100680000650D8B0063C0A260750D8B0073C0B26C7
:10069000E86AD8B0010E0E2601360C2ED1D70034F0
:1006A000083609360A360B360E36045001A012D031
:1006B000085E0550D8A0053C095E0650D8A0063C4F
:1006C0000A5E0750D8A0073C0B5EE86AD8A0010E6E
:1006D0000E5E11D008260550D8B0053C09260650FC
:1006E000D8B0063C0A260750D8B0073C0B26E86A6B
:1006F000D8B0010E0E260036070E0C6E00340836F8
:1007000009360A360B360E36045000A012D0085EA9
:100710000550D8A0053C095E0650D8A0063C0A5EEC
:100720000750D8A0073C0B5EE86AD8A0010E0E5E09
:1007300011D008260550D8B0053C09260650D8B07F
:10074000063C0A260750D8B0073C0B26E86AD8B00A
:10075000010E0E2600360C2ED1D700B00ED004505C
:1007600008260550D8B0053C09260650D8B0063CEE
:0C0770000A260750D8B0073C0B261200E8
:10077C0005013F6B0201386B396B040E1B6E000ECA
:10078C001C6E34C240F535C241F536C242F537C253
:10079C0043F5290E0501446F000E456FD1DC3F5126
:1007AC00000A4DE11C50201802E11F501B181DE1DE
:1007BC001B6A1C6A0201384B392B38513425050150
:1007CC00406F0201395135210501416F000E0201C4
:1007DC0036210501426F000E020137210501436FDE
:1007EC00290E446F000E456FABDC290E1B24E96EFD
:1007FC00000E1C20EA6EEECF02F0010E1B24006EE0
:10080C00000E1C20016E290E0024E96E000E012042
:10081C00EA6E0250000AFF0ED8A4000E016EEE50D4
:10082C00000AFF0ED8A4000E006E0150001602E064
:10083C00010E3F6F020E1B26000E1C22B0D7020EBB
:08084C001B5E000E1C5A120095
:1008540015C004F016C005F0000E066E076E020EF9
:10086400045E000E055A065A075A04C024F005C057
:1008740025F006C026F007C027F021C000F0000EC6
:10088400016E026E036EE8DC02015F510024246EE7
:1008940060510120256E61510220266E62510320B1
:0408A400276E1200A9
:1008A80038C200F039C201F01DC004F01EC005F0C6
:1008B800FADC00C015F001C016F01BC002F01CC025
:1008C80003F003320232039E02500024156E0350D7
:0608D8000120166E120063
:1008DE00290E1B24E16E000E1C20E26EFF0EE66E4A
:1008EE00010E1B24006E000E1C20016E290E00242A
:1008FE00E16E000E0120E26EFF0EE66E020138512F
:10090E0034250501406F0201395135210501416F32
:10091E00000E020136210501426F000E0201372141
:10092E000501436F290E446F000E456FE1DC020195
:10093E00385173250501406F0201395174210501AB
:10094E00416F000E020175210501426F000E02017A
:10095E0076210501436F290E446F000E456FC8DCEA
:02096E00120075
:100970000450085E0550D8A0053C095E0650D8A07A
:10098000063C0A5E0750D8A0073C0B5E0336070EF4
:100990000C6E0334083609360A360B36045003A0B1
:1009A0000ED0085E0550D8A0053C095E0650D8A0C0
:1009B000063C0A5E0750D8A0073C0B5E0DD0082607
:1009C0000550D8B0053C09260650D8B0063C0A268A
:1009D0000750D8B0073C0B2603360C2EDAD702346A
:1009E000083609360A360B36045003A00ED0085ECE
:1009F0000550D8A0053C095E0650D8A0063C0A5E0A
:100A00000750D8A0073C0B5E0DD008260550D8B083
:100A1000053C09260650D8B0063C0A260750D8B037
:100A2000073C0B260236070E0C6E023408360936D8
:100A30000A360B36045002A00ED0085E0550D8A02E
:100A4000053C095E0650D8A0063C0A5E0750D8A0B7
:100A5000073C0B5E0DD008260550D8B0053C092692
:100A60000650D8B0063C0A260750D8B0073C0B26E3
:100A700002360C2EDAD70134083609360A360B3620
:100A8000045002A00ED0085E0550D8A0053C095EB7
:100A90000650D8A0063C0A5E0750D8A0073C0B5E63
:100AA0000DD008260550D8B0053C09260650D8B010
:100AB000063C0A260750D8B0073C0B260136070E25
:100AC0000C6E0134083609360A360B36045001A084
:100AD0000ED0085E0550D8A0053C095E0650D8A08F
:100AE000063C0A5E0750D8A0073C0B5E0DD00826D6
:100AF0000550D8B0053C09260650D8B0063C0A2659
:100B00000750D8B0073C0B2601360C2EDAD700343C
:100B1000083609360A360B36045001A00ED0085E9E
:100B20000550D8A0053C095E0650D8A0063C0A5ED8
:100B30000750D8A0073C0B5E0DD008260550D8B052
:100B4000053C09260650D8B0063C0A260750D8B006
:100B5000073C0B260036070E0C6E003408360936AB
:100B60000A360B36045000A00ED0085E0550D8A0FF
:100B7000053C095E0650D8A0063C0A5E0750D8A086
:100B8000073C0B5E0DD008260550D8B0053C092661
:100B90000650D8B0063C0A260750D8B0073C0B26B2
:100BA00000360C2EDAD700B00ED0045008260550BF
:100BB000D8B0053C09260650D8B0063C0A26075096
:080BC000D8B0073C0B2612001F
:100BC800050139517A08000ED8B0FF0E016E610E8A
:100BD800395D000ED8B0FF0E006E00500114026E91
:060BE80002C000F0120043
:0E0BEE00ACB202D00000FCD739C5ADFF12003A
:100BFC00086A096A100E0C6E013408360936045066
:100C0C00085E0550D8A0053C095ED8B007D004504A
:100C1C0008260550D8B0053C0926D8900036013678
:060C2C000C2EEAD71200B5
:100C32000B1E0A1E091E081E082AD8B4092AD8B497
:080C42000A2AD8B40B2A1200A3
:100C4A0015C000F016C001F0000E026E036E0036E9
:100C5A00009001360236033600C039F501C03AF574
:100C6A0002C03BF503C03CF51FC004F020C005F0EC
:100C7A00000E066E076E07DC00C038F201C039F2BA
:100C8A001FC004F020C005F0000E066E076E39C5BD
:100C9A0000F03AC501F03BC502F03CC503F048EC50
:100CAA0002F008C000F009C001F00AC002F00BC04F
:0C0CBA0003F000C01BF001C01CF0120091
:100CC6000201385134250501406F020139513521A1
:100CD6000501416F000E020136210501426F000E2B
:100CE600020137210501436F290E446F000E456F3F
:100CF600A6EC00F0290E1B24E96E000E1C20EA6EFD
:100D0600EECF3AF5000E3B6F3C6F3D6F000E3B6F2A
:100D16003C6F3D6F010E1B24006E000E1C20016E01
:100D2600290E0024E96E000E0120EA6EEECF3BF597
:100D360038C269F239C26AF21BC071F21CC072F283
:100D4600290E1B24E16E000E1C20E26E39C5E6FF5B
:100D5600010E1B24006E000E1C20016E290E0024BD
:100D6600E16E000E0120E26E39C5E6FF0201385140
:100D760034250501406F0201395135210501416FC6
:100D8600000E020136210501426F000E02013721D5
:100D96000501436F290E446F000E456F7FEC01F08D
:100DA6000201385173250501406F02013951742142
:100DB6000501416F000E020175210501426F000E0B
:100DC600020176210501436F290E446F000E456F1F
:100DD6007FEC01F0000E006E3D1908E100503C1951
:100DE60005E1FF0E3B1902E13A51FF0AD8B4C0D023
:100DF6003AC500F03BC501F03CC502F03DC503F025
:100E06000036009001360236033600C03AF501C0BE
:100E16003BF502C03CF503C03DF51FC004F020C001
:100E260005F0000E066E076E48EC02F000C038F2C0
:100E360001C039F21FC004F020C005F0000E066E96
:100E4600076E3AC500F03BC501F03CC502F03DC552
:100E560003F048EC02F008C000F009C001F00AC037
:100E660002F00BC003F000C01BF001C01CF0020131
:100E7600385134250501406F0201395135210501EC
:100E8600416F000E020136210501426F000E02017C
:100E960037210501436F290E446F000E456FA6ECFE
:100EA60000F0290E1B24E96E000E1C20EA6EEECF20
:100EB6003AF5000E3B6F3C6F3D6F000E3B6F3C6F8B
:100EC6003D6F010E1B24006E000E1C20016E290EC4
:100ED6000024E96E000E0120EA6EEECF3BF5290EE6
:100EE6001B24E16E000E1C20E26EE66A010E1B2436
:100EF600006E000E1C20016E290E0024E16E000E0D
:100F06000120E26EE66A0201385134250501406F80
:100F16000201395135210501416F000E02013621CA
:100F26000501426F000E020137210501436F290EAC
:100F3600446F000E456F7FEC01F0020138517325B6
:100F46000501406F0201395174210501416F000E00
:100F5600020175210501426F000E0201762105018D
:100F6600436F290E446F000E456F7FEC01F032D7B8
:100F760069C238F26AC239F271C21BF072C21CF041
:020F8600120057
:100F8800226A236A0201636B646BBEEC03F0A3DC84
:100F980087DC65C240F566C241F567C242F568C2A2
:100FA80043F5290E446F000E456FA6EC00F03E6B2A
:100FB8003E51000A46E12350201802E11F50221832
:100FC8001EE1226A236A0201634B642B6351652583
:100FD8000501406F0201645166210501416F000E51
:100FE800020167210501426F000E02016821050117
:100FF800436F290E446F000E456FA6EC00F0290ED2
:101008002224E96E000E2320EA6EEE50E50AFF0E58
:10101800D8A4000E016E290E2224E96E000E2320AA
:10102800EA6EEE50000AFF0ED8A4000E006E0150C2
:10103800001202E0010E3E6F200E2226000E23222F
:10104800B7D73E51010AD8A427D1200E225E000E40
:10105800235A3C6B3D6B3C512224006E3D512320AA
:10106800016E290E0024E16E000E0120E26E3C5153
:101078003925E96E3D513A21EA6EEECFE6FF000EC2
:101088003D1902E10A0E3C1903E03C4B3D2BE3D726
:101098001C0E3C6F000E3D6F3C512224006E3D51EA
:1010A8002320016E290E0024E16E000E0120E26E5D
:1010B800E66A000E3D1902E11F0E3C1903E03C4BA5
:1010C8003D2BEAD71A0E2224006E000E2320016E53
:1010D800290E0024E16E000E0120E26E15C0E6FF25
:1010E8001B0E2224006E000E2320016E290E002400
:1010F800E16E000E0120E26E16C0E6FF0B0E222400
:10110800006E000E2320016E290E0024E16E000EF1
:101118000120E26E3BC5E6FF0D0E3C6F000E3D6FF1
:101128003C512224006E3D512320016E290E0024DB
:10113800E16E000E0120E26EE66A000E3D1902E142
:10114800190E3C1903E03C4B3D2BEAD70E0E222426
:10115800006E000E2320016E290E0024E16E000EA1
:101168000120E26E3AC2E6FF0F0E2224006E000E46
:101178002320016E290E0024E16E000E0120E26E8C
:101188003BC2E6FF100E2224006E000E2320016EE3
:10119800290E0024E16E000E0120E26E3CC2E6FF3B
:1011A800110E2224006E000E2320016E290E002449
:1011B800E16E000E0120E26E3DC2E6FF120E22240F
:1011C800006E000E2320016E290E0024E16E000E31
:1011D8000120E26E3CC2E6FF130E2224006E000ED0
:1011E8002320016E290E0024E16E000E0120E26E1C
:1011F8003DC2E6FF160E2224006E000E2320016E6B
:10120800290E0024E16E000E0120E26E3AC2E6FFCC
:10121800170E2224006E000E2320016E290E0024D2
:10122800E16E000E0120E26E3BC2E6FF180E22249A
:10123800006E000E2320016E290E0024E16E000EC0
:101248000120E26E3CC2E6FF190E2224006E000E59
:101258002320016E290E0024E16E000E0120E26EAB
:101268003DC2E6FF0201635165250501406F020199
:10127800645166210501416F000E020167210501D5
:10128800426F000E020168210501436F290E446F69
:0E129800000E456F7FEC01F02AEC04F012000E
:1012A600050139517A08000ED8B0FF0E016E610EA5
:1012B600395D000ED8B0FF0E006E0150001602E038
:0E12C600DF0E391739C502F002C000F0120029
:1012D4000201635165250501206F020164516621F5
:1012E4000501216F000E020167210501226F000E26
:1012F400020168210501236F396BE3DC20C540F549
:1013040021C541F522C542F523C543F5290E446F95
:10131400000E456FA6EC00F0290E2224E16E000EAB
:101324002320E26EE50EE66E20C540F521C541F5A9
:1013340022C542F523C543F5290E446F000E456FBF
:061344007FEC01F0120035
:10134A00086A080E0C6E003408360450085ED8B0DD
:0E135A0002D00826D89000360C2EF5D71200CF
:101368000501226B236B2051000A1AE125EC00F0DD
:10137800010E4F6F506B516B526B536BFF0E546FD6
:1013880027EC00F000C024F599EC00F00501245189
:10139800000A05E102012A6B0501216B9CD08FD060
:1013A80025EC00F0370E4F6F506B516B526B536B3F
:1013B800FF0E546F27EC00F000C024F599EC00F004
:1013C80005012451010AD8A479D025EC00F0290E92
:1013D8004F6F000E506F000E516F000E526F400E8F
:1013E800536FFF0E546F27EC00F000C024F599EC02
:1013F80000F005012451000A60E12051020A57E17A
:1014080025EC00F03A0E4F6F506B516B526B536BDB
:10141800FF0E546F27EC00F000C024F532C2E1FF44
:1014280033C2E2FFFF0EE66E30C200F031C201F0B7
:1014380019EC00F000C025F532C2E1FF33C2E2FF2B
:10144800FF0EE66E30C200F031C201F019EC00F078
:1014580032C2E1FF33C2E2FFFF0EE66E30C200F097
:1014680031C201F019EC00F032C2E1FF33C2E2FFF1
:10147800FF0EE66E30C200F031C201F019EC00F048
:1014880099EC00F005012451000A10E1400E2515E1
:10149800016E0150000A04E0040E02012A6F03D015
:1014A8000201030E2A6F0501216B15D006D0010E2B
:1014B80002012A6F0501216B0ED001D00AD0050167
:1014C8002351270A02E10F0E221903E0224B232B96
:0C14D8004AD7010E216F21C500F0120060
:1014E4000501246B266B24512025E96E000E212171
:1014F400EA6EEE50000A45E024512025E96E000E04
:101504002121EA6EEE502E0A02E124C526F524516B
:101514002025E96E000E2121EA6EEECF39F5E4ECC8
:1015240005F000521AE02A0E006E050E016E2451D9
:101534000024376F000E0120386F24512025E96EF6
:10154400000E2121EA6EEECF39F5ABDE37C5E1FF9F
:1015540038C5E2FF00C0E6FF12D02A0E006E050E69
:10156400016E24510024E16E000E0120E26E24512C
:101574002025E96E000E2121EA6EEECFE6FF242B32
:10158400B2D72A0E006E050E016E24510024E16EBE
:10159400000E0120E26EE66A2651000A4CE026C5E0
:1015A40024F5020E2625036E2451035C41E32451E5
:1015B400010F026E2A0E006E050E016E0250002409
:1015C400E96E000E0120EA6EEE50000A17E124C510
:1015D40025F5020E2625016E2551015C0EE32A0E27
:1015E400006E050E016E25510024E16E000E0120EF
:1015F400E26E200EE66E252BECD71AD02A0E016E71
:10160400050E026E24510124E16E000E0220E26EEA
:101614002451010F006E00500124E96E000E0220D7
:10162400EA6EEECFE6FF2451031802E0242BB9D76B
:10163400030E2625246F24070A0E245D2FE22A0EAA
:10164400006E050E016E24510024E96E000E012087
:10165400EA6EEECF34F5240724510024E96E000E1F
:101664000120EA6EEECF33F5240724510024E96EFD
:10167400000E0120EA6EEECF32F5245107080EE386
:101684002A0E006E050E016E24510024E16E000E38
:101694000120E26E200EE66E242BEFD7356B226A12
:1016A400236A0201636B646B65C240F566C241F54F
:1016B40067C242F568C243F5290E0501446F000E66
:1016C400456FA6EC00F0286B296B266B26510A089F
:1016D4006CE32350201802E11F5022181EE1226AF5
:1016E400236A0201634B642B635165250501406F36
:1016F4000201645166210501416F000E0201672158
:101704000501426F000E020168210501436F290E95
:10171400446F000E456FA6EC00F0266B246B245139
:101724002224006E000E2320016E290E0024026E76
:10173400000E0120036E2A0E006E050E016E245168
:101744000024D96E000E0120DA6E02C0E9FF03C046
:10175400EAFFEE50DE18D8B4262B24510A0A02E020
:10176400242BDDD7284B292B290E2224E96E000EC9
:101774002320EA6EEECF27F5200E2226000E232228
:1017840026510B0A11E029510201451903E1445184
:101794000501281903E105011E0E266F05012751D5
:1017A400000A02E1190E266F91D7140E265DD8B0F7
:1017B400D6D0200E225C026E000E2358036E02C0A7
:1017C40022F003C023F01A0E0224006E000E032040
:1017D400016E290E0024E96E000E0120EA6EEECFA0
:1017E40015F01B0E0224006E000E0320016E290E5C
:1017F4000024E96E000E0120EA6EEECF16F02AEC0A
:1018040004F01C0E2224006E000E2320016E290E0B
:101814000024E96E000E0120EA6EEECF5BF21D0E8D
:101824002224006E000E2320016E290E0024E96E8E
:10183400000E0120EA6EEECF5CF21E0E2224006E32
:10184400000E2320016E290E0024E96E000E0120F3
:10185400EA6EEECF5DF21F0E2224006E000E2320EE
:10186400016E290E0024E96E000E0120EA6EEECF0F
:101874005EF225EC06F00E0E2224006E000E2320EC
:10188400016E290E0024E96E000E0120EA6EEECFEF
:101894003AF20F0E2224006E000E2320016E290E50
:1018A4000024E96E000E0120EA6EEECF3BF2100E2A
:1018B4002224006E000E2320016E290E0024E96EFE
:1018C400000E0120EA6EEECF3CF2110E2224006ECF
:1018D400000E2320016E290E0024E96E000E012063
:1018E400EA6EEECF3DF2160E2224006E000E232087
:1018F400016E290E0024E96E000E0120EA6EEECF7F
:1019040040F2170E2224006E000E2320016E290ED1
:101914000024E96E000E0120EA6EEECF41F2180EAB
:101924002224006E000E2320016E290E0024E96E8D
:10193400000E0120EA6EEECF3EF2190E2224006E54
:10194400000E2320016E290E0024E96E000E0120F2
:10195400EA6EEECF3FF2010E0501236F14D0800E24
:101964002215016E0150000A0DE07F0E22153B6F17
:101974002A0E396F050E3A6FC4EC07F0010E05010B
:0C198400236F01D0236B23C500F012007C
:1019900038C269F239C26AF21BC071F21CC072F21D
:1019A000BEEC03F06FEC04F054EC04F0020169515A
:1019B00034250501406F02016A5135210501416F4F
:1019C000000E020136210501426F000E020137218F
:1019D0000501436F290E446F000E456FA6EC00F021
:1019E000290E02017125E16E000E7221E26E15C012
:1019F000E6FF010E7125006E000E7221016E290EA8
:101A00000024E16E000E0120E26E16C0E6FF69516F
:101A100034250501406F02016A5135210501416FEE
:101A2000000E020136210501426F000E020137212E
:101A30000501436F290E446F000E456F7FEC01F0E6
:101A40000201695173250501406F02016A51742139
:101A50000501416F000E020175210501426F000E64
:101A6000020176210501436F290E446F000E456F78
:0A1A70007FEC01F02AEC04F01200F4
:101A7A000501226B20C5E9FF21C5EAFFEECF23F558
:101A8A002351000A0FE023C539F5F7EC05F00501EB
:101A9A00222B22512025E96E000E2121EA6EEECF7B
:061AAA0023F5EED7120047
:101AB0000450000A12E10550000A0FE10650000A26
:101AC0000CE10750000A09E1FF0E006EFF0E016EE7
:101AD000FF0E026E7F0E036E99D00C6A07BE0C2AB1
:101AE0000D6A0B6A0A6A096A086A0350021001103B
:101AF0000010D8B485D0035007180E6E0EBE0D1E10
:101B000007AE0BD0041E051E061E071E042AD8B4FD
:101B1000052AD8B4062AD8B4072A03AE0BD0001E73
:101B2000011E021E031E002AD8B4012AD8B4022ABC
:101B3000D8B4032A035007100E6E0EBE1DD0B8ECA9
:101B400004F00CBE36D00DAE5BD0001E011E021E8E
:101B5000031E002AD8B4012AD8B4022AD8B4032A12
:101B6000081E091E0A1E0B1E082AD8B4092AD8B45A
:101B70000A2AD8B40B2A44D007AE15D003BE0DD024
:101B800003500B6E02500A6E0150096E0050086E31
:101B9000036A026A016A006AD6D7036A026A016AA6
:101BA000006A002A000C031E021E011E001E0C8E7D
:101BB000C6D7082AD8B4092AD8B40A2AD8B40B2A16
:101BC0000450085CD8A4BFD70550095CD8A4BBD783
:101BD00006500A5CD8A4B7D707500B5CD8A4B3D77B
:101BE0000B6A0A6A096A086A002AD8B4012AD8B4BA
:101BF000022AD8B4032A03AEA6D70E6A0E88FF0CB9
:0E1C00000E6A0CA002D019EC06F0000F1200C4
:101C0E000201385134250501406F02013951352149
:101C1E000501416F000E020136210501426F000ED3
:101C2E00020137210501436F290E446F000E456FE7
:101C3E00A6EC00F0290E1B24E96E000E1C20EA6EA5
:101C4E00EECF20F5010E1B24006E000E1C20016E3F
:101C5E00290E0024E96E000E0120EA6EEECF21F56A
:101C6E002151FF0A02E1FF0E20192DE01DC004F0E4
:101C7E001EC005F020C500F021C501F0FEEC05F0F8
:101C8E0000C038F201C039F21DC004F01EC005F0CC
:101C9E0020C500F021C501F0FEEC05F008C000F0F3
:101CAE0009C001F000C01BF001C01CF000C01BF009
:101CBE0001C01CF01B361B901C3620C515F021C52B
:081CCE0016F02AEC04F01200EC
:101CD6000201385134250501406F02013951352181
:101CE6000501416F000E020136210501426F000E0B
:101CF600020137210501436F290E446F000E456F1F
:101D0600A6EC00F0290E1B24E96E000E1C20EA6EDC
:101D1600EECFF3F4000E0401F46FF56FF66F000ECC
:101D2600F46FF56FF66F010E1B24006E000E1C207B
:101D3600016E290E0024E96E000E0120EA6EEECF38
:101D4600F4F4000E006EF61908E10050F51905E1ED
:101D5600FF0EF41902E1F351FF0A79E0F3C400F033
:101D6600F4C401F0F5C402F0F6C403F000360090A6
:101D760001360236033600C0F3F401C0F4F402C0A3
:101D8600F5F403C0F6F41FC004F020C005F0000E01
:101D9600066E076E48EC02F000C038F201C039F258
:101DA6001FC004F020C005F0000E066E076EF3C4D7
:101DB60000F0F4C401F0F5C402F0F6C403F048ECF8
:101DC60002F008C000F009C001F00AC002F00BC022
:101DD60003F000C01BF001C01CF00201385134258D
:101DE6000501406F0201395135210501416F000E91
:101DF600020136210501426F000E0201372105015D
:101E0600436F290E446F000E456FA6EC00F0290EB5
:101E16001B24E96E000E1C20EA6EEECFF3F4000ED2
:101E26000401F46FF56FF66F000EF46FF56FF66F41
:101E3600010E1B24006E000E1C20016E290E0024CC
:101E4600E96E000E0120EA6EEECFF4F47AD754EC78
:101E560004F02AEC04F021C000F0000E016E026EC0
:101E6600036E1FC004F020C005F0000E066E076E5C
:101E76002EEC01F000C004F001C005F002C006F02F
:101E860003C007F05BC200F05CC201F05DC202F065
:101E96005EC203F00ADE08C000F009C001F00AC005
:101EA60002F00BC003F01FC004F020C005F0000EC6
:101EB600066E076EFADD00C028F000502426000EDC
:101EC6002522262227221FC004F020C005F0000E7E
:101ED600066E076E5BC200F05CC201F05DC202F0E6
:101EE6005EC203F048EC02F008C000F009C001F041
:101EF6000AC002F00BC003F000C017F001C018F0D2
:0A1F060002C019F003C01AF0120027
:101F10000501056B066B076B086B0B6B0B5104011E
:101F2000F725E96E000EF821EA6EEE50000A50E047
:101F300005010B510401F725E96E000EF821EA6E48
:101F4000EE502E0A05E10BC505F5000E0501066FE2
:101F500005010B510401F725E96E000EF821EA6E28
:101F6000EECF39F5E4EC05F000521CE00D0E006EEA
:101F7000050E016E0B5100241E6F000E01201F6F15
:101F80000B510401F725E96E000EF821EA6EEECF41
:101F900039F553EC09F01EC5E1FF1FC5E2FF00C093
:101FA000E6FF13D00D0E006E050E016E0B510024DE
:101FB000E16E000E0120E26E0B510401F725E96E7F
:101FC000000EF821EA6EEECFE6FF05010B2BA6D737
:101FD00005010D0E006E050E016E0B510024E16E21
:101FE000000E0120E26EE66A000E061902E1000E04
:101FF00005195CE005C50BF5020E0525036E000E04
:10200000006E000E005C02E10B51035C4CE30B51CF
:10201000010F026E0D0E006E050E016E02500024BF
:10202000E96E000E0120EA6EEE50000A1DE10BC5BC
:102030000CF5020E0525016E000E0621026E000E43
:10204000025C02E10C51015C0EE30D0E006E050E08
:10205000016E0C510024E16E000E0120E26E200E94
:10206000E66E0C2BE6D71FD00D0E016E050E026E2C
:102070000B510124E16E000E0220E26E0B51010FA4
:10208000006E00500124E96E000E0220EA6EEECFD1
:10209000E6FF000E006E000E001802E103500B195F
:1020A00002E00B2BA9D7030E05250B6F0B070A0EB9
:1020B0000B5D2FE20D0E006E050E016E0B5100241C
:1020C000E96E000E0120EA6EEECF17F50B070B51FB
:1020D0000024E96E000E0120EA6EEECF16F50B0724
:1020E0000B510024E96E000E0120EA6EEECF15F5CB
:1020F0000B5107080EE30D0E006E050E016E0B511D
:102100000024E16E000E0120E26E200EE66E0B2B25
:10211000EFD7186B21C004F0000E056E066E076E37
:10212000F3C400F0F4C401F0F5C402F0F6C403F007
:1021300048EC02F000C0FEF401C0FFF4F3C400F06C
:10214000F4C401F0F5C402F0F6C403F01FC004F0BB
:1021500020C005F0000E066E076E2EEC01F000C0E8
:1021600001F501C002F502C003F503C004F5076BD9
:10217000086B21C004F0000E056E066E076EF3C4F6
:1021800000F0F4C401F0F5C402F0F6C403F048EC2A
:1021900002F008C000F009C001F00AC002F00BC054
:1021A00003F0000E046E031808E10450021805E164
:1021B0000450011802E10050000A03E00401FE4B44
:1021C000FF2BFEC405F5FFC406F5BEEC03F038C2D4
:1021D00000F039C201F01DC004F01EC005F057EC3C
:1021E00001F01BC002F01CC003F003320232039E58
:1021F00002500024076F03500120086F38C269F2B3
:1022000039C26AF21BC071F21CC072F2000E0619CC
:1022100002E1000E0519000ED8A4FF0E016E0201A6
:102220004351395D02E14251385DFF0ED8B0000ED6
:10223000006E0150001667E020501C5C02E11F5048
:102240001B5C1DE31B6A1C6A384B392B3851342543
:102250000501406F0201395135210501416F000E22
:10226000020136210501426F000E020137210501EE
:10227000436F290E446F000E456FA6EC00F0050178
:10228000290E1B24E96E000E1C20EA6EEECF09F524
:102290001B4A1C2A290E1B24E96E000E1C20EA6E24
:1022A000EECF0AF51B4A1C2A000E0A1902E1000EA5
:1022B000091905E1010E055F000E065B23D0FEC47F
:1022C00005F5FFC406F538C200F039C201F01DC0A3
:1022D00004F01EC005F057EC01F01BC002F01CC05A
:1022E00003F003320232039E02500024076F0350B2
:1022F0000120086F38C269F239C26AF21BC071F25C
:102300001CC072F283D70501000E061902E1000E0F
:102310000519D8A45AD2FEC405F5FFC406F569C252
:1023200038F26AC239F271C21BF072C21CF00201AB
:10233000695134250501406F02016A5135210501BB
:10234000416F000E020136210501426F000E0201AD
:1023500037210501436F290E446F000E456FA6EC2F
:1023600000F0010E055F000E065B000E061902E18B
:10237000000E051973E0074B082B290E1B24E16E94
:10238000000E1C20E26E07C5E6FF1B4A1C2A290E20
:102390001B24E16E000E1C20E26E08C5E6FF1B4AFE
:1023A0001C2A20501C5C02E11F501B5C52E30201FE
:1023B000385134250501406F02013951352105019D
:1023C000416F000E020136210501426F000E02012D
:1023D00037210501436F290E446F000E456F7FECD6
:1023E00001F00201385173250501406F0201395196
:1023F00074210501416F000E020175210501426F34
:10240000000E020176210501436F290E446F000E74
:10241000456F7FEC01F01B6A1C6A0201384B392BB7
:10242000385134250501406F02013951352105012C
:10243000416F000E020136210501426F000E0201BC
:1024400037210501436F290E446F000E456FA6EC3E
:1024500000F0010E055F000E065B87D7290E1B24D6
:10246000E16E000E1C20E26EFF0EE66E1B4A1C2A77
:10247000290E1B24E16E000E1C20E26EFF0EE66E9C
:102480000201385134250501406F020139513521CF
:102490000501416F000E020136210501426F000E59
:1024A000020137210501436F290E446F000E456F6D
:1024B0007FEC01F00201385173250501406F0201E4
:1024C000395174210501416F000E0201752105018A
:1024D000426F000E020176210501436F290E446F01
:1024E000000E456F7FEC01F00D0E206F050E216F81
:1024F000226B72EC0AF00050000A12E069C21AF571
:102500006AC21BF571C21CF572C21DF56AEC09F0B6
:102510001AC569F21BC56AF21CC571F21DC572F2BB
:10252000226A236A0201636B646B65C240F566C26E
:1025300041F567C242F568C243F5290E0501446FB3
:10254000000E456FA6EC00F0006B0051000A46E15A
:102550002350201802E11F5022181EE1226A236A2C
:102560000201634B642B635165250501406F020135
:10257000645166210501416F000E020167210501CA
:10258000426F000E020168210501436F290E446F5E
:10259000000E456FA6EC00F0290E2224E96E000E15
:1025A0002320EA6EEE50E50AFF0ED8A4000E016E5D
:1025B000290E2224E96E000E2320EA6EEE50000A56
:1025C000FF0ED8A4000E006E0150001202E0010EB2
:1025D000006F200E2226000E2322B7D70051010AD9
:1025E000D8A4C9D0200E225E000E235A0B6B0B51CB
:1025F0002224006E000E2320016E290E0024E16EBD
:10260000000E0120E26E0D0E006E050E016E0B51E4
:102610000024E96E000E0120EA6EEECFE6FF0B51BA
:102620000A0A02E00B2BE3D70B0E2224006E000EE9
:102630002320016E290E0024E16E000E0120E26EBF
:10264000F9C4E6FF1C0E2224006E000E2320016E4A
:10265000290E0024E16E000E0120E26E01C5E6FFA6
:102660001D0E2224006E000E2320016E290E002470
:10267000E16E000E0120E26E02C5E6FF1E0E22246E
:10268000006E000E2320016E290E0024E16E000E64
:102690000120E26E03C5E6FF1F0E2224006E000E2D
:1026A0002320016E290E0024E16E000E0120E26E4F
:1026B00004C5E6FF69C200F06AC201F01DC004F063
:1026C0001EC005F057EC01F071C202F072C203F0B7
:1026D00003320232039E02500024076F0350012090
:1026E000086F1A0E2224006E000E2320016E290EA0
:1026F0000024E16E000E0120E26E07C5E6FF1B0E0E
:102700002224006E000E2320016E290E0024E16EAB
:10271000000E0120E26E08C5E6FF0D0E0B6F0B5197
:102720002224006E000E2320016E290E0024E16E8B
:10273000000E0120E26EE66A0B51190A02E00B2B33
:10274000EED70201635165250501406F0201645116
:1027500066210501416F000E020167210501426FEC
:10276000000E020168210501436F290E446F000E1F
:10277000456F7FEC01F007C504F008C505F0000EB9
:10278000066E076E020E045E000E055A065A075AC0
:1027900021C000F0000E016E026E036E2EEC01F0FF
:1027A00002015F5100240401FA6F0201605101200F
:1027B0000401FB6F0201615102200401FC6F020160
:1027C000625103200401FD6F05D00401FA6BFB6B1D
:1027D000FC6BFD6BFAC400F0FBC401F0FCC402F01A
:0627E000FDC403F012002D
:1027E60024C040F525C041F526C042F527C043F573
:1027F600290E0501446F000E456FA6EC00F004019A
:10280600F76BF86B010EF55DF96F000EF659FA6F6E
:10281600F851FA5D02E1F751F95D5AE3290E1724E2
:10282600E16E000E1820E26EF751F325E96EF851BD
:10283600F421EA6EEECFE6FF010E1726000E1822EF
:1028460019221A22000E006E1A1808E100501918F3
:1028560005E12050181802E117501F182FE124C077
:1028660040F525C041F526C042F527C043F5290E9F
:102876000501446F000E456F7FEC01F0010E242622
:10288600000E252226222722176A186A196A1A6A52
:10289600282A2850211803E1286AC8EC0CF024C025
:1028A60040F525C041F526C042F527C043F5290E5F
:1028B6000501446F000E456FA6EC00F00401F851C7
:1028C600FA1902E1F951F71903E0F74BF82B9AD7F9
:1028D60024C040F525C041F526C042F527C043F582
:1028E600290E0501446F000E456F7FEC01F00401CF
:1028F600F55102015B270401F65102015C23000E2B
:102906005D235E23635165250501406F0201645115
:1029160066210501416F000E020167210501426F24
:10292600000E020168210501436F290E446F000E57
:10293600456FA6EC00F0120E2224006E000E232036
:10294600016E290E0024E16E000E0120E26E3CC2EB
:10295600E6FF130E2224006E000E2320016E290EC0
:102966000024E16E000E0120E26E3DC2E6FF140E69
:102976002224006E000E2320016E290E0024E16E33
:10298600000E0120E26EE66A150E2224006E000E8D
:102996002320016E290E0024E16E000E0120E26E56
:1029A600E66A160E2224006E000E2320016E290E02
:1029B6000024E16E000E0120E26E3AC2E6FF170E19
:1029C6002224006E000E2320016E290E0024E16EE3
:1029D600000E0120E26E3BC2E6FF180E2224006EB6
:1029E600000E2320016E290E0024E16E000E012048
:1029F600E26E3CC2E6FF190E2224006E000E232072
:102A0600016E290E0024E16E000E0120E26E3DC229
:102A1600E6FF1C0E2224006E000E2320016E290EF6
:102A26000024E16E000E0120E26E5BC2E6FF1D0E81
:102A36002224006E000E2320016E290E0024E16E72
:102A4600000E0120E26E5CC2E6FF1E0E2224006E1E
:102A5600000E2320016E290E0024E16E000E0120D7
:102A6600E26E5DC2E6FF1F0E2224006E000E2320DA
:102A7600016E290E0024E16E000E0120E26E5EC298
:102A8600E6FF0201635165250501406F02016451AD
:102A960066210501416F000E020167210501426FA3
:102AA600000E020168210501436F290E446F000ED6
:082AB600456F7FEC01F01200F6
:102ABE000201656B666B676B686B636B646B226A96
:102ACE00236A176A186A196A1A6A156A166A246AD4
:102ADE00256A266A276A5B6B5C6B5D6B5E6B346B7B
:102AEE00356B366B376B736B746B756B766B386BD4
:102AFE00396B696B6A6B1B6A1C6A716B726B1F6A2E
:102B0E00206A1D6A1E6A6F6B706B426B436B446B5F
:102B1E00456B5F6B606B616B626B216A286A5A6BE7
:102B2E006B6B6C6B6D6B6E6B3C6B3D6B3E6B3F6B97
:0A2B3E003A6B3B6B406B416B1200D9
:102B4800050E02012A6F94908B800401F46BF56BDB
:102B580032C2E1FF33C2E2FFFF0EE66E30C200F080
:102B680031C201F019EC00F0000E0401F51902E180
:102B7800090EF41903E0F44BF52BEAD725EC00F025
:102B880005014F6B506B516B526B536B950E546F25
:102B980027EC00F000C0F6F499EC00F00401F651BF
:102BA800010A03E0010EF36F82D025EC00F0080E55
:102BB80005014F6FAA0E506F010E516F000E526F34
:102BC800536F870E546F27EC00F000C0F6F432C242
:102BD800E1FF33C2E2FFFF0EE66E30C200F031C201
:102BE80001F019EC00F032C2E1FF33C2E2FFFF0E40
:102BF800E66E30C200F031C201F019EC00F032C2CA
:102C0800E1FF33C2E2FFFF0EE66E30C200F031C2D0
:102C180001F019EC00F032C2E1FF33C2E2FFFF0E0F
:102C2800E66E30C200F031C201F019EC00F099EC08
:102C380000F00401F651010A0CE0010E0501206FB5
:102C4800B4EC09F00050000A03E0206BB4EC09F082
:102C580005D00501020E206FB4EC09F002012A51DB
:102C6800050A04E1020E0401F36F21D002012A5182
:102C7800040A1BE025EC00F0100E05014F6F000E52
:102C8800506F020E516F000E526F536FFF0E546F4C
:102C980027EC00F000C0F6F499EC00F00401F651BE
:102CA800000A03E0030EF36F02D00401F36BF3C4D0
:042CB80000F0120016
:102CBC00FF0E0501396F63EC06F0176A186A196A82
:102CCC001A6A02015B6B5C6B5D6B5E6B286A54EC81
:102CDC0004F02AEC04F0635165250501406F0201F4
:102CEC00645166210501416F000E02016721050147
:102CFC00426F000E020168210501436F290E446FDB
:102D0C00000E456FA6EC00F01C0E2224006E000E87
:102D1C002320016E290E0024E16E000E0120E26ECC
:102D2C00E66A1D0E2224006E000E2320016E290E71
:102D3C000024E16E000E0120E26EE66A1E0E2224D3
:102D4C00006E000E2320016E290E0024E16E000E91
:102D5C000120E26EE66A1F0E2224006E000E232074
:102D6C00016E290E0024E16E000E0120E26EE66A6F
:102D7C000201635165250501406F02016451662112
:102D8C000501416F000E020167210501426F000E23
:102D9C00020168210501436F290E446F000E456F37
:062DAC007FEC01F01200B3
:102DB200BC0E0401F35F070EF45B7F0EF317000EE7
:102DC200F4170F0EF515016E01C0F5F40150000A5B
:102DD20002E1010EF56FF6511F08FF0ED8B0000E8A
:102DE200016E010EF65DFF0ED8B0000E006E0150AE
:102DF200001202E0010EF66FF7511708D8A0F76B28
:102E0200F8513B08D8A0F86BF9513B08D8A0F96BF0
:102E1200F9C405F00532059E05C0F9F4090E006EED
:102E2200F3C43CF2F4C43DF2005006E002013C3728
:102E32003C913D37FF0FF9D7F5C403F0000E046E45
:102E4200050E026E03C000F004C001F0025005E05E
:102E5200003600900136FF0FFAD7020100503C13F2
:102E620001503D130401F65102013C13000E3D13C3
:102E7200F7C43AF2000E3B6F0B0E006E005005E0F5
:102E82003A373A913B37FF0FFAD7F8C403F0000EF6
:102E9200046E050E026E03C000F004C001F0025081
:102EA20005E0003600900136FF0FFAD7020100500C
:102EB2003A1301503B1305503A13000E3B13120014
:102EC200176A186A196A1A6AF3C4E1FFF4C4E2FFC6
:102ED2005BC2E6FF5CC2E6FF5DC2E6FF5EC2E6FFE2
:102EE200286A24C040F525C041F526C042F527C016
:102EF20043F5290E0501446F000E456FA6EC00F064
:022F02001200BB
:102F0400F5C4E1FFF6C4E2FF200EE66E200EE66E85
:102F1400200EE66E200EE66E300EE66EE66A040EB5
:102F24000401F525F76F000EF621F86F000EF41971
:102F340002E1000EF31929E00A0E046E000E056E7C
:102F4400F3C400F0F4C401F0FEEC05F008C000F096
:102F540009C001F0300E0026F7C4E1FFF8C4E2FF17
:102F640000C0E6FF0A0E046E000E056EF3C400F006
:102F7400F4C401F0FEEC05F000C0F3F401C0F4F475
:0C2F8400010EF75F000EF85BD1D71200C1
:102F9000E00E02013A15036E3B51070B046E050E5D
:102FA000026E03C000F004C001F0025005E00132DF
:102FB0000032019EFF0FFAD7FBC4E1FFFCC4E2FF21
:102FC00000C0E6FF000E3A15036E3B51F80B046E8D
:102FD0000B0E026E03C000F004C001F0025005E0C9
:102FE00001320032019EFF0FFAD7F9C4E1FFFAC4A3
:102FF000E2FF00C0E6FF1F0E3C15006E3DC201F06F
:10300000000E0116F7C4E1FFF8C4E2FF00C0E6FFBE
:10301000E00E3C15036E3D51010B046E050E026E71
:1030200003C000F004C001F0025005E0013200329C
:10303000019EFF0FFAD7F5C4E1FFF6C4E2FF00C01E
:10304000E6FF000E3C15036E3D51FE0B046E090EAB
:10305000026E03C000F004C001F0025005E001322E
:103060000032019EFF0FFAD7F3C4E1FFF4C4E2FF80
:0E307000BC0E0024E66E070E0120E66E120074
:10307E00F4C4E1FFF5C4E2FF200EE66E200EE66E0C
:10308E00300EE66EE66A020E0401F425F66F000EAF
:10309E00F521F76FF351000A1CE00A0E046EF3C41B
:1030AE0000F0A5EC09F008C000F0F6C4E1FFF7C48B
:1030BE00E2FF300E0024E66E0A0E046EF3C400F03A
:1030CE00A5EC09F000C0F3F4010EF65F000EF75BFD
:0430DE00E1D7120024
:1030E200E00E02014015036E4151070B046E050EFE
:1030F200026E03C000F004C001F0025005E001328C
:103102000032019EFF0FFAD7FBC4E1FFFCC4E2FFCD
:1031120000C0E6FF000E4015036E4151F80B046E2D
:103122000B0E026E03C000F004C001F0025005E075
:1031320001320032019EFF0FFAD7F9C4E1FFFAC44F
:10314200E2FF00C0E6FF1F0E3E15006E3FC201F017
:10315200000E0116F7C4E1FFF8C4E2FF00C0E6FF6B
:10316200E00E3E15036E3F51010B046E050E026E1A
:1031720003C000F004C001F0025005E00132003249
:10318200019EFF0FFAD7F5C4E1FFF6C4E2FF00C0CB
:10319200E6FF000E3E15036E3F51FE0B046E090E54
:1031A200026E03C000F004C001F0025005E00132DB
:1031B2000032019EFF0FFAD7F3C4E1FFF4C4E2FF2D
:0E31C200BC0E0024E66E070E0120E66E120021
:1031D0005BC204F05CC205F05DC206F05EC207F09F
:1031E00004C000F005C001F006C002F007C003F003
:0231F0001200CB
:1031F200290E1724E96E000E1820EA6EF3C4E1FFCF
:10320200F4C4E2FFEECFE6FF010E1726000E1822ED
:1032120019221A22000E006E1A1808E1005019181D
:1032220005E12050181802E117501F1820E1176A13
:10323200186A196A1A6A010E2426000E252226220D
:103242002722282A2850211803E1286A07EC0EF0C9
:1032520024C040F525C041F526C042F527C043F5FC
:10326200290E0501446F000E456FA6EC00F0120016
:103272000401F651FF0A08E1F551000A05E1F45193
:10328200000A02E1F351000A1CE1F7C4E1FFF8C4AD
:10329200E2FF2D0EE66E320EE66E310EE66E340E53
:1032A200E66E370EE66E340EE66E380EE66E330EBE
:1032B200E66E360EE66E340EE66E380EE66EE66AA0
:1032C2009AD0FB6B800EF619006E800E005C08E14E
:1032D200000EF55D05E1000EF45D02E1000EF35D06
:1032E20016E2FF0EFB6F006A016A026A036AF3517B
:1032F200005EF451015AF551025AF651035A00C0C8
:10330200F3F401C0F4F402C0F5F403C0F6F4F7C418
:10331200E1FFF8C4E2FF200EE66E200EE66E200EFC
:10332200E66E200EE66E200EE66E200EE66E200E93
:10333200E66E200EE66E200EE66E200EE66E300E73
:10334200E66EE66A0A0EF725F96F000EF821FA6FAB
:10335200000E006EF61908E10050F51905E1005063
:10336200F41902E1F351000A3EE00A0E046E000E67
:10337200056E066E076EF3C400F0F4C401F0F5C4E6
:1033820002F0F6C403F058EC0DF008C000F009C0DA
:1033920001F00AC002F00BC003F0300E0026F9C49F
:1033A200E1FFFAC4E2FF00C0E6FF0A0E046E000E5F
:1033B200056E066E076EF3C400F0F4C401F0F5C4A6
:1033C20002F0F6C403F058EC0DF000C0F3F401C0B3
:1033D200F4F402C0F5F403C0F6F4010E0401F95F3F
:1033E200000EFA5BB5D7FB5306E0F9C4E1FFFAC45D
:0833F200E2FF2D0EE66E120051
:1033FA00F3C420F5F4C421F53DEC0DF00D0E396F40
:10340A00F7EC05F00A0E0501396FF7EC05F012002A
:10341A00EE0E0201526F0B0E536F390E546F050EEA
:10342A00556FFF0E566FFF0E576F000E586F000E46
:10343A00596FFF0E4A6FFF0E4B6F000E4C6F000E56
:10344A004D6FFF0E4E6FFF0E4F6F000E506F000E46
:10345A00516FAC8A900EAB6E948E949C9EAA03D048
:08346A00AECF00F0FBD7120009
:103472000401D46BD56B770ED425E16E020ED521F3
:10348200E26ED4C4E6FFD551010A02E1FF0ED4195F
:1034920003E0D44BD52BEFD7880EF36F130EF46FE6
:1034A200000EF56FF66F6D0ED66F690ED76F6B0E4D
:1034B200D86F720ED96F6F0EDA6F450EDB6F2E0E5C
:1034C200DC6F740EDD6F780EDE6F740EDF6FE06BF3
:1034D200D60EF76F040EF86F200EF96F88EC0FF01E
:1034E20000C02BF201C02CF202C02DF203C02EF25A
:1034F200000E046E031808E10450021805E104509E
:10350200011802E10050000A3AE02BC2F3F42CC287
:10351200F4F42DC2F5F42EC2F6F4BF0EF76F040ECA
:10352200F86FA6DEBF0EF36F040EF46F65DF0401C1
:10353200D46BD56B2BC240F52CC241F52DC242F59E
:103542002EC243F5770E0501446F020E456F7FECE4
:1035520001F0010E02012B27000E2C232D232E2316
:103562002E0E0501396FF7EC05F00401D551130A4F
:1035720002E1870ED41903E0D44BD52BDBD712001E
:10358200C69A1C0E0201306F000E316F580E326F58
:10359200050E336FFF0E466FFF0E476FFF0E486F2B
:1035A200FF0E496F949A0401D451040A02E19486F1
:1035B20001D094969488C66AD451C612D651C612C6
:1035C200D551C712D651000A05E0D751000AD8B426
:1035D200C78C04D0D751000AD8A4C78CC68A12005F
:1035E200420E04017E6F770E0501206F040E216FDB
:1035F200226B72EC0AF02B0E0401F36F020EF46FD1
:103602005FDC800E006E800E02012E19005C08E164
:103612002D51000805E12C51000802E12B51000850
:1036220012E2290E0401F36F020EF46FE1DD29C2EA
:1036320039F5F7EC05F0010E02012B5F000E2C5B51
:083642002D5B2E5BDED71200A8
:10364A000401D56BD46BD66BD76BD86BD96BA4EC52
:10365A0015F000C0D5F4D42B0050000AFF0ED8A4F0
:10366A00000E016E320ED45D000ED8B0FF0E006E51
:10367A000150001201E1EBD7320ED45D03E3FF0ED5
:10368A00D46F11D25FEC15F00401D56B6BC240F513
:10369A006CC241F56DC242F56EC243F5290E0501B1
:1036AA00446F000E456FA6EC00F002012751550A3F
:1036BA00D8A4CBD02851AA0AD8A4C7D02950E90A3D
:1036CA00FF0ED8A4000E026E2950EB0AFF0ED8A4F2
:1036DA00000E016E2B50900AFF0ED8A4000E006E49
:1036EA000150001600500210016E0150000AD8A4C1
:1036FA00A9D00101F351000A000ED8A4FF0E016EF1
:10370A00F451000A000ED8A4FF0E006E00500112F8
:10371A00F551000A000ED8A4FF0E006E00500112E7
:10372A00F651000A000ED8A4FF0E006E01500012D6
:10373A0009E0EFC16BF2F0C16CF2F1C16DF2F2C1B6
:10374A006EF27DD002010351000A000ED8A4FF0ECA
:10375A00016E0451000A000ED8A4FF0E006E00503C
:10376A0001120551000A000ED8A4FF0E006E005087
:10377A0001120651000A000ED8A4FF0E006E015075
:10378A00001209E0FFC16BF200C26CF201C26DF2D5
:10379A0002C26EF254D01351000A000ED8A4FF0ED2
:1037AA00016E1451000A000ED8A4FF0E006E0050DC
:1037BA0001121551000A000ED8A4FF0E006E005027
:1037CA0001121651000A000ED8A4FF0E006E015015
:1037DA00001209E00FC26BF210C26CF211C26DF254
:1037EA0012C26EF22CD02351000A000ED8A4FF0E8A
:1037FA00016E2451000A000ED8A4FF0E006E00507C
:10380A0001122551000A000ED8A4FF0E006E0050C6
:10381A0001122651000A000ED8A4FF0E006E0150B4
:10382A00001209E01FC26BF220C26CF221C26DF2D3
:10383A0022C26EF204D0010E0401D46F34D1040105
:10384A00D56B03D00401010ED56F0401D46B0401BA
:10385A00D551000A33E16BC240F56CC241F56DC225
:10386A0042F56EC243F5290E0501446F000E456FFD
:10387A00A6EC00F002012751550AFF0ED8A4000E4B
:10388A00016E2851AA0AFF0ED8A4000E006E01503C
:10389A00001604E0010E0401D56F10D00401D451C2
:1038AA00400A03E1010ED46FFED0D42B010E0201AF
:1038BA006B27000E6C236D236E23C9D7010E0401FA
:1038CA00D46FD551010AD8A4EED034C01FF035C048
:1038DA0020F036C021F037C06FF238C070F239C01C
:1038EA005AF23FC042F240C043F239C000F0000E23
:1038FA00016E026E036E42C204F043C205F0000E6E
:10390A00066E076E2EEC01F0005002016B25656F02
:10391A0001506C21666F02506D21676F03506E2152
:10392A00686F6F51652770516623000E67236823FD
:10393A003AC044F23BC045F2050E046E44C200F0A0
:10394A0045C201F0000E026E036E045007E0003615
:10395A000090013602360336FF0FF8D71F500026B3
:10396A0020500122000E02220322010E005E000EE8
:10397A00015A025A035A1FC004F020C005F0000E73
:10398A00066E076E58EC0DF00050020165255F6F58
:10399A0001506621606F02506721616F03506821F0
:1039AA00626F6F516B25006E70516C21016E000EB3
:1039BA006D21026E000E6E21036E00C034F201C04A
:1039CA0035F202C036F203C037F242510024736F57
:1039DA0043510120746F000E0220756F000E032000
:1039EA00766F1FC01DF020C01EF01E321D321E9EB3
:1039FA003F504010006E54E03D503C10006E05E010
:103A0A003CC0D6F43DC0D7F408D049C0D6F44AC069
:103A1A00D7F44BC0D8F44CC0D9F40201D6C400F094
:103A2A00D7C401F0D8C402F0D9C403F05F51005ED4
:103A3A006051015A6151025A6251035A21C004F07D
:103A4A00000E056E066E076E48EC02F000C0D6F452
:103A5A0001C0D7F402C0D8F403C0D9F4000E035C45
:103A6A0008E1000E025C05E10F0E015C02E1F50EB1
:103A7A00005C04E2010E0401D46F11D00401000EAF
:103A8A00D95D08E1000ED85D05E1FF0ED75D02E1C0
:103A9A00F50ED65D02E2D46B02D0010ED46F03D0CC
:0C3AAA000401010ED46FD4C400F012001F
:103AB600420E02012F6F2FC239F5F7EC05F02FC227
:103AC6007EF4DA0E0401F36F070EF46F040EF56F41
:103AD600130EF66F090EF76FF86BF96BD9EC16F04B
:103AE600770E0501206F040E216FA00E226F72EC77
:103AF6000AF05EEC16F0010E0401BE6F0A0E046EAB
:103B0600BEC400F0A5EC09F0300E002600C092F409
:103B16000A0E046EBEC400F0A5EC09F008C000F061
:103B2600300E002600C093F4920EF36F040EF46F6D
:103B36002A0EF56F000EF66FF3EC13F00401BE517A
:103B46002C0A02E0BE2BDAD702012F515A0A02E0F4
:063B56002F2BB1D7120075
:103B5C00430E04017E6F770E0501206F040E216F5A
:103B6C00226B72EC0AF05EEC16F0010E0401BE6FD3
:103B7C000A0E046EBEC400F0A5EC09F0300E00264F
:103B8C0000C092F40A0E046EBEC400F0A5EC09F05D
:103B9C0008C000F0300E002600C093F4920EF36FB4
:103BAC00040EF46F2A0EF56F000EF66FF3EC13F0A3
:0E3BBC000401BE51370A02E0BE2BDAD7120018
:103BCA00420E04017E6F770E0501206F040E216FED
:103BDA00226B72EC0AF0DA0E0401F36F070EF46F2F
:103BEA00090EF56F140EF66F0A0EF76F150EF86FC1
:103BFA00010EF96FD9EC16F06BEC0EF0200E0401F1
:103C0A00926F660E936F6F0E946F720E956F200E01
:103C1A00966F6D0E976F690E986F6B0E996F720E95
:103C2A009A6F6F0E9B6F450E9C6F6C0E9D6F650EA3
:103C3A009E6F6B0E9F6F740EA06F720EA16F6F0E48
:103C4A00A26F6E0EA36F690EA46F6B0EA56F610E45
:103C5A00A66F200EA76F320EA86F300EA96F310E15
:103C6A00AA6F300EAB6FAC6B0D0EAC6F0A0EAD6F58
:103C7A00920EF36F040EF46F1B0EF56F000EF66FC3
:063C8A00F3EC13F0120040
:103C9000410E04017E6FDA0EF36F070EF46F040E0F
:103CA000F56F130EF66F090EF76FF86BF96BD9EC21
:103CB00016F0770E0501206F040E216FA00E226F03
:103CC00072EC0AF05EEC16F0010E0401BE6F2E0ECF
:103CD0000501396FF7EC05F00A0E046EBEC400F062
:103CE000A5EC09F0300E00240401926F0A0E046E58
:103CF000BEC400F0A5EC09F008C000F0300E0024AE
:103D0000936F920EF36F040EF46F2A0EF56F000E90
:103D1000F66FF3EC13F00401BE51630A02E0BE2B10
:043D2000D6D71200E0
:103D2400420E04017E6F770E0501206F040E216F91
:103D3400226B72EC0AF00050000AD8B432D1D40ECF
:103D44000401F36F040EF46FD60EF56F040EF66FD4
:103D5400D70EF76F040EF86FD80EF96F040EFA6FD2
:103D6400D90EFB6F040EFC6FC8EC17F0200E040193
:103D7400E76F630EE86F720EE96F650EEA6F610E0E
:103D8400EB6F740EEC6F650EED6F640EEE6F3A0E12
:103D9400EF6F200EF06FF16BE70E0501206F040E3C
:103DA400216F3DEC0DF0D4C4F3F4D5C4F4F4DA0E71
:103DB4000401F56F040EF66F82EC17F0DA0E0501BC
:103DC400206F040E216F3DEC0DF0D6C4F3F4DA0E2F
:103DD4000401F46F040EF56F3FEC18F0DA0E0501E0
:103DE400206F040E216F3DEC0DF0D7C4F3F4000EE8
:103DF4000401F46FDA0EF56F040EF66F82EC17F01F
:103E0400DA0E0501206F040E216F3DEC0DF0D8C4CD
:103E1400F3F4000E0401F46FDA0EF56F040EF66F7E
:103E240082EC17F0DA0E0501206F040E216F3DECD1
:103E34000DF0D9C4F3F4000E0401F46FDA0EF56F3B
:103E4400040EF66F82EC17F0DA0E0501206F040EF3
:103E5400216F3DEC0DF0D40E0401F36F040EF46FEA
:103E6400D60EF56F040EF66FD70EF76F040EF86FCB
:103E7400D80EF96F040EFA6FD90EFB6F040EFC6FA7
:103E840071EC18F0200E0401E76F6D0EE86F6F0EF1
:103E9400E96F640EEA6F690EEB6F660EEC6F690EE4
:103EA400ED6F650EEE6F640EEF6F3A0EF06F200E3D
:103EB400F16FF26BE70E0501206F040E216F3DECEC
:103EC4000DF0D4C4F3F4D5C4F4F4DA0E0401F56FA0
:103ED400040EF66F82EC17F0DA0E0501206F040E63
:103EE400216F3DEC0DF0D6C4F3F4DA0E0401F46F47
:103EF400040EF56F3FEC18F0DA0E0501206F040E86
:103F0400216F3DEC0DF0D7C4F3F4000E0401F46FFF
:103F1400DA0EF56F040EF66F82EC17F0DA0E050177
:103F2400206F040E216F3DEC0DF0D8C4F3F4000EA5
:103F34000401F46FDA0EF56F040EF66F82EC17F0DD
:103F4400DA0E0501206F040E216F3DEC0DF0D9C48B
:103F5400F3F4000E0401F46FDA0EF56F040EF66F3D
:103F640082EC17F0DA0E0501206F040E216F3DEC90
:103F74000DF0E8EC18F000C0F3F401C0F4F402C052
:103F8400F5F403C0F6F4DA0E0401F76F040EF86FCB
:103F940039EC19F0DA0EF36F040EF46FFDEC19F03E
:103FA40016D0550E0501396FF7EC05F0290E0B6E8E
:103FB400960E0C6E7F0E0D6E0D2EFED70C2EFCD7BA
:103FC4000B2EFAD7550E0501396FF7EC05F01200E8
:103FD400460E04017E6F770E0501206F040E216FDB
:0C3FE400226B72EC0AF06AEC09F012008B
:103FF000460E0401BF6F410EC06F540EC16F310EEB
:10400000C26F360EC36F200EC46F6E0EC56F6F0E7B
:10401000C66F740EC76F200EC86F660EC96F6F0E25
:10402000CA6F750ECB6F6E0ECC6F640ECD6FCE6BFC
:10403000580E926F580E936F200E946F4D0E956F21
:104040004D0E966F430E976F2F0E986F530E996F0C
:10405000440E9A6F200E9B6F460E9C6F410E9D6F13
:10406000540E9E6F310E9F6F360EA06F200EA16F03
:104070006C0EA26F690EA36F620EA46F720EA56F15
:10408000610EA66F720EA76F790EA86F200EA96F32
:10409000620EAA6F790EAB6F200EAC6F410EAD6F42
:1040A0006E0EAE6F740EAF6F6F0EB06F6E0EB16F9F
:1040B000200EB26F520EB36F690EB46F650EB56FFE
:1040C000630EB66F6B0EB76F650EB86F720EB96F79
:1040D000740EBA6F230EBB6FBC6B0A0EBB6F4D0E16
:1040E000776F490E786F4B0E796F520E7A6F4F0EC5
:1040F0007B6F300E7C6F300E7D6F780E7E6F540EAE
:104100007F6F580E806F540E816F826B0F0EC1123D
:10411000070EB412520E0B6E2B0E0C6E000E0D6EAF
:104120000D2EFED70C2EFCD70B2EFAD70000670EF3
:10413000AF6EAC840DEC1AF0680E0C6EE40E0D6ED2
:104140000D2EFED70C2EFCD70000500E0401866FFA
:10415000490E876F430E886F2D0E896F530E8A6F3D
:10416000740E8B6F610E8C6F720E8D6F740E8E6F6E
:10417000650E8F6F640E906F916B860EF36F040E59
:10418000F46FFDEC19F0020E0401D46FD56BD66B01
:10419000010ED76FC1EC1AF025EC1BF00050000A9D
:1041A0002DE1F00E826ED46BD56BD66B010ED76FFE
:1041B000C1EC1AF06DDD7FDCD1DC07DDF1EC1AF02B
:1041C00009DFB0DD39EC1AF0540E866F650E876F8B
:1041D000730E886F740E896F200E8A6F450E8B6F79
:1041E0006E0E8C6F640E8D6F2E0E8E6F8F6B860E23
:1041F000F36F040EF46FFDEC19F007D0BF0E04014D
:0C420000F36F040EF46FFDEC19F0FFD713
:020000040030CA
:0D000100061F1EFF8381FF0FC00FE00F40A0
:00000001FF
