:10000000A1EF04F00000000000EF00F0000000008D
:0A0010000000000000000000F3D71C
:10001C00F6C2C9FFC7B002D00000FCD7C9CF00F0B0
:02002C001200C0
:10002E00F250026EF29E0500FF6A0150FE6E005005
:08003E00FD6E02BEF28E1200FD
:10004600400E0201ED25006EC7C2E1FFC8C2E2FF05
:1000560000C0E6FFC5C200F0C6C201F0E5DFC7C2B8
:10006600E1FFC8C2E2FFF1C2E6FFC5C200F0C6C2A8
:1000760001F0DADFC7C2E1FFC8C2E2FFF0C2E6FF65
:10008600C5C200F0C6C201F0CFDFC7C2E1FFC8C2D9
:10009600E2FFEFC2E6FFC5C200F0C6C201F0C4DF50
:1000A600C7C2E1FFC8C2E2FFEEC2E6FFC5C200F06A
:1000B600C6C201F0B9DFC7C2E1FFC8C2E2FFF2C2A1
:1000C600E6FFC5C200F0C6C201F0AEDF0201F46B66
:1000D600F56BC7C2E1FFC8C2E2FFFF0EE66EC5C2FE
:1000E60000F0C6C201F0A0DF00C0F3F20201F44B3B
:1000F600F52B800E0014016E0150000A07E0000E79
:10010600F55D02E1640EF45D01E2E3D7F3C200F0AF
:020116001200D5
:0E011800ACB202D00000FCD7EDC2ADFF120069
:040126008B901200A8
:10012A008B80C7C2E1FFC8C2E2FFFF0EE66EC5C2FE
:0A013A0000F0C6C201F076DF1200EB
:100144000201EB6BE8C2E9FFE9C2EAFFEECFEAF293
:10015400EA51000A0EE0EAC2EDF2DCDF0201EB2B09
:10016400EB51E825E96E000EE921EA6EEECFEAF2E2
:04017400EFD71200AF
:100178000201E96BEA6B270EEA5D02E1100EE95D08
:10018800D8B09AD0000E000A02E1000EE81915E175
:10019800C6DF010EED6FEE6BEF6BF06BF16BFF0ED0
:1001A800F26F4DDF00C0EBF2BCDF0201EB51000A39
:1001B80003E1756A006A12007CD0B1DF370EED6F7B
:1001C800EE6BEF6BF06BF16BFF0EF26F38DF00C078
:1001D800EBF2A7DF0201EB51010AD8A469D09FDF37
:1001E800290EED6F000EEE6F000EEF6F000EF06F30
:1001F800400EF16FFF0EF26F22DF00C0EBF291DFCD
:100208000201EB51000A53E1000E000A02E1020E5E
:10021800E81949E184DF3A0EED6FEE6BEF6BF06B96
:10022800F16BFF0EF26F0BDF00C0EBF2C7C2E1FF0C
:10023800C8C2E2FFFF0EE66EC5C200F0C6C201F0FA
:10024800F2DE00C0ECF2C7C2E1FFC8C2E2FFFF0E57
:10025800E66EC5C200F0C6C201F0E5DEC7C2E1FF26
:10026800C8C2E2FFFF0EE66EC5C200F0C6C201F0CA
:10027800DADEC7C2E1FFC8C2E2FFFF0EE66EC5C202
:1002880000F0C6C201F0CFDE4CDF0201EB51000ADC
:1002980009E1ECAD03D0040E756E02D0030E756E45
:1002A800006A120004D0010E756E006A120001D0B7
:0E02B80003D0E94BEA2B5FD7010E006E120057
:1002C6002FDF000E000A02E1040E751809E1DAC2FA
:1002D600E2F2DBC2E3F2DCC2E4F2DDC2E5F214D004
:1002E600090E006EDAC2E2F2DBC2E3F2DCC2E4F22D
:1002F600DDC2E5F2005008E00201E237E291E337A1
:10030600E437E537FF0FF7D70201180EED6FE2C2AB
:10031600EEF2E3C2EFF2E4C2F0F2E5C2F1F2FF0E52
:10032600F26F8EDE005204E0FDDE010E006E12005A
:10033600C7C2E1FFC8C2E2FFFF0EE66EC5C200F00B
:10034600C6C201F071DEC7C2E1FFC8C2E2FFFF0EFE
:10035600E66EC5C200F0C6C201F066DEC7C2E1FFA6
:10036600C8C2E2FFFE0EE66EC5C200F0C6C201F0CC
:100376005BDE0201E06BE16BE151010802E1E05155
:10038600FF0815E3E051DE25E96EE151DF21EA6E53
:10039600C7C2E1FFC8C2E2FFEECFE6FFC5C200F06A
:1003A600C6C201F041DE0201E04BE12BE5D7C7C230
:1003B600E1FFC8C2E2FFFF0EE66EC5C200F0C6C28C
:1003C60001F032DEC7C2E1FFC8C2E2FFFF0EE66EF1
:1003D600C5C200F0C6C201F027DEC7C2E1FFC8C22F
:1003E600E2FFFF0EE66EC5C200F0C6C201F01CDEDB
:1003F60000C0E0F2000E0201E16F1F0EE015016E73
:10040600E1C202F0000E021601C0E0F202C0E1F203
:10041600000E021802E1050E011804E083DE020E4A
:10042600006E1200C7C2E1FFC8C2E2FFFF0EE66E11
:10043600C5C200F0C6C201F0F7DD0050FF0A01E0B8
:08044600F1D770DE006A12001C
:10044E006BDE0A0E0201ED6FEE6BEF6BF06BF16B74
:10045E00FF0EF26FF1DD005204E060DE010E006E61
:10046E001200C7C2E1FFC8C2E2FFFF0EE66EC5C2B0
:10047E0000F0C6C201F0D4DD0050FE0A01E0F1D753
:10048E000201DC6B100EDC5D1AE2DC51DA25DD6F49
:10049E00000EDB21DE6FC7C2E1FFC8C2E2FFFF0E16
:1004AE00E66EC5C200F0C6C201F0BADDDDC2E1FFE4
:1004BE00DEC2E2FF00C0E6FF0201DC2BE3D7C7C2BB
:1004CE00E1FFC8C2E2FFFF0EE66EC5C200F0C6C273
:1004DE0001F0A6DDC7C2E1FFC8C2E2FFFF0EE66E65
:1004EE00C5C200F0C6C201F09BDD18DE006A120024
:1004FE00DAC2E8F2DBC2E9F21EDE0D0EED6F05DEAA
:0A050E000A0E0201ED6F01DE12007B
:100518000900F5CFE6FF0006FBE10106F9E112004C
:10052800180E0201BD6F010EBE6FED0EBF6F020EF9
:10053800C06FFF0ED16FFF0ED26F000ED36F000E8B
:10054800D46FFF0ECD6FFF0ECE6F000ECF6F000E73
:10055800D06FFF0EC96FFF0ECA6F000ECB6F000E73
:10056800CC6FAC8A900EAB6E948E949C9EAA03D0EE
:08057800AECF00F0FBD712002A
:100580001C0E0201C56F000EC66FF60EC76F020E7D
:10059000C86FFF0EC16FFF0EC26FFF0EC36FFF0E5D
:1005A000C46F949ADA51040A02E1948601D09496B9
:1005B0009488C66ADA51C612DC51C612DB51C712E2
:1005C000DC5305E0DD51000AD8B4C78C03D0DD53FD
:0805D000D8A4C78CC68A1200F2
:1005D800A6DD090E0201ED6FEE6BEF6BF06BF16BB0
:1005E800FF0EF26F2CDD005204E09BDD010E006E61
:1005F8001200C7C2E1FFC8C2E2FFFF0EE66EC5C225
:1006080000F0C6C201F00FDD0050FE0A01E0F1D78C
:100618000201DC6B100EDC5D1AE2DC51DA25DD6FBD
:10062800000EDB21DE6FC7C2E1FFC8C2E2FFFF0E8A
:10063800E66EC5C200F0C6C201F0F5DCDDC2E1FF1E
:10064800DEC2E2FF00C0E6FF0201DC2BE3D7C7C22F
:10065800E1FFC8C2E2FFFF0EE66EC5C200F0C6C2E7
:1006680001F0E1DCC7C2E1FFC8C2E2FFFF0EE66E9F
:10067800C5C200F0C6C201F0D6DC53DD006A120024
:10068800F00E0201DA15026E02C0DBF202C000F0C1
:100698000032009E0032009E0032009E0032009E12
:1006A80000C0DBF2300E0024016E01C0DBF2015005
:1006B800390802E2070EDB270F0EDA15006E300E3E
:1006C8000024016E01C0DCF20150390802E2070E75
:1006D800DC27DBC2EDF21CDDDCC2EDF219DD120015
:1006E8001EDD000E000A02E1040E751809E1DAC2E7
:1006F800E2F2DBC2E3F2DCC2E4F2DDC2E5F214D0DE
:10070800090E006EDAC2E2F2DBC2E3F2DCC2E4F206
:10071800DDC2E5F2005008E00201E237E291E3377A
:10072800E437E537FF0FF7D70201110EED6FE2C28C
:10073800EEF2E3C2EFF2E4C2F0F2E5C2F1F2FF0E2C
:10074800F26F7DDC005204E0ECDC010E006E12005A
:10075800C7C2E1FFC8C2E2FFFF0EE66EC5C200F0E5
:10076800C6C201F060DC0050FE0A01E0F1D70201C8
:10077800E06BE16B020EE15D02E1000EE05D1BE261
:10078800E051DE25E66FE151DF21E76FC7C2E1FFE7
:10079800C8C2E2FFFF0EE66EC5C200F0C6C201F095
:1007A80042DCE6C2E1FFE7C2E2FF00C0E6FF020169
:1007B800E04BE12BDFD7C7C2E1FFC8C2E2FFFF0E63
:1007C800E66EC5C200F0C6C201F02DDCC7C2E1FF6B
:1007D800C8C2E2FFFF0EE66EC5C200F0C6C201F055
:0807E80022DC9FDC006A120014
:1007F000050E756E949099DC0201DA6BDB6B000ECE
:10080000DB5D02E10A0EDA5D0FE2C7C2E1FFC8C29A
:10081000E2FFFF0EE66EC5C200F0C6C201F007DCC3
:100820000201DA4BDB2BEBD77EDCED6BEE6BEF6B73
:10083000F06BF16B950EF26F06DC00C0DCF275DC3C
:100840000201DC51010A03E0010E006E12006BDCB4
:10085000080EED6FAA0EEE6F010EEF6F000EF06F37
:10086000F16F870EF26F23EC00F000C0DCF2C7C21C
:10087000E1FFC8C2E2FFFF0EE66EC5C200F0C6C2CD
:1008800001F017EC00F0C7C2E1FFC8C2E2FFFF0EA3
:10089000E66EC5C200F0C6C201F017EC00F0C7C298
:1008A000E1FFC8C2E2FFFF0EE66EC5C200F0C6C29D
:1008B00001F017EC00F0C7C2E1FFC8C2E2FFFF0E73
:1008C000E66EC5C200F0C6C201F017EC00F02DDCE8
:1008D0000201DC51010A08E0010EE86F4DDC005214
:1008E00002E0E86B49DC03D0020EE86F45DC000E45
:1008F000000A02E1050E751803E1020E006E1200F7
:10090000000E000A02E1040E751819E00CDC100E4E
:10091000ED6F000EEE6F020EEF6F000EF06FF16FD5
:10092000FF0EF26F23EC00F000C0DCF295EC00F05B
:100930000201DC51000A03E0030E006E1200006A9F
:020940001200A3
:1009420020EC06F00F0EC112070EB412150E0B6E3C
:100952004B0E0C6EBE0E0D6E0D2EFED70C2EFCD75E
:100962000B2EFAD70000670EAF6EAC84DCDD680E8A
:100972000C6EE40E0D6E0D2EFED70C2EFCD7000071
:10098200540E0201DA6F000EDB6FB8DD020E0201B7
:10099200DA6FDB6BDC6B010EDD6FF1DD28DF0050FF
:1009A200000A06E1480EDA6F000EDB6FA7DD06D003
:1009B200390E0201DA6F000EDB6FA0DD0201D56B8A
:1009C200D66BD651010802E1D551FF080BE3BD0EEB
:1009D200D525E16E000ED621E26E6D0EE66ED54B88
:1009E200D62BEFD74E0ED76F020ED86F4E0EDA6FA0
:1009F200020EDB6F000EDC6FDD6FBD0EDE6F000ED0
:100A0200DF6F60DC0050000A07E16C0E0201DA6F52
:100A1200000EDB6F73DD06D0600E0201DA6F000E8E
:100A2200DB6F6CDDAD0E0201DA6F000EDB6F0EDDE7
:100A32000050000A24E1200E0201E86F000EE96F67
:100A4200A2EC00F0D56BD66B000E006ED651005CA6
:100A520002E1D5510F080DE3AD0ED525E96E000E6A
:100A6200D621EA6EEECFDAF20EDE0201D54BD62B9C
:100A7200EBD71F0EDA6F000EDB6F40DD06D0150ECE
:100A82000201DA6F000EDB6F39DDAD0E0201DA6FA3
:100A9200000EDB6FA0DD0050000A24E1320E0201DD
:100AA200E86F000EE96FA2EC00F0D56BD66B000E7A
:100AB200006ED651005C02E1D5510F080DE3AD0E78
:100AC200D525E96E000ED621EA6EEECFDAF2DBDD35
:100AD2000201D54BD62BEBD7310EDA6F000EDB6F4E
:100AE2000DDD06D0270E0201DA6F000EDB6F06DD88
:100AF200D7C2DAF2D8C2DBF2000E0201DC6FDD6F80
:100B0200BD0EDE6F000EDF6FEEDD0050000A3EE12B
:100B1200820E0201DA6F000EDB6FF0DC0201D98176
:100B2200D56BD66BD651010802E1D551FF0819E306
:100B3200BD0ED525E96E000ED621EA6EEECFEDF29E
:100B42008CEC00F0BD0E0201D525E96E000ED62117
:100B5200EA6EEE506D0A02E0D99103D0D54BD62B46
:100B6200E1D7810EDA6F000EDB6FC8DC0201D9A17A
:100B720006D0760EDA6F000EDB6FC0DC06D09F0E59
:100B82000201DA6F000EDB6FB9DC06D0940E0201AF
:100B9200DA6F000EDB6FB2DC8A0E0201DA6F000E32
:060BA200DB6FACDCFFD7A5
:100C400010EE15F0980E006E010E016EA80EF66EF5
:0E0C50000B0EF76E000EF86E8CEC02F0120028
:0A0BA8004349442D6572726F72001C
:010BB2000042
:070BB300434944203A2000F1
:0A0BBA004353442D6572726F720000
:010BC4000030
:070BC500435344203A2000D5
:0F0BCC004D4D4320496E69742D6572726F720032
:0C0BDB004D4D4320496E69742D4F4B00B6
:0C0BE7005049432D537461727465640022
:0C0BF30057726974652D4572726F7200B4
:090BFF0057726974652D4F4B001B
:010C080000EB
:0B0C0900436F6E74656E742D4F4B003E
:010C140000DF
:080C1500526561642D4F4B0094
:0A0C1D005465737420456E642E00C8
:0B0C2700526561642D4572726F72000F
:0E0C3200436F6E74656E742D4572726F7200A2
:020000040030CA
:0D000100061F1EFF8381FF0FC00FE00F40A0
:00000001FF
