:10000000B9EF04F00000000000EF00F00000000075
:0A0010000000000000000000F3D71C
:10001C0071C2C9FFC7B002D00000FCD7C9CF01F034
:06002C0001C000F012000B
:10003200F250026EF29E0500FF6A0150FE6E005001
:08004200FD6E02BEF28E1200F9
:10004A00400E02016825006E4DC2E1FF4EC2E2FF7A
:10005A0000C0E6FF4BC200F04CC201F0E5DF4DC222
:10006A00E1FF4EC2E2FF6CC2E6FF4BC200F04CC297
:10007A0001F0DADF4DC2E1FF4EC2E2FF6BC2E6FFDA
:10008A004BC200F04CC201F0CFDF4DC2E1FF4EC2BD
:10009A00E2FF6AC2E6FF4BC200F04CC201F0C4DFC5
:1000AA004DC2E1FF4EC2E2FF69C2E6FF4BC200F059
:1000BA004CC201F0B9DF4DC2E1FF4EC2E2FF6DC290
:1000CA00E6FF4BC200F04CC201F0AEDF02016F6BDB
:1000DA00706B4DC2E1FF4EC2E2FFFF0EE66E4BC2ED
:1000EA0000F04CC201F0A0DF00C06EF202016F4BBB
:1000FA00702B800E6E15006E0050000AFF0ED8A4F9
:10010A00000E016E000E705D02E1640E6F5D000E5E
:10011A00D8B0FF0E006E0150001201E1DAD76EC2AC
:04012A0000F01200CF
:0E012E00ACB202D00000FCD768C2ADFF1200D8
:04013C008B90120092
:100140008B804DC2E1FF4EC2E2FFFF0EE66E4BC256
:0A01500000F04CC201F06DDF120058
:10015A000201646B62C2E9FF63C2EAFFEECF65F295
:10016A006551000A0EE065C268F2DCDF0201642B09
:10017A0064516225E96E000E6321EA6EEECF65F2E4
:04018A00EFD7120099
:10018E000201646B656B6251000A15E1D0DF010E4E
:10019E00686F696B6A6B6B6B6C6BFF0E6D6F4EDF0E
:1001AE0000C066F2C6DF02016651000A03E14A6B27
:1001BE00636B89D07DD0BBDF370E686F696B6A6B5E
:1001CE006B6B6C6BFF0E6D6F39DF00C066F2B1DFCB
:1001DE0002016651010AD8A46AD0A9DF290E686F00
:1001EE00000E696F000E6A6F000E6B6F400E6C6F23
:1001FE00FF0E6D6F23DF00C066F29BDF02016651BA
:10020E00000A54E16251020A4DE191DF3A0E686F25
:10021E00696B6A6B6B6B6C6BFF0E6D6F0FDF00C0E3
:10022E0066F24DC2E1FF4EC2E2FFFF0EE66E4BC21A
:10023E0000F04CC201F0F6DE00C067F24DC2E1FFE5
:10024E004EC2E2FFFF0EE66E4BC200F04CC201F052
:10025E00E9DE4DC2E1FF4EC2E2FFFF0EE66E4BC27B
:10026E0000F04CC201F0DEDE4DC2E1FF4EC2E2FFF5
:10027E00FF0EE66E4BC200F04CC201F0D3DE59DF2A
:10028E0002016651000A0DE1400E6715016E015024
:10029E00000A03E0040E4A6F02D0030E4A6F636B2E
:1002AE0012D004D0010E4A6F636B0DD001D009D06D
:1002BE006551270A02E10F0E641903E0644B652BAA
:0C02CE0062D7010E636F63C200F01200E3
:1002DA00F00E02015315026E02C054F202C000F081
:1002EA000032009E0032009E0032009E0032009EC4
:1002FA0000C054F2300E0024016E01C054F20150C5
:10030A00390802E2070E54270F0E5315006E300EFD
:10031A000024016E01C055F20150390802E2070EAD
:10032A00552754C268F2FEDE55C268F2FBDE12009F
:10033A00C69A1C0E02014B6F000E4C6F710E4D6F68
:10034A00020E4E6FFF0E4F6FFF0E506FFF0E516F72
:10035A00FF0E526F949A5351040A02E1948601D017
:10036A0094969488C66A5351C6125551C61254516E
:10037A00C7125551000A05E05651000AD8B4C78C75
:0E038A0004D05651000AD8A4C78CC68A1200AF
:10039800D1DE02014A51040A09E153C25CF254C297
:1003A8005DF255C25EF256C25FF213D0090E006EBE
:1003B80053C25CF254C25DF255C25EF256C25FF29D
:1003C800005007E05C375C915D375E375F37FF0FA1
:1003D800F8D7110E686F5CC269F25DC26AF25EC23C
:1003E8006BF25FC26CF2FF0E6D6F2BDE0050000ADD
:1003F80005E0A2DE010E0201596F4DD04DC2E1FFAA
:100408004EC2E2FFFF0EE66E4BC200F04CC201F096
:100418000CDE0050FE0A02E00000F0D702015A6B21
:100428005B6B5A515725606F5B515821616F4DC204
:10043800E1FF4EC2E2FFFF0EE66E4BC200F04CC277
:1004480001F0F3DD60C2E1FF61C2E2FF00C0E6FF38
:1004580002015B51010A02E1FF0E5A1903E05A4BEF
:100468005B2BDFD74DC2E1FF4EC2E2FFFF0EE66E07
:100478004BC200F04CC201F0D8DD4DC2E1FF4EC2C4
:10048800E2FFFF0EE66E4BC200F04CC201F0CDDD7C
:0C04980053DE0201596B59C200F0120043
:1004A4002E0E0201466F010E476F680E486F020E52
:1004B400496FFF0E3A6FFF0E3B6F000E3C6F000E4C
:1004C4003D6FFF0E3E6FFF0E3F6F000E406F000E3C
:1004D400416FFF0E426FFF0E436F000E446F000E1C
:1004E400456FAC8A900EAB6E948E949C9EAA03D0FA
:0804F400AECF00F0FBD71200AF
:1004FC0053C262F254C263F22ADE0D0E686F11DE33
:0A050C000A0E0201686F0DDE1200F6
:1005160012DE090E0201686F696B6A6B6B6B6C6B9E
:10052600FF0E6D6F8FDD0050000A05E006DE010E3E
:100536000201556F46D04DC2E1FF4EC2E2FFFF0EEB
:10054600E66E4BC200F04CC201F070DD0050FE0AB0
:10055600F2E10201566B56515325576F000E542196
:10056600586F4DC2E1FF4EC2E2FFFF0EE66E4BC270
:1005760000F04CC201F05ADD57C2E1FF58C2E2FF5B
:1005860000C0E6FF020156510F0A02E0562BE3D7E0
:100596004DC2E1FF4EC2E2FFFF0EE66E4BC200F017
:1005A6004CC201F043DD4DC2E1FF4EC2E2FFFF0E39
:1005B600E66E4BC200F04CC201F038DDBEDD020132
:0805C600556B55C200F0120054
:1005CE00B6DD02014A51040A09E153C25CF254C27B
:1005DE005DF255C25EF256C25FF213D0090E006E86
:1005EE0053C25CF254C25DF255C25EF256C25FF265
:1005FE00005007E05C375C915D375E375F37FF0F69
:10060E00F8D7180E686F5CC269F25DC26AF25EC2FC
:10061E006BF25FC26CF2FF0E6D6F10DD0050000AC0
:10062E0005E087DD010E0201596F8ED04DC2E1FF4C
:10063E004EC2E2FFFF0EE66E4BC200F04CC201F05E
:10064E00F1DC4DC2E1FF4EC2E2FFFF0EE66E4BC281
:10065E0000F04CC201F0E6DC4DC2E1FF4EC2E2FFFB
:10066E00FE0EE66E4BC200F04CC201F0DBDC020166
:10067E005A6B5B6B5A515725E96E5B515821EA6EE6
:10068E004DC2E1FF4EC2E2FFEECFE6FF4BC200F0DD
:10069E004CC201F0C7DC02015B51010A02E1FF0E00
:1006AE005A1903E05A4B5B2BE5D74DC2E1FF4EC200
:1006BE00E2FFFF0EE66E4BC200F04CC201F0B2DC60
:1006CE004DC2E1FF4EC2E2FFFF0EE66E4BC200F0DE
:1006DE004CC201F0A7DC4DC2E1FF4EC2E2FFFF0E9D
:1006EE00E66E4BC200F04CC201F09CDC00C05AF228
:1006FE00000E02015B6F1F0E5A15016E5BC202F0F7
:10070E00000E021601C05AF202C05BF2000E021871
:10071E0002E1050E011805E00CDD020E0201596F13
:10072E0013D04DC2E1FF4EC2E2FFFF0EE66E4BC28A
:10073E0000F04CC201F076DC0050FF0A02E000002F
:0E074E00F0D7F7DC0201596B59C200F012001F
:10075C00EFDC0A0E0201686F696B6A6B6B6B6C6B7A
:10076C00FF0E6D6F6CDC0050000A05E0E3DC010E3F
:10077C000201556F4DD04DC2E1FF4EC2E2FFFF0E9C
:10078C00E66E4BC200F04CC201F04DDC0050FE0A8C
:10079C0002E00000F0D70201566B576B56515325FF
:1007AC00586F57515421596F4DC2E1FF4EC2E2FFB1
:1007BC00FF0EE66E4BC200F04CC201F034DC58C2A6
:1007CC00E1FF59C2E2FF00C0E6FF000E020157191B
:1007DC0002E10F0E561903E0564B572BDFD74DC2D3
:1007EC00E1FF4EC2E2FFFF0EE66E4BC200F04CC2C0
:1007FC0001F019DC4DC2E1FF4EC2E2FFFF0EE66EC6
:10080C004BC200F04CC201F00EDC94DC0201556BC3
:06081C0055C200F01200BD
:10082200050E02014A6F94908B80546B556B4DC23A
:10083200E1FF4EC2E2FFFF0EE66E4BC200F04CC279
:1008420001F019EC00F0000E0201551902E1090E47
:10085200541903E0544B552BEAD76FDC686B696B74
:100862006A6B6B6B6C6B950E6D6F25EC00F000C0C4
:1008720056F265DC02015651010A03E0010E536F84
:1008820074D05BDC080E686FAA0E696F010E6A6F86
:10089200000E6B6F6C6F870E6D6F25EC00F000C061
:1008A20056F24DC2E1FF4EC2E2FFFF0EE66E4BC2B0
:1008B20000F04CC201F019EC00F04DC2E1FF4EC253
:1008C200E2FFFF0EE66E4BC200F04CC201F019ECE3
:1008D20000F04DC2E1FF4EC2E2FFFF0EE66E4BC2D8
:1008E20000F04CC201F019EC00F04DC2E1FF4EC223
:1008F200E2FFFF0EE66E4BC200F04CC201F019ECB3
:1009020000F01DDC02015651010A09E0010E626F7E
:100912003DDC0050000A02E0626B38DC03D0020EBC
:10092200626F34DC4A51050A03E1020E536F1DD097
:100932004A51040A19E001DC100E686F000E696F5B
:10094200020E6A6F000E6B6F6C6FFF0E6D6F25ECFF
:1009520000F000C056F2A0EC00F002015651000A6D
:1009620003E0030E536F01D0536B53C200F0120029
:100972000F0EC112070EB412520E0B6E2B0E0C6E1E
:10098200000E0D6E0D2EFED70C2EFCD70B2EFAD7B5
:100992000000670EAF6EAC8484DD680E0C6EE40E50
:1009A2000D6E0D2EFED70C2EFCD70000500E276EBA
:1009B200490E286E430E296E2D0E2A6E530E2B6E93
:1009C200740E2C6E610E2D6E720E2E6E740E2F6EC4
:1009D200650E306E640E316E326A270E0201536F5D
:1009E200000E546F8ADD020E0201536F546B556B79
:1009F200010E566FA1DC14DF00C015F00050000A92
:100A02001DE14D0E276E4D0E286E430E296E200EEF
:100A12002A6E490E2B6E6E0E2C6E690E2D6E740EA2
:100A22002E6E2D0E2F6E4F0E306E4B0E316E326AC1
:100A3200270E536F000E546F60DD23D04D0E276ECC
:100A42004D0E286E430E296E200E2A6E490E2B6E15
:100A52006E0E2C6E690E2D6E740E2E6E2D0E2F6E76
:100A6200650E306E720E316E720E326E6F0E336E16
:100A7200720E346E356A270E0201536F000E546FE8
:100A82003CDD0201386B396B380E3825E16E000E01
:100A92003921E26E6D0EE66E3951010A02E1FF0E56
:100AA200381903E0384B392BEFD74E0E366E020E53
:100AB200376E4E0E536F020E546F000E556F566F07
:100AC200380E576F000E586F81DD00C015F00050D0
:100AD200000A17E1570E276E720E286E690E296EF4
:100AE200740E2A6E650E2B6E2D0E2C6E4F0E2D6E11
:100AF2004B0E2E6E2F6A270E536F000E546FFDDCC5
:100B02001DD0570E276E720E286E690E296E740E56
:100B12002A6E650E2B6E2D0E2C6E450E2D6E720EEC
:100B22002E6E720E2F6E6F0E306E720E316E326A34
:100B3200270E0201536F000E546FDFDC170E020105
:100B4200536F000E546F09DE00C015F00050000A0A
:100B520034E1430E276E490E286E440E296E200E94
:100B62002A6E3A0E2B6E200E2C6E2D6A270E626FA5
:100B7200000E636FADEC00F0386B396B170E382541
:100B8200E96E000E3921EA6EEECF53F26DEC01F000
:100B9200000E0201391902E10F0E381903E0384B39
:100BA200392BECD7200E276E200E286E296A270ECD
:100BB200536F000E546FA1DC19D0430E276E490EFD
:100BC200286E440E296E2D0E2A6E650E2B6E720E45
:100BD2002C6E720E2D6E6F0E2E6E720E2F6E306A8E
:100BE200270E0201536F000E546F87DC170E0201AD
:100BF200536F000E546F8EDC00C015F00050000AD7
:100C020034E1430E276E530E286E440E296E200ED9
:100C12002A6E3A0E2B6E200E2C6E2D6A270E626FF4
:100C2200000E636FADEC00F0386B396B170E382590
:100C3200E96E000E3921EA6EEECF53F26DEC01F04F
:100C4200000E0201391902E10F0E381903E0384B88
:100C5200392BECD7200E276E200E286E296A270E1C
:100C6200536F000E546F49DC19D0430E276E530E9A
:100C7200286E440E296E2D0E2A6E650E2B6E720E94
:100C82002C6E720E2D6E6F0E2E6E720E2F6E306ADD
:100C9200270E0201536F000E546F2FDC36C053F241
:100CA20037C054F2000E0201556F566F380E576F5F
:100CB200000E586FCCEC01F000C015F00050000A95
:100CC200D8A478D0520E276E650E286E610E296E5A
:100CD200640E2A6E2D0E2B6E4F0E2C6E4B0E2D6E49
:100CE2002E6A270E536F000E546F07DC1680020126
:100CF200386B396B380E3825E96E000E3921EA6EF1
:100D0200EECF68F297EC00F0380E02013825E96E5A
:100D1200000E3921EA6EEE506D0A02E0169009D0FB
:100D22003951010A02E1FF0E381903E0384B392B21
:100D3200E1D716A01CD0430E276E6F0E286E6E0EE2
:100D4200296E740E2A6E650E2B6E6E0E2C6E740E4C
:100D52002D6E2D0E2E6E4F0E2F6E4B0E306E316A93
:100D6200270E536F000E546F7EEC02F022D0430E1A
:100D7200276E6F0E286E6E0E296E740E2A6E650E29
:100D82002B6E6E0E2C6E740E2D6E2D0E2E6E450E6B
:100D92002F6E720E306E720E316E6F0E326E720EDA
:100DA200336E346A270E0201536F000E546F7EECCD
:100DB20002F01CD0520E276E650E286E610E296E4F
:100DC200640E2A6E2D0E2B6E450E2C6E720E2D6E3B
:100DD200720E2E6E6F0E2F6E720E306E316A270EED
:100DE2000201536F000E546F7EEC02F0540E276E18
:100DF200650E286E730E296E740E2A6E200E2B6EEF
:100E0200450E2C6E6E0E2D6E640E2E6E2E0E2F6EF5
:100E1200306A270E0201536F000E546F7EEC02F00F
:020E2200FFD7F8
:020000040030CA
:0D000100061F1EFF8381FF0FC00FE00F40A0
:00000001FF
